{
  "contractName": "HACHINFT",
  "abi": [
    {
      "inputs": [
        {
          "internalType": "string",
          "name": "_ipfs",
          "type": "string"
        },
        {
          "internalType": "contract HachiWhitelist",
          "name": "_whtlst",
          "type": "address"
        },
        {
          "internalType": "contract HachiWallet",
          "name": "_wllt",
          "type": "address"
        }
      ],
      "stateMutability": "nonpayable",
      "type": "constructor"
    },
    {
      "anonymous": false,
      "inputs": [
        {
          "indexed": true,
          "internalType": "address",
          "name": "account",
          "type": "address"
        },
        {
          "indexed": true,
          "internalType": "address",
          "name": "operator",
          "type": "address"
        },
        {
          "indexed": false,
          "internalType": "bool",
          "name": "approved",
          "type": "bool"
        }
      ],
      "name": "ApprovalForAll",
      "type": "event"
    },
    {
      "anonymous": false,
      "inputs": [
        {
          "indexed": true,
          "internalType": "address",
          "name": "to",
          "type": "address"
        },
        {
          "indexed": true,
          "internalType": "uint256[]",
          "name": "id",
          "type": "uint256[]"
        },
        {
          "indexed": false,
          "internalType": "uint256",
          "name": "_value",
          "type": "uint256"
        }
      ],
      "name": "Mint",
      "type": "event"
    },
    {
      "anonymous": false,
      "inputs": [
        {
          "indexed": true,
          "internalType": "address",
          "name": "previousOwner",
          "type": "address"
        },
        {
          "indexed": true,
          "internalType": "address",
          "name": "newOwner",
          "type": "address"
        }
      ],
      "name": "OwnershipTransferred",
      "type": "event"
    },
    {
      "anonymous": false,
      "inputs": [
        {
          "indexed": false,
          "internalType": "address",
          "name": "account",
          "type": "address"
        }
      ],
      "name": "Paused",
      "type": "event"
    },
    {
      "anonymous": false,
      "inputs": [
        {
          "indexed": true,
          "internalType": "address",
          "name": "operator",
          "type": "address"
        },
        {
          "indexed": true,
          "internalType": "address",
          "name": "from",
          "type": "address"
        },
        {
          "indexed": true,
          "internalType": "address",
          "name": "to",
          "type": "address"
        },
        {
          "indexed": false,
          "internalType": "uint256[]",
          "name": "ids",
          "type": "uint256[]"
        },
        {
          "indexed": false,
          "internalType": "uint256[]",
          "name": "values",
          "type": "uint256[]"
        }
      ],
      "name": "TransferBatch",
      "type": "event"
    },
    {
      "anonymous": false,
      "inputs": [
        {
          "indexed": true,
          "internalType": "address",
          "name": "operator",
          "type": "address"
        },
        {
          "indexed": true,
          "internalType": "address",
          "name": "from",
          "type": "address"
        },
        {
          "indexed": true,
          "internalType": "address",
          "name": "to",
          "type": "address"
        },
        {
          "indexed": false,
          "internalType": "uint256",
          "name": "id",
          "type": "uint256"
        },
        {
          "indexed": false,
          "internalType": "uint256",
          "name": "value",
          "type": "uint256"
        }
      ],
      "name": "TransferSingle",
      "type": "event"
    },
    {
      "anonymous": false,
      "inputs": [
        {
          "indexed": false,
          "internalType": "string",
          "name": "value",
          "type": "string"
        },
        {
          "indexed": true,
          "internalType": "uint256",
          "name": "id",
          "type": "uint256"
        }
      ],
      "name": "URI",
      "type": "event"
    },
    {
      "anonymous": false,
      "inputs": [
        {
          "indexed": false,
          "internalType": "address",
          "name": "account",
          "type": "address"
        }
      ],
      "name": "Unpaused",
      "type": "event"
    },
    {
      "inputs": [],
      "name": "addressMintLimit",
      "outputs": [
        {
          "internalType": "uint256",
          "name": "",
          "type": "uint256"
        }
      ],
      "stateMutability": "view",
      "type": "function"
    },
    {
      "inputs": [
        {
          "internalType": "address",
          "name": "account",
          "type": "address"
        },
        {
          "internalType": "uint256",
          "name": "id",
          "type": "uint256"
        }
      ],
      "name": "balanceOf",
      "outputs": [
        {
          "internalType": "uint256",
          "name": "",
          "type": "uint256"
        }
      ],
      "stateMutability": "view",
      "type": "function"
    },
    {
      "inputs": [
        {
          "internalType": "address[]",
          "name": "accounts",
          "type": "address[]"
        },
        {
          "internalType": "uint256[]",
          "name": "ids",
          "type": "uint256[]"
        }
      ],
      "name": "balanceOfBatch",
      "outputs": [
        {
          "internalType": "uint256[]",
          "name": "",
          "type": "uint256[]"
        }
      ],
      "stateMutability": "view",
      "type": "function"
    },
    {
      "inputs": [],
      "name": "contractURI",
      "outputs": [
        {
          "internalType": "string",
          "name": "",
          "type": "string"
        }
      ],
      "stateMutability": "view",
      "type": "function"
    },
    {
      "inputs": [
        {
          "internalType": "address",
          "name": "account",
          "type": "address"
        },
        {
          "internalType": "address",
          "name": "operator",
          "type": "address"
        }
      ],
      "name": "isApprovedForAll",
      "outputs": [
        {
          "internalType": "bool",
          "name": "",
          "type": "bool"
        }
      ],
      "stateMutability": "view",
      "type": "function"
    },
    {
      "inputs": [],
      "name": "metaDataReveal",
      "outputs": [
        {
          "internalType": "bool",
          "name": "",
          "type": "bool"
        }
      ],
      "stateMutability": "view",
      "type": "function"
    },
    {
      "inputs": [],
      "name": "mintLimit",
      "outputs": [
        {
          "internalType": "uint256",
          "name": "",
          "type": "uint256"
        }
      ],
      "stateMutability": "view",
      "type": "function"
    },
    {
      "inputs": [],
      "name": "mintPrice",
      "outputs": [
        {
          "internalType": "uint256",
          "name": "",
          "type": "uint256"
        }
      ],
      "stateMutability": "view",
      "type": "function"
    },
    {
      "inputs": [],
      "name": "name",
      "outputs": [
        {
          "internalType": "string",
          "name": "",
          "type": "string"
        }
      ],
      "stateMutability": "view",
      "type": "function"
    },
    {
      "inputs": [],
      "name": "owner",
      "outputs": [
        {
          "internalType": "address",
          "name": "",
          "type": "address"
        }
      ],
      "stateMutability": "view",
      "type": "function"
    },
    {
      "inputs": [],
      "name": "paused",
      "outputs": [
        {
          "internalType": "bool",
          "name": "",
          "type": "bool"
        }
      ],
      "stateMutability": "view",
      "type": "function"
    },
    {
      "inputs": [],
      "name": "publicMint",
      "outputs": [
        {
          "internalType": "bool",
          "name": "",
          "type": "bool"
        }
      ],
      "stateMutability": "view",
      "type": "function"
    },
    {
      "inputs": [],
      "name": "renounceOwnership",
      "outputs": [],
      "stateMutability": "nonpayable",
      "type": "function"
    },
    {
      "inputs": [
        {
          "internalType": "uint256",
          "name": "_tokenId",
          "type": "uint256"
        },
        {
          "internalType": "uint256",
          "name": "_salePrice",
          "type": "uint256"
        }
      ],
      "name": "royaltyInfo",
      "outputs": [
        {
          "internalType": "address",
          "name": "",
          "type": "address"
        },
        {
          "internalType": "uint256",
          "name": "",
          "type": "uint256"
        }
      ],
      "stateMutability": "view",
      "type": "function"
    },
    {
      "inputs": [
        {
          "internalType": "address",
          "name": "from",
          "type": "address"
        },
        {
          "internalType": "address",
          "name": "to",
          "type": "address"
        },
        {
          "internalType": "uint256[]",
          "name": "ids",
          "type": "uint256[]"
        },
        {
          "internalType": "uint256[]",
          "name": "amounts",
          "type": "uint256[]"
        },
        {
          "internalType": "bytes",
          "name": "data",
          "type": "bytes"
        }
      ],
      "name": "safeBatchTransferFrom",
      "outputs": [],
      "stateMutability": "nonpayable",
      "type": "function"
    },
    {
      "inputs": [
        {
          "internalType": "address",
          "name": "from",
          "type": "address"
        },
        {
          "internalType": "address",
          "name": "to",
          "type": "address"
        },
        {
          "internalType": "uint256",
          "name": "id",
          "type": "uint256"
        },
        {
          "internalType": "uint256",
          "name": "amount",
          "type": "uint256"
        },
        {
          "internalType": "bytes",
          "name": "data",
          "type": "bytes"
        }
      ],
      "name": "safeTransferFrom",
      "outputs": [],
      "stateMutability": "nonpayable",
      "type": "function"
    },
    {
      "inputs": [
        {
          "internalType": "address",
          "name": "operator",
          "type": "address"
        },
        {
          "internalType": "bool",
          "name": "approved",
          "type": "bool"
        }
      ],
      "name": "setApprovalForAll",
      "outputs": [],
      "stateMutability": "nonpayable",
      "type": "function"
    },
    {
      "inputs": [],
      "name": "symbol",
      "outputs": [
        {
          "internalType": "string",
          "name": "",
          "type": "string"
        }
      ],
      "stateMutability": "view",
      "type": "function"
    },
    {
      "inputs": [
        {
          "internalType": "address",
          "name": "newOwner",
          "type": "address"
        }
      ],
      "name": "transferOwnership",
      "outputs": [],
      "stateMutability": "nonpayable",
      "type": "function"
    },
    {
      "stateMutability": "payable",
      "type": "receive"
    },
    {
      "inputs": [
        {
          "internalType": "uint256",
          "name": "_tokenId",
          "type": "uint256"
        }
      ],
      "name": "uri",
      "outputs": [
        {
          "internalType": "string",
          "name": "",
          "type": "string"
        }
      ],
      "stateMutability": "view",
      "type": "function"
    },
    {
      "inputs": [
        {
          "internalType": "string",
          "name": "_uri",
          "type": "string"
        }
      ],
      "name": "setGenericMeta",
      "outputs": [],
      "stateMutability": "nonpayable",
      "type": "function"
    },
    {
      "inputs": [],
      "name": "revealMetaData",
      "outputs": [],
      "stateMutability": "nonpayable",
      "type": "function"
    },
    {
      "inputs": [
        {
          "internalType": "string",
          "name": "_newuri",
          "type": "string"
        }
      ],
      "name": "setURI",
      "outputs": [],
      "stateMutability": "nonpayable",
      "type": "function"
    },
    {
      "inputs": [
        {
          "internalType": "string",
          "name": "_contractURI",
          "type": "string"
        }
      ],
      "name": "setContractURI",
      "outputs": [],
      "stateMutability": "nonpayable",
      "type": "function"
    },
    {
      "inputs": [
        {
          "components": [
            {
              "internalType": "address",
              "name": "to",
              "type": "address"
            },
            {
              "internalType": "uint256[]",
              "name": "amounts",
              "type": "uint256[]"
            },
            {
              "internalType": "bytes32[]",
              "name": "merkleProof",
              "type": "bytes32[]"
            },
            {
              "internalType": "bytes",
              "name": "signature",
              "type": "bytes"
            }
          ],
          "internalType": "struct HACHINFT.HachiTicket",
          "name": "_ticket",
          "type": "tuple"
        }
      ],
      "name": "mintHachi",
      "outputs": [],
      "stateMutability": "payable",
      "type": "function"
    },
    {
      "inputs": [
        {
          "internalType": "address",
          "name": "receiver",
          "type": "address"
        },
        {
          "internalType": "uint96",
          "name": "feeNumerator",
          "type": "uint96"
        }
      ],
      "name": "setDefaultRoyalty",
      "outputs": [],
      "stateMutability": "nonpayable",
      "type": "function"
    },
    {
      "inputs": [
        {
          "internalType": "uint256",
          "name": "_limit",
          "type": "uint256"
        }
      ],
      "name": "updateMintLimit",
      "outputs": [],
      "stateMutability": "nonpayable",
      "type": "function"
    },
    {
      "inputs": [
        {
          "internalType": "uint256",
          "name": "_price",
          "type": "uint256"
        }
      ],
      "name": "updateMintPrice",
      "outputs": [],
      "stateMutability": "nonpayable",
      "type": "function"
    },
    {
      "inputs": [
        {
          "internalType": "uint256",
          "name": "_limit",
          "type": "uint256"
        }
      ],
      "name": "updateAddressMintLimit",
      "outputs": [],
      "stateMutability": "nonpayable",
      "type": "function"
    },
    {
      "inputs": [
        {
          "internalType": "bool",
          "name": "_publicMint",
          "type": "bool"
        }
      ],
      "name": "updatePublicMint",
      "outputs": [],
      "stateMutability": "nonpayable",
      "type": "function"
    },
    {
      "inputs": [],
      "name": "pause",
      "outputs": [],
      "stateMutability": "nonpayable",
      "type": "function"
    },
    {
      "inputs": [],
      "name": "unpause",
      "outputs": [],
      "stateMutability": "nonpayable",
      "type": "function"
    },
    {
      "inputs": [
        {
          "internalType": "bytes4",
          "name": "interfaceId",
          "type": "bytes4"
        }
      ],
      "name": "supportsInterface",
      "outputs": [
        {
          "internalType": "bool",
          "name": "",
          "type": "bool"
        }
      ],
      "stateMutability": "view",
      "type": "function"
    }
  ],
  "bytecode": "0x6101406040526040518060400160405280600981526020017f4861636869204e4654000000000000000000000000000000000000000000000081525060079080519060200190620000529291906200080c565b506040518060400160405280600581526020017f484143484900000000000000000000000000000000000000000000000000000081525060089080519060200190620000a09291906200080c565b5060405180606001604052806035815260200162006a896035913960099080519060200190620000d29291906200080c565b5060405180606001604052806035815260200162006a5460359139600a9080519060200190620001049291906200080c565b5067016345785d8a0000600c556003600d55611f40600e556000600f553480156200012e57600080fd5b5060405162006abe38038062006abe833981810160405281019062000154919062000b2b565b6040518060400160405280600b81526020017f48616368694e66745369670000000000000000000000000000000000000000008152506040518060400160405280600181526020017f310000000000000000000000000000000000000000000000000000000000000081525084620001d2816200037760201b60201c565b5060008280519060200120905060008280519060200120905060007f8b73c3c69bb8fe3d512ecc4cf759cc79239f7b179b0ffacaa9a75d522b39400f90508260e081815250508161010081815250504660a081815250506200023c8184846200039360201b60201c565b608081815250503073ffffffffffffffffffffffffffffffffffffffff1660c08173ffffffffffffffffffffffffffffffffffffffff16815250508061012081815250505050505050620002a562000299620003cf60201b60201c565b620003d760201b60201c565b6000600560146101000a81548160ff021916908315150217905550600160068190555081601160006101000a81548173ffffffffffffffffffffffffffffffffffffffff021916908373ffffffffffffffffffffffffffffffffffffffff16021790555080601260006101000a81548173ffffffffffffffffffffffffffffffffffffffff021916908373ffffffffffffffffffffffffffffffffffffffff1602179055506200035e8161012c6200049d60201b60201c565b6200036e620004c360201b60201c565b50505062000eca565b80600290805190602001906200038f9291906200080c565b5050565b60008383834630604051602001620003b095949392919062000bed565b6040516020818303038152906040528051906020012090509392505050565b600033905090565b6000600560009054906101000a900473ffffffffffffffffffffffffffffffffffffffff16905081600560006101000a81548173ffffffffffffffffffffffffffffffffffffffff021916908373ffffffffffffffffffffffffffffffffffffffff1602179055508173ffffffffffffffffffffffffffffffffffffffff168173ffffffffffffffffffffffffffffffffffffffff167f8be0079c531659141344cd1fd0a4f28419497f9722a3daafe3b4186f6b6457e060405160405180910390a35050565b620004ad6200053860201b60201c565b620004bf8282620005c960201b60201c565b5050565b620004d36200076c60201b60201c565b6001600560146101000a81548160ff0219169083151502179055507f62e78cea01bee320cd4e420270b5ea74000d11b0c9f74754ebdbfc544b05a2586200051f620003cf60201b60201c565b6040516200052e919062000c4a565b60405180910390a1565b62000548620003cf60201b60201c565b73ffffffffffffffffffffffffffffffffffffffff166200056e620007c160201b60201c565b73ffffffffffffffffffffffffffffffffffffffff1614620005c7576040517f08c379a0000000000000000000000000000000000000000000000000000000008152600401620005be9062000cc8565b60405180910390fd5b565b620005d9620007eb60201b60201c565b6bffffffffffffffffffffffff16816bffffffffffffffffffffffff1611156200063a576040517f08c379a0000000000000000000000000000000000000000000000000000000008152600401620006319062000d60565b60405180910390fd5b600073ffffffffffffffffffffffffffffffffffffffff168273ffffffffffffffffffffffffffffffffffffffff1603620006ac576040517f08c379a0000000000000000000000000000000000000000000000000000000008152600401620006a39062000dd2565b60405180910390fd5b60405180604001604052808373ffffffffffffffffffffffffffffffffffffffff168152602001826bffffffffffffffffffffffff16815250600360008201518160000160006101000a81548173ffffffffffffffffffffffffffffffffffffffff021916908373ffffffffffffffffffffffffffffffffffffffff16021790555060208201518160000160146101000a8154816bffffffffffffffffffffffff02191690836bffffffffffffffffffffffff1602179055509050505050565b6200077c620007f560201b60201c565b15620007bf576040517f08c379a0000000000000000000000000000000000000000000000000000000008152600401620007b69062000e44565b60405180910390fd5b565b6000600560009054906101000a900473ffffffffffffffffffffffffffffffffffffffff16905090565b6000612710905090565b6000600560149054906101000a900460ff16905090565b8280546200081a9062000e95565b90600052602060002090601f0160209004810192826200083e57600085556200088a565b82601f106200085957805160ff19168380011785556200088a565b828001600101855582156200088a579182015b82811115620008895782518255916020019190600101906200086c565b5b5090506200089991906200089d565b5090565b5b80821115620008b85760008160009055506001016200089e565b5090565b6000604051905090565b600080fd5b600080fd5b600080fd5b600080fd5b6000601f19601f8301169050919050565b7f4e487b7100000000000000000000000000000000000000000000000000000000600052604160045260246000fd5b6200092582620008da565b810181811067ffffffffffffffff82111715620009475762000946620008eb565b5b80604052505050565b60006200095c620008bc565b90506200096a82826200091a565b919050565b600067ffffffffffffffff8211156200098d576200098c620008eb565b5b6200099882620008da565b9050602081019050919050565b60005b83811015620009c5578082015181840152602081019050620009a8565b83811115620009d5576000848401525b50505050565b6000620009f2620009ec846200096f565b62000950565b90508281526020810184848401111562000a115762000a10620008d5565b5b62000a1e848285620009a5565b509392505050565b600082601f83011262000a3e5762000a3d620008d0565b5b815162000a50848260208601620009db565b91505092915050565b600073ffffffffffffffffffffffffffffffffffffffff82169050919050565b600062000a868262000a59565b9050919050565b600062000a9a8262000a79565b9050919050565b62000aac8162000a8d565b811462000ab857600080fd5b50565b60008151905062000acc8162000aa1565b92915050565b600062000adf8262000a59565b9050919050565b600062000af38262000ad2565b9050919050565b62000b058162000ae6565b811462000b1157600080fd5b50565b60008151905062000b258162000afa565b92915050565b60008060006060848603121562000b475762000b46620008c6565b5b600084015167ffffffffffffffff81111562000b685762000b67620008cb565b5b62000b768682870162000a26565b935050602062000b898682870162000abb565b925050604062000b9c8682870162000b14565b9150509250925092565b6000819050919050565b62000bbb8162000ba6565b82525050565b6000819050919050565b62000bd68162000bc1565b82525050565b62000be78162000a79565b82525050565b600060a08201905062000c04600083018862000bb0565b62000c13602083018762000bb0565b62000c22604083018662000bb0565b62000c31606083018562000bcb565b62000c40608083018462000bdc565b9695505050505050565b600060208201905062000c61600083018462000bdc565b92915050565b600082825260208201905092915050565b7f4f776e61626c653a2063616c6c6572206973206e6f7420746865206f776e6572600082015250565b600062000cb060208362000c67565b915062000cbd8262000c78565b602082019050919050565b6000602082019050818103600083015262000ce38162000ca1565b9050919050565b7f455243323938313a20726f79616c7479206665652077696c6c2065786365656460008201527f2073616c65507269636500000000000000000000000000000000000000000000602082015250565b600062000d48602a8362000c67565b915062000d558262000cea565b604082019050919050565b6000602082019050818103600083015262000d7b8162000d39565b9050919050565b7f455243323938313a20696e76616c696420726563656976657200000000000000600082015250565b600062000dba60198362000c67565b915062000dc78262000d82565b602082019050919050565b6000602082019050818103600083015262000ded8162000dab565b9050919050565b7f5061757361626c653a2070617573656400000000000000000000000000000000600082015250565b600062000e2c60108362000c67565b915062000e398262000df4565b602082019050919050565b6000602082019050818103600083015262000e5f8162000e1d565b9050919050565b7f4e487b7100000000000000000000000000000000000000000000000000000000600052602260045260246000fd5b6000600282049050600182168062000eae57607f821691505b60208210810362000ec45762000ec362000e66565b5b50919050565b60805160a05160c05160e0516101005161012051615b3a62000f1a600039600061333401526000613376015260006133550152600061328a015260006132e0015260006133090152615b3a6000f3fe6080604052600436106101f05760003560e01c80635c975abb1161010d578063a22cb465116100a0578063e8a3d4851161006f578063e8a3d48514610714578063e985e9c51461073f578063e9d1fd141461077c578063f242432a14610793578063f2fde38b146107bc5761025f565b8063a22cb4651461066e578063a700f51314610697578063bf9b90b2146106c0578063e01d55c5146106eb5761025f565b80638da5cb5b116100dc5780638da5cb5b146105c4578063938e3d7b146105ef57806395d89b4114610618578063996517cf146106435761025f565b80635c975abb146105405780636817c76c1461056b578063715018a6146105965780638456cb59146105ad5761025f565b806326092b831161018557806338b91e541161015457806338b91e54146104985780633f4ba83a146104c35780634033de3f146104da5780634e1273f4146105035761025f565b806326092b83146103ea5780632a55205a146104155780632eb2c2d61461045357806338b41a481461047c5761025f565b806304634d8d116101c157806304634d8d1461033057806306fdde03146103595780630e89341c14610384578063210df791146103c15761025f565b8062728e4614610264578062fdd58e1461028d57806301ffc9a7146102ca57806302fe5305146103075761025f565b3661025f57601260009054906101000a900473ffffffffffffffffffffffffffffffffffffffff1673ffffffffffffffffffffffffffffffffffffffff166108fc349081150290604051600060405180830381858888f1935050505015801561025d573d6000803e3d6000fd5b005b600080fd5b34801561027057600080fd5b5061028b60048036038101906102869190613665565b6107e5565b005b34801561029957600080fd5b506102b460048036038101906102af91906136f0565b6107f7565b6040516102c1919061373f565b60405180910390f35b3480156102d657600080fd5b506102f160048036038101906102ec91906137b2565b6108bf565b6040516102fe91906137fa565b60405180910390f35b34801561031357600080fd5b5061032e6004803603810190610329919061395b565b6108d1565b005b34801561033c57600080fd5b50610357600480360381019061035291906139e8565b6108e5565b005b34801561036557600080fd5b5061036e6108fb565b60405161037b9190613ab0565b60405180910390f35b34801561039057600080fd5b506103ab60048036038101906103a69190613665565b610989565b6040516103b89190613ab0565b60405180910390f35b3480156103cd57600080fd5b506103e860048036038101906103e3919061395b565b610a6b565b005b3480156103f657600080fd5b506103ff610a8d565b60405161040c91906137fa565b60405180910390f35b34801561042157600080fd5b5061043c60048036038101906104379190613ad2565b610aa0565b60405161044a929190613b21565b60405180910390f35b34801561045f57600080fd5b5061047a60048036038101906104759190613cb3565b610c8a565b005b61049660048036038101906104919190613da6565b610d2b565b005b3480156104a457600080fd5b506104ad61135d565b6040516104ba919061373f565b60405180910390f35b3480156104cf57600080fd5b506104d8611363565b005b3480156104e657600080fd5b5061050160048036038101906104fc9190613e1b565b611375565b005b34801561050f57600080fd5b5061052a60048036038101906105259190613f0b565b6113ef565b6040516105379190614041565b60405180910390f35b34801561054c57600080fd5b50610555611508565b60405161056291906137fa565b60405180910390f35b34801561057757600080fd5b5061058061151f565b60405161058d919061373f565b60405180910390f35b3480156105a257600080fd5b506105ab611525565b005b3480156105b957600080fd5b506105c2611539565b005b3480156105d057600080fd5b506105d961154b565b6040516105e69190614063565b60405180910390f35b3480156105fb57600080fd5b506106166004803603810190610611919061395b565b611575565b005b34801561062457600080fd5b5061062d611597565b60405161063a9190613ab0565b60405180910390f35b34801561064f57600080fd5b50610658611625565b604051610665919061373f565b60405180910390f35b34801561067a57600080fd5b506106956004803603810190610690919061407e565b61162b565b005b3480156106a357600080fd5b506106be60048036038101906106b99190613665565b611641565b005b3480156106cc57600080fd5b506106d5611653565b6040516106e291906137fa565b60405180910390f35b3480156106f757600080fd5b50610712600480360381019061070d9190613665565b611666565b005b34801561072057600080fd5b50610729611678565b6040516107369190613ab0565b60405180910390f35b34801561074b57600080fd5b50610766600480360381019061076191906140be565b611706565b60405161077391906137fa565b60405180910390f35b34801561078857600080fd5b5061079161179a565b005b34801561079f57600080fd5b506107ba60048036038101906107b591906140fe565b6117bf565b005b3480156107c857600080fd5b506107e360048036038101906107de9190614195565b611860565b005b6107ed6118e3565b80600c8190555050565b60008073ffffffffffffffffffffffffffffffffffffffff168373ffffffffffffffffffffffffffffffffffffffff1603610867576040517f08c379a000000000000000000000000000000000000000000000000000000000815260040161085e90614234565b60405180910390fd5b60008083815260200190815260200160002060008473ffffffffffffffffffffffffffffffffffffffff1673ffffffffffffffffffffffffffffffffffffffff16815260200190815260200160002054905092915050565b60006108ca82611961565b9050919050565b6108d96118e3565b6108e2816119db565b50565b6108ed6118e3565b6108f782826119f5565b5050565b6007805461090890614283565b80601f016020809104026020016040519081016040528092919081815260200182805461093490614283565b80156109815780601f1061095657610100808354040283529160200191610981565b820191906000526020600020905b81548152906001019060200180831161096457829003601f168201915b505050505081565b6060600b60009054906101000a900460ff16610a3157600a80546109ac90614283565b80601f01602080910402602001604051908101604052809291908181526020018280546109d890614283565b8015610a255780601f106109fa57610100808354040283529160200191610a25565b820191906000526020600020905b815481529060010190602001808311610a0857829003601f168201915b50505050509050610a66565b610a3a82611b8a565b610a4383611c1e565b604051602001610a549291906142f0565b60405160208183030381529060405290505b919050565b610a736118e3565b80600a9080519060200190610a89929190613578565b5050565b600b60019054906101000a900460ff1681565b6000806000600460008681526020019081526020016000206040518060400160405290816000820160009054906101000a900473ffffffffffffffffffffffffffffffffffffffff1673ffffffffffffffffffffffffffffffffffffffff1673ffffffffffffffffffffffffffffffffffffffff1681526020016000820160149054906101000a90046bffffffffffffffffffffffff166bffffffffffffffffffffffff166bffffffffffffffffffffffff16815250509050600073ffffffffffffffffffffffffffffffffffffffff16816000015173ffffffffffffffffffffffffffffffffffffffff1603610c355760036040518060400160405290816000820160009054906101000a900473ffffffffffffffffffffffffffffffffffffffff1673ffffffffffffffffffffffffffffffffffffffff1673ffffffffffffffffffffffffffffffffffffffff1681526020016000820160149054906101000a90046bffffffffffffffffffffffff166bffffffffffffffffffffffff166bffffffffffffffffffffffff168152505090505b6000610c3f611d7e565b6bffffffffffffffffffffffff1682602001516bffffffffffffffffffffffff1686610c6b9190614343565b610c7591906143cc565b90508160000151819350935050509250929050565b610c92611d88565b73ffffffffffffffffffffffffffffffffffffffff168573ffffffffffffffffffffffffffffffffffffffff161480610cd85750610cd785610cd2611d88565b611706565b5b610d17576040517f08c379a0000000000000000000000000000000000000000000000000000000008152600401610d0e9061446f565b60405180910390fd5b610d248585858585611d90565b5050505050565b610d336120b1565b600260065403610d78576040517f08c379a0000000000000000000000000000000000000000000000000000000008152600401610d6f906144db565b60405180910390fd5b60026006819055506000610d8b826120fb565b90508073ffffffffffffffffffffffffffffffffffffffff163373ffffffffffffffffffffffffffffffffffffffff1614610dfb576040517f08c379a0000000000000000000000000000000000000000000000000000000008152600401610df290614547565b60405180910390fd5b6000828060200190610e0d9190614576565b9050905060008111610e54576040517f08c379a0000000000000000000000000000000000000000000000000000000008152600401610e4b90614625565b60405180910390fd5b6000838060200190610e669190614576565b80806020026020016040519081016040528093929190818152602001838360200280828437600081840152601f19601f820116905080830192505050505050509050600e5482600f54610eb99190614645565b1115610efa576040517f08c379a0000000000000000000000000000000000000000000000000000000008152600401610ef1906146e7565b60405180910390fd5b600b60019054906101000a900460ff16610ffc57601160009054906101000a900473ffffffffffffffffffffffffffffffffffffffff1673ffffffffffffffffffffffffffffffffffffffff166318ff357e858060400190610f5c9190614707565b866040518463ffffffff1660e01b8152600401610f7b939291906147dc565b602060405180830381865afa158015610f98573d6000803e3d6000fd5b505050506040513d601f19601f82011682018060405250810190610fbc9190614823565b610ffb576040517f08c379a0000000000000000000000000000000000000000000000000000000008152600401610ff29061489c565b60405180910390fd5b5b600d5482601060008673ffffffffffffffffffffffffffffffffffffffff1673ffffffffffffffffffffffffffffffffffffffff1681526020019081526020016000205461104a9190614645565b111561108b576040517f08c379a000000000000000000000000000000000000000000000000000000000815260040161108290614908565b60405180910390fd5b81600c546110999190614343565b3410156110db576040517f08c379a00000000000000000000000000000000000000000000000000000000081526004016110d290614974565b60405180910390fd5b60005b8281101561119d5760018580602001906110f89190614576565b8381811061110957611108614994565b5b9050602002013514611150576040517f08c379a000000000000000000000000000000000000000000000000000000000815260040161114790614a0f565b60405180910390fd5b600f600081548092919061116390614a2f565b9190505550600f5482828151811061117e5761117d614994565b5b602002602001018181525050808061119590614a2f565b9150506110de565b50806040516111ac9190614b07565b60405180910390208460000160208101906111c79190614195565b73ffffffffffffffffffffffffffffffffffffffff167ffcedfad5335528f6891da1a7c502536cc084c4eb50c94825d3d2bb9e61a3bc303460405161120c919061373f565b60405180910390a381601060008573ffffffffffffffffffffffffffffffffffffffff1673ffffffffffffffffffffffffffffffffffffffff16815260200190815260200160002060008282546112639190614645565b925050819055506112e68460000160208101906112809190614195565b828680602001906112919190614576565b80806020026020016040519081016040528093929190818152602001838360200280828437600081840152601f19601f820116905080830192505050505050506040518060200160405280600081525061216d565b601260009054906101000a900473ffffffffffffffffffffffffffffffffffffffff1673ffffffffffffffffffffffffffffffffffffffff166108fc349081150290604051600060405180830381858888f1935050505015801561134e573d6000803e3d6000fd5b50505050600160068190555050565b600d5481565b61136b6118e3565b611373612399565b565b61137d6118e3565b600b60019054906101000a900460ff161515811515036113d2576040517f08c379a00000000000000000000000000000000000000000000000000000000081526004016113c990614b6a565b60405180910390fd5b80600b60016101000a81548160ff02191690831515021790555050565b60608151835114611435576040517f08c379a000000000000000000000000000000000000000000000000000000000815260040161142c90614bfc565b60405180910390fd5b6000835167ffffffffffffffff81111561145257611451613830565b5b6040519080825280602002602001820160405280156114805781602001602082028036833780820191505090505b50905060005b84518110156114fd576114cd8582815181106114a5576114a4614994565b5b60200260200101518583815181106114c0576114bf614994565b5b60200260200101516107f7565b8282815181106114e0576114df614994565b5b602002602001018181525050806114f690614a2f565b9050611486565b508091505092915050565b6000600560149054906101000a900460ff16905090565b600c5481565b61152d6118e3565b61153760006123fc565b565b6115416118e3565b6115496124c2565b565b6000600560009054906101000a900473ffffffffffffffffffffffffffffffffffffffff16905090565b61157d6118e3565b8060099080519060200190611593929190613578565b5050565b600880546115a490614283565b80601f01602080910402602001604051908101604052809291908181526020018280546115d090614283565b801561161d5780601f106115f25761010080835404028352916020019161161d565b820191906000526020600020905b81548152906001019060200180831161160057829003601f168201915b505050505081565b600e5481565b61163d611636611d88565b8383612525565b5050565b6116496118e3565b80600d8190555050565b600b60009054906101000a900460ff1681565b61166e6118e3565b80600e8190555050565b6009805461168590614283565b80601f01602080910402602001604051908101604052809291908181526020018280546116b190614283565b80156116fe5780601f106116d3576101008083540402835291602001916116fe565b820191906000526020600020905b8154815290600101906020018083116116e157829003601f168201915b505050505081565b6000600160008473ffffffffffffffffffffffffffffffffffffffff1673ffffffffffffffffffffffffffffffffffffffff16815260200190815260200160002060008373ffffffffffffffffffffffffffffffffffffffff1673ffffffffffffffffffffffffffffffffffffffff16815260200190815260200160002060009054906101000a900460ff16905092915050565b6117a26118e3565b6001600b60006101000a81548160ff021916908315150217905550565b6117c7611d88565b73ffffffffffffffffffffffffffffffffffffffff168573ffffffffffffffffffffffffffffffffffffffff16148061180d575061180c85611807611d88565b611706565b5b61184c576040517f08c379a00000000000000000000000000000000000000000000000000000000081526004016118439061446f565b60405180910390fd5b6118598585858585612691565b5050505050565b6118686118e3565b600073ffffffffffffffffffffffffffffffffffffffff168173ffffffffffffffffffffffffffffffffffffffff16036118d7576040517f08c379a00000000000000000000000000000000000000000000000000000000081526004016118ce90614c8e565b60405180910390fd5b6118e0816123fc565b50565b6118eb611d88565b73ffffffffffffffffffffffffffffffffffffffff1661190961154b565b73ffffffffffffffffffffffffffffffffffffffff161461195f576040517f08c379a000000000000000000000000000000000000000000000000000000000815260040161195690614cfa565b60405180910390fd5b565b60007f2a55205a000000000000000000000000000000000000000000000000000000007bffffffffffffffffffffffffffffffffffffffffffffffffffffffff1916827bffffffffffffffffffffffffffffffffffffffffffffffffffffffff191614806119d457506119d38261292c565b5b9050919050565b80600290805190602001906119f1929190613578565b5050565b6119fd611d7e565b6bffffffffffffffffffffffff16816bffffffffffffffffffffffff161115611a5b576040517f08c379a0000000000000000000000000000000000000000000000000000000008152600401611a5290614d8c565b60405180910390fd5b600073ffffffffffffffffffffffffffffffffffffffff168273ffffffffffffffffffffffffffffffffffffffff1603611aca576040517f08c379a0000000000000000000000000000000000000000000000000000000008152600401611ac190614df8565b60405180910390fd5b60405180604001604052808373ffffffffffffffffffffffffffffffffffffffff168152602001826bffffffffffffffffffffffff16815250600360008201518160000160006101000a81548173ffffffffffffffffffffffffffffffffffffffff021916908373ffffffffffffffffffffffffffffffffffffffff16021790555060208201518160000160146101000a8154816bffffffffffffffffffffffff02191690836bffffffffffffffffffffffff1602179055509050505050565b606060028054611b9990614283565b80601f0160208091040260200160405190810160405280929190818152602001828054611bc590614283565b8015611c125780601f10611be757610100808354040283529160200191611c12565b820191906000526020600020905b815481529060010190602001808311611bf557829003601f168201915b50505050509050919050565b606060008203611c65576040518060400160405280600181526020017f30000000000000000000000000000000000000000000000000000000000000008152509050611d79565b600082905060005b60008214611c97578080611c8090614a2f565b915050600a82611c9091906143cc565b9150611c6d565b60008167ffffffffffffffff811115611cb357611cb2613830565b5b6040519080825280601f01601f191660200182016040528015611ce55781602001600182028036833780820191505090505b5090505b60008514611d7257600182611cfe9190614e18565b9150600a85611d0d9190614e4c565b6030611d199190614645565b60f81b818381518110611d2f57611d2e614994565b5b60200101907effffffffffffffffffffffffffffffffffffffffffffffffffffffffffffff1916908160001a905350600a85611d6b91906143cc565b9450611ce9565b8093505050505b919050565b6000612710905090565b600033905090565b8151835114611dd4576040517f08c379a0000000000000000000000000000000000000000000000000000000008152600401611dcb90614eef565b60405180910390fd5b600073ffffffffffffffffffffffffffffffffffffffff168473ffffffffffffffffffffffffffffffffffffffff1603611e43576040517f08c379a0000000000000000000000000000000000000000000000000000000008152600401611e3a90614f81565b60405180910390fd5b6000611e4d611d88565b9050611e5d818787878787612a0e565b60005b845181101561200e576000858281518110611e7e57611e7d614994565b5b602002602001015190506000858381518110611e9d57611e9c614994565b5b60200260200101519050600080600084815260200190815260200160002060008b73ffffffffffffffffffffffffffffffffffffffff1673ffffffffffffffffffffffffffffffffffffffff16815260200190815260200160002054905081811015611f3e576040517f08c379a0000000000000000000000000000000000000000000000000000000008152600401611f3590615013565b60405180910390fd5b81810360008085815260200190815260200160002060008c73ffffffffffffffffffffffffffffffffffffffff1673ffffffffffffffffffffffffffffffffffffffff168152602001908152602001600020819055508160008085815260200190815260200160002060008b73ffffffffffffffffffffffffffffffffffffffff1673ffffffffffffffffffffffffffffffffffffffff1681526020019081526020016000206000828254611ff39190614645565b925050819055505050508061200790614a2f565b9050611e60565b508473ffffffffffffffffffffffffffffffffffffffff168673ffffffffffffffffffffffffffffffffffffffff168273ffffffffffffffffffffffffffffffffffffffff167f4a39dc06d4c0dbc64b70af90fd698a233a518aa5d07e595d983b8c0526c8f7fb8787604051612085929190615033565b60405180910390a461209b818787878787612a16565b6120a9818787878787612a1e565b505050505050565b6120b9611508565b156120f9576040517f08c379a00000000000000000000000000000000000000000000000000000000081526004016120f0906150b6565b60405180910390fd5b565b60008061210783612bf5565b90506121658184806060019061211d91906150d6565b8080601f016020809104026020016040519081016040528093929190818152602001838380828437600081840152601f19601f82011690508083019250505050505050612cd1565b915050919050565b600073ffffffffffffffffffffffffffffffffffffffff168473ffffffffffffffffffffffffffffffffffffffff16036121dc576040517f08c379a00000000000000000000000000000000000000000000000000000000081526004016121d3906151ab565b60405180910390fd5b8151835114612220576040517f08c379a000000000000000000000000000000000000000000000000000000000815260040161221790614eef565b60405180910390fd5b600061222a611d88565b905061223b81600087878787612a0e565b60005b84518110156122f45783818151811061225a57612259614994565b5b602002602001015160008087848151811061227857612277614994565b5b6020026020010151815260200190815260200160002060008873ffffffffffffffffffffffffffffffffffffffff1673ffffffffffffffffffffffffffffffffffffffff16815260200190815260200160002060008282546122da9190614645565b9250508190555080806122ec90614a2f565b91505061223e565b508473ffffffffffffffffffffffffffffffffffffffff16600073ffffffffffffffffffffffffffffffffffffffff168273ffffffffffffffffffffffffffffffffffffffff167f4a39dc06d4c0dbc64b70af90fd698a233a518aa5d07e595d983b8c0526c8f7fb878760405161236c929190615033565b60405180910390a461238381600087878787612a16565b61239281600087878787612a1e565b5050505050565b6123a1612cf8565b6000600560146101000a81548160ff0219169083151502179055507f5db9ee0a495bf2e6ff9c91a7834c1ba4fdd244a5e8aa4e537bd38aeae4b073aa6123e5611d88565b6040516123f29190614063565b60405180910390a1565b6000600560009054906101000a900473ffffffffffffffffffffffffffffffffffffffff16905081600560006101000a81548173ffffffffffffffffffffffffffffffffffffffff021916908373ffffffffffffffffffffffffffffffffffffffff1602179055508173ffffffffffffffffffffffffffffffffffffffff168173ffffffffffffffffffffffffffffffffffffffff167f8be0079c531659141344cd1fd0a4f28419497f9722a3daafe3b4186f6b6457e060405160405180910390a35050565b6124ca6120b1565b6001600560146101000a81548160ff0219169083151502179055507f62e78cea01bee320cd4e420270b5ea74000d11b0c9f74754ebdbfc544b05a25861250e611d88565b60405161251b9190614063565b60405180910390a1565b8173ffffffffffffffffffffffffffffffffffffffff168373ffffffffffffffffffffffffffffffffffffffff1603612593576040517f08c379a000000000000000000000000000000000000000000000000000000000815260040161258a9061523d565b60405180910390fd5b80600160008573ffffffffffffffffffffffffffffffffffffffff1673ffffffffffffffffffffffffffffffffffffffff16815260200190815260200160002060008473ffffffffffffffffffffffffffffffffffffffff1673ffffffffffffffffffffffffffffffffffffffff16815260200190815260200160002060006101000a81548160ff0219169083151502179055508173ffffffffffffffffffffffffffffffffffffffff168373ffffffffffffffffffffffffffffffffffffffff167f17307eab39ab6107e8899845ad3d59bd9653f200f220920489ca2b5937696c318360405161268491906137fa565b60405180910390a3505050565b600073ffffffffffffffffffffffffffffffffffffffff168473ffffffffffffffffffffffffffffffffffffffff1603612700576040517f08c379a00000000000000000000000000000000000000000000000000000000081526004016126f790614f81565b60405180910390fd5b600061270a611d88565b9050600061271785612d41565b9050600061272485612d41565b9050612734838989858589612a0e565b600080600088815260200190815260200160002060008a73ffffffffffffffffffffffffffffffffffffffff1673ffffffffffffffffffffffffffffffffffffffff168152602001908152602001600020549050858110156127cb576040517f08c379a00000000000000000000000000000000000000000000000000000000081526004016127c290615013565b60405180910390fd5b85810360008089815260200190815260200160002060008b73ffffffffffffffffffffffffffffffffffffffff1673ffffffffffffffffffffffffffffffffffffffff168152602001908152602001600020819055508560008089815260200190815260200160002060008a73ffffffffffffffffffffffffffffffffffffffff1673ffffffffffffffffffffffffffffffffffffffff16815260200190815260200160002060008282546128809190614645565b925050819055508773ffffffffffffffffffffffffffffffffffffffff168973ffffffffffffffffffffffffffffffffffffffff168573ffffffffffffffffffffffffffffffffffffffff167fc3d58168c5ae7397731d063d5bbf3d657854427343f4c083240f7aacaa2d0f628a8a6040516128fd92919061525d565b60405180910390a4612913848a8a86868a612a16565b612921848a8a8a8a8a612dbb565b505050505050505050565b60007fd9b67a26000000000000000000000000000000000000000000000000000000007bffffffffffffffffffffffffffffffffffffffffffffffffffffffff1916827bffffffffffffffffffffffffffffffffffffffffffffffffffffffff191614806129f757507f0e89341c000000000000000000000000000000000000000000000000000000007bffffffffffffffffffffffffffffffffffffffffffffffffffffffff1916827bffffffffffffffffffffffffffffffffffffffffffffffffffffffff1916145b80612a075750612a0682612f92565b5b9050919050565b505050505050565b505050505050565b612a3d8473ffffffffffffffffffffffffffffffffffffffff16612ffc565b15612bed578373ffffffffffffffffffffffffffffffffffffffff1663bc197c8187878686866040518663ffffffff1660e01b8152600401612a839594939291906152db565b6020604051808303816000875af1925050508015612abf57506040513d601f19601f82011682018060405250810190612abc9190615358565b60015b612b6457612acb615392565b806308c379a003612b275750612adf6153b4565b80612aea5750612b29565b806040517f08c379a0000000000000000000000000000000000000000000000000000000008152600401612b1e9190613ab0565b60405180910390fd5b505b6040517f08c379a0000000000000000000000000000000000000000000000000000000008152600401612b5b906154b6565b60405180910390fd5b63bc197c8160e01b7bffffffffffffffffffffffffffffffffffffffffffffffffffffffff1916817bffffffffffffffffffffffffffffffffffffffffffffffffffffffff191614612beb576040517f08c379a0000000000000000000000000000000000000000000000000000000008152600401612be290615548565b60405180910390fd5b505b505050505050565b6000612cca7f798f2fc7cec67eb8a3e992f2d864cc1f56f87a6e9130d64fe2b2d7693eca2d2b836000016020810190612c2e9190614195565b848060200190612c3e9190614576565b604051602001612c4f9291906155c4565b60405160208183030381529060405280519060200120858060400190612c759190614707565b604051602001612c86929190615644565b60405160208183030381529060405280519060200120604051602001612caf9493929190615676565b6040516020818303038152906040528051906020012061301f565b9050919050565b6000806000612ce08585613039565b91509150612ced816130ba565b819250505092915050565b612d00611508565b612d3f576040517f08c379a0000000000000000000000000000000000000000000000000000000008152600401612d3690615707565b60405180910390fd5b565b60606000600167ffffffffffffffff811115612d6057612d5f613830565b5b604051908082528060200260200182016040528015612d8e5781602001602082028036833780820191505090505b5090508281600081518110612da657612da5614994565b5b60200260200101818152505080915050919050565b612dda8473ffffffffffffffffffffffffffffffffffffffff16612ffc565b15612f8a578373ffffffffffffffffffffffffffffffffffffffff1663f23a6e6187878686866040518663ffffffff1660e01b8152600401612e20959493929190615727565b6020604051808303816000875af1925050508015612e5c57506040513d601f19601f82011682018060405250810190612e599190615358565b60015b612f0157612e68615392565b806308c379a003612ec45750612e7c6153b4565b80612e875750612ec6565b806040517f08c379a0000000000000000000000000000000000000000000000000000000008152600401612ebb9190613ab0565b60405180910390fd5b505b6040517f08c379a0000000000000000000000000000000000000000000000000000000008152600401612ef8906154b6565b60405180910390fd5b63f23a6e6160e01b7bffffffffffffffffffffffffffffffffffffffffffffffffffffffff1916817bffffffffffffffffffffffffffffffffffffffffffffffffffffffff191614612f88576040517f08c379a0000000000000000000000000000000000000000000000000000000008152600401612f7f90615548565b60405180910390fd5b505b505050505050565b60007f01ffc9a7000000000000000000000000000000000000000000000000000000007bffffffffffffffffffffffffffffffffffffffffffffffffffffffff1916827bffffffffffffffffffffffffffffffffffffffffffffffffffffffff1916149050919050565b6000808273ffffffffffffffffffffffffffffffffffffffff163b119050919050565b600061303261302c613286565b836133a0565b9050919050565b600080604183510361307a5760008060006020860151925060408601519150606086015160001a905061306e878285856133d3565b945094505050506130b3565b60408351036130aa57600080602085015191506040850151905061309f8683836134df565b9350935050506130b3565b60006002915091505b9250929050565b600060048111156130ce576130cd615781565b5b8160048111156130e1576130e0615781565b5b031561328357600160048111156130fb576130fa615781565b5b81600481111561310e5761310d615781565b5b0361314e576040517f08c379a0000000000000000000000000000000000000000000000000000000008152600401613145906157fc565b60405180910390fd5b6002600481111561316257613161615781565b5b81600481111561317557613174615781565b5b036131b5576040517f08c379a00000000000000000000000000000000000000000000000000000000081526004016131ac90615868565b60405180910390fd5b600360048111156131c9576131c8615781565b5b8160048111156131dc576131db615781565b5b0361321c576040517f08c379a0000000000000000000000000000000000000000000000000000000008152600401613213906158fa565b60405180910390fd5b60048081111561322f5761322e615781565b5b81600481111561324257613241615781565b5b03613282576040517f08c379a00000000000000000000000000000000000000000000000000000000081526004016132799061598c565b60405180910390fd5b5b50565b60007f000000000000000000000000000000000000000000000000000000000000000073ffffffffffffffffffffffffffffffffffffffff163073ffffffffffffffffffffffffffffffffffffffff1614801561330257507f000000000000000000000000000000000000000000000000000000000000000046145b1561332f577f0000000000000000000000000000000000000000000000000000000000000000905061339d565b61339a7f00000000000000000000000000000000000000000000000000000000000000007f00000000000000000000000000000000000000000000000000000000000000007f000000000000000000000000000000000000000000000000000000000000000061353e565b90505b90565b600082826040516020016133b5929190615a19565b60405160208183030381529060405280519060200120905092915050565b6000807f7fffffffffffffffffffffffffffffff5d576e7357a4501ddfe92f46681b20a08360001c111561340e5760006003915091506134d6565b601b8560ff16141580156134265750601c8560ff1614155b156134385760006004915091506134d6565b60006001878787876040516000815260200160405260405161345d9493929190615a6c565b6020604051602081039080840390855afa15801561347f573d6000803e3d6000fd5b505050602060405103519050600073ffffffffffffffffffffffffffffffffffffffff168173ffffffffffffffffffffffffffffffffffffffff16036134cd576000600192509250506134d6565b80600092509250505b94509492505050565b60008060007f7fffffffffffffffffffffffffffffffffffffffffffffffffffffffffffffff60001b841690506000601b60ff8660001c901c6135229190614645565b9050613530878288856133d3565b935093505050935093915050565b60008383834630604051602001613559959493929190615ab1565b6040516020818303038152906040528051906020012090509392505050565b82805461358490614283565b90600052602060002090601f0160209004810192826135a657600085556135ed565b82601f106135bf57805160ff19168380011785556135ed565b828001600101855582156135ed579182015b828111156135ec5782518255916020019190600101906135d1565b5b5090506135fa91906135fe565b5090565b5b808211156136175760008160009055506001016135ff565b5090565b6000604051905090565b600080fd5b600080fd5b6000819050919050565b6136428161362f565b811461364d57600080fd5b50565b60008135905061365f81613639565b92915050565b60006020828403121561367b5761367a613625565b5b600061368984828501613650565b91505092915050565b600073ffffffffffffffffffffffffffffffffffffffff82169050919050565b60006136bd82613692565b9050919050565b6136cd816136b2565b81146136d857600080fd5b50565b6000813590506136ea816136c4565b92915050565b6000806040838503121561370757613706613625565b5b6000613715858286016136db565b925050602061372685828601613650565b9150509250929050565b6137398161362f565b82525050565b60006020820190506137546000830184613730565b92915050565b60007fffffffff0000000000000000000000000000000000000000000000000000000082169050919050565b61378f8161375a565b811461379a57600080fd5b50565b6000813590506137ac81613786565b92915050565b6000602082840312156137c8576137c7613625565b5b60006137d68482850161379d565b91505092915050565b60008115159050919050565b6137f4816137df565b82525050565b600060208201905061380f60008301846137eb565b92915050565b600080fd5b600080fd5b6000601f19601f8301169050919050565b7f4e487b7100000000000000000000000000000000000000000000000000000000600052604160045260246000fd5b6138688261381f565b810181811067ffffffffffffffff8211171561388757613886613830565b5b80604052505050565b600061389a61361b565b90506138a6828261385f565b919050565b600067ffffffffffffffff8211156138c6576138c5613830565b5b6138cf8261381f565b9050602081019050919050565b82818337600083830152505050565b60006138fe6138f9846138ab565b613890565b90508281526020810184848401111561391a5761391961381a565b5b6139258482856138dc565b509392505050565b600082601f83011261394257613941613815565b5b81356139528482602086016138eb565b91505092915050565b60006020828403121561397157613970613625565b5b600082013567ffffffffffffffff81111561398f5761398e61362a565b5b61399b8482850161392d565b91505092915050565b60006bffffffffffffffffffffffff82169050919050565b6139c5816139a4565b81146139d057600080fd5b50565b6000813590506139e2816139bc565b92915050565b600080604083850312156139ff576139fe613625565b5b6000613a0d858286016136db565b9250506020613a1e858286016139d3565b9150509250929050565b600081519050919050565b600082825260208201905092915050565b60005b83811015613a62578082015181840152602081019050613a47565b83811115613a71576000848401525b50505050565b6000613a8282613a28565b613a8c8185613a33565b9350613a9c818560208601613a44565b613aa58161381f565b840191505092915050565b60006020820190508181036000830152613aca8184613a77565b905092915050565b60008060408385031215613ae957613ae8613625565b5b6000613af785828601613650565b9250506020613b0885828601613650565b9150509250929050565b613b1b816136b2565b82525050565b6000604082019050613b366000830185613b12565b613b436020830184613730565b9392505050565b600067ffffffffffffffff821115613b6557613b64613830565b5b602082029050602081019050919050565b600080fd5b6000613b8e613b8984613b4a565b613890565b90508083825260208201905060208402830185811115613bb157613bb0613b76565b5b835b81811015613bda5780613bc68882613650565b845260208401935050602081019050613bb3565b5050509392505050565b600082601f830112613bf957613bf8613815565b5b8135613c09848260208601613b7b565b91505092915050565b600067ffffffffffffffff821115613c2d57613c2c613830565b5b613c368261381f565b9050602081019050919050565b6000613c56613c5184613c12565b613890565b905082815260208101848484011115613c7257613c7161381a565b5b613c7d8482856138dc565b509392505050565b600082601f830112613c9a57613c99613815565b5b8135613caa848260208601613c43565b91505092915050565b600080600080600060a08688031215613ccf57613cce613625565b5b6000613cdd888289016136db565b9550506020613cee888289016136db565b945050604086013567ffffffffffffffff811115613d0f57613d0e61362a565b5b613d1b88828901613be4565b935050606086013567ffffffffffffffff811115613d3c57613d3b61362a565b5b613d4888828901613be4565b925050608086013567ffffffffffffffff811115613d6957613d6861362a565b5b613d7588828901613c85565b9150509295509295909350565b600080fd5b600060808284031215613d9d57613d9c613d82565b5b81905092915050565b600060208284031215613dbc57613dbb613625565b5b600082013567ffffffffffffffff811115613dda57613dd961362a565b5b613de684828501613d87565b91505092915050565b613df8816137df565b8114613e0357600080fd5b50565b600081359050613e1581613def565b92915050565b600060208284031215613e3157613e30613625565b5b6000613e3f84828501613e06565b91505092915050565b600067ffffffffffffffff821115613e6357613e62613830565b5b602082029050602081019050919050565b6000613e87613e8284613e48565b613890565b90508083825260208201905060208402830185811115613eaa57613ea9613b76565b5b835b81811015613ed35780613ebf88826136db565b845260208401935050602081019050613eac565b5050509392505050565b600082601f830112613ef257613ef1613815565b5b8135613f02848260208601613e74565b91505092915050565b60008060408385031215613f2257613f21613625565b5b600083013567ffffffffffffffff811115613f4057613f3f61362a565b5b613f4c85828601613edd565b925050602083013567ffffffffffffffff811115613f6d57613f6c61362a565b5b613f7985828601613be4565b9150509250929050565b600081519050919050565b600082825260208201905092915050565b6000819050602082019050919050565b613fb88161362f565b82525050565b6000613fca8383613faf565b60208301905092915050565b6000602082019050919050565b6000613fee82613f83565b613ff88185613f8e565b935061400383613f9f565b8060005b8381101561403457815161401b8882613fbe565b975061402683613fd6565b925050600181019050614007565b5085935050505092915050565b6000602082019050818103600083015261405b8184613fe3565b905092915050565b60006020820190506140786000830184613b12565b92915050565b6000806040838503121561409557614094613625565b5b60006140a3858286016136db565b92505060206140b485828601613e06565b9150509250929050565b600080604083850312156140d5576140d4613625565b5b60006140e3858286016136db565b92505060206140f4858286016136db565b9150509250929050565b600080600080600060a0868803121561411a57614119613625565b5b6000614128888289016136db565b9550506020614139888289016136db565b945050604061414a88828901613650565b935050606061415b88828901613650565b925050608086013567ffffffffffffffff81111561417c5761417b61362a565b5b61418888828901613c85565b9150509295509295909350565b6000602082840312156141ab576141aa613625565b5b60006141b9848285016136db565b91505092915050565b7f455243313135353a2061646472657373207a65726f206973206e6f742061207660008201527f616c6964206f776e657200000000000000000000000000000000000000000000602082015250565b600061421e602a83613a33565b9150614229826141c2565b604082019050919050565b6000602082019050818103600083015261424d81614211565b9050919050565b7f4e487b7100000000000000000000000000000000000000000000000000000000600052602260045260246000fd5b6000600282049050600182168061429b57607f821691505b6020821081036142ae576142ad614254565b5b50919050565b600081905092915050565b60006142ca82613a28565b6142d481856142b4565b93506142e4818560208601613a44565b80840191505092915050565b60006142fc82856142bf565b915061430882846142bf565b91508190509392505050565b7f4e487b7100000000000000000000000000000000000000000000000000000000600052601160045260246000fd5b600061434e8261362f565b91506143598361362f565b9250817fffffffffffffffffffffffffffffffffffffffffffffffffffffffffffffffff048311821515161561439257614391614314565b5b828202905092915050565b7f4e487b7100000000000000000000000000000000000000000000000000000000600052601260045260246000fd5b60006143d78261362f565b91506143e28361362f565b9250826143f2576143f161439d565b5b828204905092915050565b7f455243313135353a2063616c6c6572206973206e6f7420746f6b656e206f776e60008201527f6572206e6f7220617070726f7665640000000000000000000000000000000000602082015250565b6000614459602f83613a33565b9150614464826143fd565b604082019050919050565b600060208201905081810360008301526144888161444c565b9050919050565b7f5265656e7472616e637947756172643a207265656e7472616e742063616c6c00600082015250565b60006144c5601f83613a33565b91506144d08261448f565b602082019050919050565b600060208201905081810360008301526144f4816144b8565b9050919050565b7f566572696669636174696f6e204661696c656400000000000000000000000000600082015250565b6000614531601383613a33565b915061453c826144fb565b602082019050919050565b6000602082019050818103600083015261456081614524565b9050919050565b600080fd5b600080fd5b600080fd5b6000808335600160200384360303811261459357614592614567565b5b80840192508235915067ffffffffffffffff8211156145b5576145b461456c565b5b6020830192506020820236038313156145d1576145d0614571565b5b509250929050565b7f496e76616c696420416d6f756e747320496e7075740000000000000000000000600082015250565b600061460f601583613a33565b915061461a826145d9565b602082019050919050565b6000602082019050818103600083015261463e81614602565b9050919050565b60006146508261362f565b915061465b8361362f565b9250827fffffffffffffffffffffffffffffffffffffffffffffffffffffffffffffffff038211156146905761468f614314565b5b828201905092915050565b7f536f6c64204f7574000000000000000000000000000000000000000000000000600082015250565b60006146d1600883613a33565b91506146dc8261469b565b602082019050919050565b60006020820190508181036000830152614700816146c4565b9050919050565b6000808335600160200384360303811261472457614723614567565b5b80840192508235915067ffffffffffffffff8211156147465761474561456c565b5b60208301925060208202360383131561476257614761614571565b5b509250929050565b600082825260208201905092915050565b600080fd5b600061478c838561476a565b93507f07ffffffffffffffffffffffffffffffffffffffffffffffffffffffffffffff8311156147bf576147be61477b565b5b6020830292506147d08385846138dc565b82840190509392505050565b600060408201905081810360008301526147f7818587614780565b90506148066020830184613b12565b949350505050565b60008151905061481d81613def565b92915050565b60006020828403121561483957614838613625565b5b60006148478482850161480e565b91505092915050565b7f4e6f742057686974656c69737465640000000000000000000000000000000000600082015250565b6000614886600f83613a33565b915061489182614850565b602082019050919050565b600060208201905081810360008301526148b581614879565b9050919050565b7f41646472657373206d696e74206c696d69742072656163686564000000000000600082015250565b60006148f2601a83613a33565b91506148fd826148bc565b602082019050919050565b60006020820190508181036000830152614921816148e5565b9050919050565b7f496e73756666696369656e742066756e64730000000000000000000000000000600082015250565b600061495e601283613a33565b915061496982614928565b602082019050919050565b6000602082019050818103600083015261498d81614951565b9050919050565b7f4e487b7100000000000000000000000000000000000000000000000000000000600052603260045260246000fd5b7f496e76616c696420616d6f756e74732061727261790000000000000000000000600082015250565b60006149f9601583613a33565b9150614a04826149c3565b602082019050919050565b60006020820190508181036000830152614a28816149ec565b9050919050565b6000614a3a8261362f565b91507fffffffffffffffffffffffffffffffffffffffffffffffffffffffffffffffff8203614a6c57614a6b614314565b5b600182019050919050565b600081905092915050565b614a8b8161362f565b82525050565b6000614a9d8383614a82565b60208301905092915050565b6000614ab482613f83565b614abe8185614a77565b9350614ac983613f9f565b8060005b83811015614afa578151614ae18882614a91565b9750614aec83613fd6565b925050600181019050614acd565b5085935050505092915050565b6000614b138284614aa9565b915081905092915050565b7f696e70757420657161756c20746f207374617465000000000000000000000000600082015250565b6000614b54601483613a33565b9150614b5f82614b1e565b602082019050919050565b60006020820190508181036000830152614b8381614b47565b9050919050565b7f455243313135353a206163636f756e747320616e6420696473206c656e67746860008201527f206d69736d617463680000000000000000000000000000000000000000000000602082015250565b6000614be6602983613a33565b9150614bf182614b8a565b604082019050919050565b60006020820190508181036000830152614c1581614bd9565b9050919050565b7f4f776e61626c653a206e6577206f776e657220697320746865207a65726f206160008201527f6464726573730000000000000000000000000000000000000000000000000000602082015250565b6000614c78602683613a33565b9150614c8382614c1c565b604082019050919050565b60006020820190508181036000830152614ca781614c6b565b9050919050565b7f4f776e61626c653a2063616c6c6572206973206e6f7420746865206f776e6572600082015250565b6000614ce4602083613a33565b9150614cef82614cae565b602082019050919050565b60006020820190508181036000830152614d1381614cd7565b9050919050565b7f455243323938313a20726f79616c7479206665652077696c6c2065786365656460008201527f2073616c65507269636500000000000000000000000000000000000000000000602082015250565b6000614d76602a83613a33565b9150614d8182614d1a565b604082019050919050565b60006020820190508181036000830152614da581614d69565b9050919050565b7f455243323938313a20696e76616c696420726563656976657200000000000000600082015250565b6000614de2601983613a33565b9150614ded82614dac565b602082019050919050565b60006020820190508181036000830152614e1181614dd5565b9050919050565b6000614e238261362f565b9150614e2e8361362f565b925082821015614e4157614e40614314565b5b828203905092915050565b6000614e578261362f565b9150614e628361362f565b925082614e7257614e7161439d565b5b828206905092915050565b7f455243313135353a2069647320616e6420616d6f756e7473206c656e6774682060008201527f6d69736d61746368000000000000000000000000000000000000000000000000602082015250565b6000614ed9602883613a33565b9150614ee482614e7d565b604082019050919050565b60006020820190508181036000830152614f0881614ecc565b9050919050565b7f455243313135353a207472616e7366657220746f20746865207a65726f20616460008201527f6472657373000000000000000000000000000000000000000000000000000000602082015250565b6000614f6b602583613a33565b9150614f7682614f0f565b604082019050919050565b60006020820190508181036000830152614f9a81614f5e565b9050919050565b7f455243313135353a20696e73756666696369656e742062616c616e636520666f60008201527f72207472616e7366657200000000000000000000000000000000000000000000602082015250565b6000614ffd602a83613a33565b915061500882614fa1565b604082019050919050565b6000602082019050818103600083015261502c81614ff0565b9050919050565b6000604082019050818103600083015261504d8185613fe3565b905081810360208301526150618184613fe3565b90509392505050565b7f5061757361626c653a2070617573656400000000000000000000000000000000600082015250565b60006150a0601083613a33565b91506150ab8261506a565b602082019050919050565b600060208201905081810360008301526150cf81615093565b9050919050565b600080833560016020038436030381126150f3576150f2614567565b5b80840192508235915067ffffffffffffffff8211156151155761511461456c565b5b60208301925060018202360383131561513157615130614571565b5b509250929050565b7f455243313135353a206d696e7420746f20746865207a65726f2061646472657360008201527f7300000000000000000000000000000000000000000000000000000000000000602082015250565b6000615195602183613a33565b91506151a082615139565b604082019050919050565b600060208201905081810360008301526151c481615188565b9050919050565b7f455243313135353a2073657474696e6720617070726f76616c2073746174757360008201527f20666f722073656c660000000000000000000000000000000000000000000000602082015250565b6000615227602983613a33565b9150615232826151cb565b604082019050919050565b600060208201905081810360008301526152568161521a565b9050919050565b60006040820190506152726000830185613730565b61527f6020830184613730565b9392505050565b600081519050919050565b600082825260208201905092915050565b60006152ad82615286565b6152b78185615291565b93506152c7818560208601613a44565b6152d08161381f565b840191505092915050565b600060a0820190506152f06000830188613b12565b6152fd6020830187613b12565b818103604083015261530f8186613fe3565b905081810360608301526153238185613fe3565b9050818103608083015261533781846152a2565b90509695505050505050565b60008151905061535281613786565b92915050565b60006020828403121561536e5761536d613625565b5b600061537c84828501615343565b91505092915050565b60008160e01c9050919050565b600060033d11156153b15760046000803e6153ae600051615385565b90505b90565b600060443d10615441576153c661361b565b60043d036004823e80513d602482011167ffffffffffffffff821117156153ee575050615441565b808201805167ffffffffffffffff81111561540c5750505050615441565b80602083010160043d038501811115615429575050505050615441565b6154388260200185018661385f565b82955050505050505b90565b7f455243313135353a207472616e7366657220746f206e6f6e204552433131353560008201527f526563656976657220696d706c656d656e746572000000000000000000000000602082015250565b60006154a0603483613a33565b91506154ab82615444565b604082019050919050565b600060208201905081810360008301526154cf81615493565b9050919050565b7f455243313135353a204552433131353552656365697665722072656a6563746560008201527f6420746f6b656e73000000000000000000000000000000000000000000000000602082015250565b6000615532602883613a33565b915061553d826154d6565b604082019050919050565b6000602082019050818103600083015261556181615525565b9050919050565b60006155748385614a77565b93507f07ffffffffffffffffffffffffffffffffffffffffffffffffffffffffffffff8311156155a7576155a661477b565b5b6020830292506155b88385846138dc565b82840190509392505050565b60006155d1828486615568565b91508190509392505050565b600081905092915050565b60006155f483856155dd565b93507f07ffffffffffffffffffffffffffffffffffffffffffffffffffffffffffffff8311156156275761562661477b565b5b6020830292506156388385846138dc565b82840190509392505050565b60006156518284866155e8565b91508190509392505050565b6000819050919050565b6156708161565d565b82525050565b600060808201905061568b6000830187615667565b6156986020830186613b12565b6156a56040830185615667565b6156b26060830184615667565b95945050505050565b7f5061757361626c653a206e6f7420706175736564000000000000000000000000600082015250565b60006156f1601483613a33565b91506156fc826156bb565b602082019050919050565b60006020820190508181036000830152615720816156e4565b9050919050565b600060a08201905061573c6000830188613b12565b6157496020830187613b12565b6157566040830186613730565b6157636060830185613730565b818103608083015261577581846152a2565b90509695505050505050565b7f4e487b7100000000000000000000000000000000000000000000000000000000600052602160045260246000fd5b7f45434453413a20696e76616c6964207369676e61747572650000000000000000600082015250565b60006157e6601883613a33565b91506157f1826157b0565b602082019050919050565b60006020820190508181036000830152615815816157d9565b9050919050565b7f45434453413a20696e76616c6964207369676e6174757265206c656e67746800600082015250565b6000615852601f83613a33565b915061585d8261581c565b602082019050919050565b6000602082019050818103600083015261588181615845565b9050919050565b7f45434453413a20696e76616c6964207369676e6174757265202773272076616c60008201527f7565000000000000000000000000000000000000000000000000000000000000602082015250565b60006158e4602283613a33565b91506158ef82615888565b604082019050919050565b60006020820190508181036000830152615913816158d7565b9050919050565b7f45434453413a20696e76616c6964207369676e6174757265202776272076616c60008201527f7565000000000000000000000000000000000000000000000000000000000000602082015250565b6000615976602283613a33565b91506159818261591a565b604082019050919050565b600060208201905081810360008301526159a581615969565b9050919050565b7f1901000000000000000000000000000000000000000000000000000000000000600082015250565b60006159e26002836142b4565b91506159ed826159ac565b600282019050919050565b6000819050919050565b615a13615a0e8261565d565b6159f8565b82525050565b6000615a24826159d5565b9150615a308285615a02565b602082019150615a408284615a02565b6020820191508190509392505050565b600060ff82169050919050565b615a6681615a50565b82525050565b6000608082019050615a816000830187615667565b615a8e6020830186615a5d565b615a9b6040830185615667565b615aa86060830184615667565b95945050505050565b600060a082019050615ac66000830188615667565b615ad36020830187615667565b615ae06040830186615667565b615aed6060830185613730565b615afa6080830184613b12565b969550505050505056fea2646970667358221220c48c4d3b98f4a730677896743e822d6594aa514decf20ea4aa5a869c6ef1014764736f6c634300080d0033697066733a2f2f516d626871716e41787a71417264386e6e41655239627735326457744c683268754b5371654a6732703153725747697066733a2f2f516d5054315a33577441627169425a7762534648466b32554536565268324a585670554b70355245386843383654",
  "immutableReferences": {
    "4202": [
      {
        "length": 32,
        "start": 13065
      }
    ],
    "4204": [
      {
        "length": 32,
        "start": 13024
      }
    ],
    "4206": [
      {
        "length": 32,
        "start": 12938
      }
    ],
    "4208": [
      {
        "length": 32,
        "start": 13141
      }
    ],
    "4210": [
      {
        "length": 32,
        "start": 13174
      }
    ],
    "4212": [
      {
        "length": 32,
        "start": 13108
      }
    ]
  },
  "source": "// SPDX-License-Identifier: MIT\n// Hachi NFT Contracts ERC1155 Contract.\n\npragma solidity ^0.8.11;\n\nimport \"./HACHIWhitelist.sol\";\nimport \"./HACHIWallet.sol\";\nimport \"@openzeppelin/contracts/token/common/ERC2981.sol\";\nimport \"@openzeppelin/contracts/utils/Strings.sol\";\nimport \"@openzeppelin/contracts/token/ERC1155/ERC1155.sol\";\nimport \"@openzeppelin/contracts/access/Ownable.sol\";\nimport \"@openzeppelin/contracts/security/Pausable.sol\";\nimport \"@openzeppelin/contracts/security/ReentrancyGuard.sol\";\nimport \"@openzeppelin/contracts/utils/cryptography/ECDSA.sol\";\nimport \"@openzeppelin/contracts/utils/cryptography/draft-EIP712.sol\";\n\n/**\n * @dev Implementation of the ERC 1155 standard as an NFT contract.\n * See https://github.com/BryantHustles/HachiNFT\n */\ncontract HACHINFT is ERC1155, EIP712, ERC2981, Ownable, Pausable, ReentrancyGuard {\n    //Contract token information.\n    string public name = \"Hachi NFT\";\n    string public symbol = \"HACHI\";\n    string public contractURI = \"ipfs://QmPT1Z3WtAbqiBZwbSFHFk2UE6VRh2JXVpUKp5RE8hC86T\";\n    string private hachiGenericMetaDataURI = \"ipfs://QmbhqqnAxzqArd8nnAeR9bw52dWtLh2huKSqeJg2p1SrWG\";\n    \n    //Domain information for EIP712.\n    string private constant SIGNING_DOMAIN = \"HachiNftSig\";\n    string private constant SIGNATURE_VERSION = \"1\";\n    \n    //Is metadata revealed?\n    bool public metaDataReveal;\n\n    //Is public mint active?\n    bool public publicMint;\n\n    //Mint information.\n    uint public mintPrice = 0.1 ether;\n    uint public addressMintLimit = 3;\n    uint public mintLimit = 8000;\n\n    //Starting token ID.\n    uint private tokenIndex = 0;\n\n    //Mapping addresses to the number of tokens minted.\n    mapping(address => uint256) private numberMinted;\n\n    /**\n    * @dev Ticket struct passed to the mint function in order to mint.\n    * `address` where the tokens will be sent to\n    * `amounts` uint array of 1s. Each 1 indicates 1 nft to be minted\n    * Any value other than 1 will cause a revert. The length of the array\n    * cannot be longer than the address mint limit\n    * `merkleProof` array containing merkle proof used to verify whitelist\n    * `signature` signed typed data signature for the data struct\n    */\n    struct HachiTicket {\n        address to;\n        uint256[]  amounts;\n        bytes32[]  merkleProof;\n        bytes  signature;\n    }\n    //Import the whitelist contract as datatype.\n    HachiWhitelist whtlst;\n\n    //Import the wallet contract as datatype.\n    HachiWallet wllt;\n    \n    /**\n     * @dev Emitted when `to` mints tokens of `id` paying the value `_value`.\n     */\n    event Mint(address indexed to, uint256[] indexed id, uint256 _value);\n\n    /**\n     * @dev NFT contract employing the ERC1155 standard.\n     * See {ERC1155}.\n     * See {EIP712} pulls from contract constants.\n     * See {ERC2981} for setDefaultRoyalty.\n     * See {_pause} for pause.\n     * `_ipfs` is the base uri location where the token metadata is kept.\n     * `_whtlst` is the address of the whitelist contract.\n     * `_wllt` is the address of the address where funds are to be sent.\n     */\n    constructor(\n        string memory _ipfs,\n        HachiWhitelist _whtlst,\n        HachiWallet _wllt\n        )\n        ERC1155(_ipfs)\n        EIP712(SIGNING_DOMAIN, SIGNATURE_VERSION) {\n            whtlst = _whtlst;\n            wllt = _wllt;\n            setDefaultRoyalty(address(_wllt), 300);\n            _pause();\n    }\n\n    /**\n    * @dev transfers any funds sent to the contract to the wallet address.\n    */\n    receive() external payable {\n        payable(wllt).transfer(msg.value);\n    }\n\n    /**\n    * @dev returns the uri of where the metadata is stored.\n    * If metadata is not revealed, it will return the generic uri.\n    * Otherwise, it will return the uri of the requested `_tokenId`\n    * @param _tokenId Token Id for which to return the uri.\n    * @return string, generic metadata uri if metadata is not revealed.\n    * Returns uri of the input token if metadata is revealed.\n    */\n    function uri(uint256 _tokenId) override public view returns (string memory) {\n\n        if (!metaDataReveal) {\n            return hachiGenericMetaDataURI;\n        } else {\n            return(string(abi.encodePacked(super.uri(_tokenId), Strings.toString(_tokenId))));\n        }\n    }\n\n    /**\n    * @dev Updates the generic metadata uri used before metadata is revealed.\n    * @param _uri The uri string to the generic pre-reveal metadata json.\n    * @notice Only the contract owner can call this function.\n    */\n    function setGenericMeta(string memory _uri) public onlyOwner {\n        hachiGenericMetaDataURI = _uri;\n    }\n\n    /**\n    * @dev updates the metadata reveal flag to true, revealing the true.\n    * When the flag is false, the uri function returns the generic uri.\n    * When the flag is true, the token uri is returned.\n    * See {uri}.\n    * @notice Only the contract owner can call this function.\n    */\n    function revealMetaData() public onlyOwner {\n        metaDataReveal = true;\n    }\n\n    /**\n    * @dev Updates the token metadata base uri.\n    * @param _newuri String, base uri where token metadata is stored.\n    * @notice Only the contract owner can call this function.\n    */\n    function setURI(string memory _newuri) public onlyOwner {\n        ERC1155._setURI(_newuri);\n    }\n\n    /**\n    * @dev Updates the contract uri location where the contract info json is stored.\n    * @param _contractURI The new uri path to the contract metadata json.\n    * @notice Only the contract owner can call this function.\n    */\n    function setContractURI(string memory _contractURI) public onlyOwner {\n        contractURI = _contractURI;\n    }\n\n    /**\n    * @dev mint function used to mint new tokens.\n    * Only able to call function when paused is false.\n    * When public mint is false, minter must be on the whitelist and provide a valid merkle proof.\n    * Value sent must be sufficient based on number minted.\n    * Given correct input and correct value sent.\n    * @param _ticket HachiTicket type data input to the function\n    * @notice See {HachiTicket}\n    * Function is non-reentrant\n    * Function is payable\n    */\n    function mintHachi(HachiTicket calldata _ticket) public whenNotPaused nonReentrant payable  {\n        address _signer = verifySigner(_ticket);\n        require(msg.sender == _signer, \"Verification Failed\");\n        uint _length = _ticket.amounts.length;\n        require(_length > 0, \"Invalid Amounts Input\");\n        uint[] memory _tokenId = _ticket.amounts;\n\n        require(tokenIndex + _length <= mintLimit, \"Sold Out\");\n        if(!publicMint) {\n            require(whtlst.verifyWhitelist(_ticket.merkleProof, _signer), \"Not Whitelisted\");\n        }\n        require(numberMinted[_signer] + _length <= addressMintLimit, \"Address mint limit reached\");\n        require(msg.value >= mintPrice*_length, \"Insufficient funds\");\n        for(uint i=0; i<_length; i++){\n            require(_ticket.amounts[i] == 1, \"Invalid amounts array\");\n            tokenIndex ++;\n            _tokenId[i] = tokenIndex;\n        }\n\n        emit Mint(_ticket.to, _tokenId, msg.value);\n        numberMinted[_signer] += _length;\n\n        _mintBatch(_ticket.to, _tokenId, _ticket.amounts, \"\");\n\n        payable(wllt).transfer(msg.value);\n    }\n\n    /**\n    * @dev Helper function used during mint to hash and recover input data\n    * for the purpose of verifying the recovered address as the sender.\n    * See {EIP712}.\n    * @param _ticket HachiTicket type data input to the function. See {HachiTicket}.\n    * @return address, the recovered address from the input hash and signature\n    */\n    function verifySigner(HachiTicket calldata _ticket) internal view returns (address) {\n        bytes32 digest = _hash(_ticket);\n        return ECDSA.recover(digest, _ticket.signature);\n    }\n\n    /**\n    * @dev Helper function used in the verifySigner function. Hashes the ticket data\n    * according to EIP712 and the hash typed data v4 standard.\n    * @param _ticket HachiTicket type data input to the function. See {HachiTicket}.\n    * @return bytes32, the hash of the typed data input.\n    */\n    function _hash(HachiTicket calldata _ticket) internal view returns (bytes32) {\n        return _hashTypedDataV4(keccak256(abi.encode(\n            keccak256(\"HachiTicket(address to,uint256[] amounts,bytes32[] merkleProof)\"),\n            _ticket.to,\n            keccak256(abi.encodePacked(_ticket.amounts)),\n            keccak256(abi.encodePacked(_ticket.merkleProof))\n        )));\n    }\n\n    /**\n    * @dev Updates the default royalty value for all tokens.\n    * @param receiver address which will recieve royalties.\n    * @param feeNumerator royalty to be collected in basis points.\n    * @notice Only the contract owner can call this function.\n    */\n    function setDefaultRoyalty(address receiver, uint96 feeNumerator) public onlyOwner {\n        _setDefaultRoyalty(receiver, feeNumerator);\n    }\n\n    /**\n    * @dev Updates the total minted tokens allowed.\n    * @param _limit uint, new token limit.\n    * @notice Only the contract owner can call this function.\n    */\n    function updateMintLimit(uint _limit) public onlyOwner {\n        mintLimit = _limit;\n    }\n\n    /**\n    * @dev Updates the price required to mint a single token.\n    * @param _price uint, new price to set in wei\n    * @notice Only the contract owner can call this function.\n    */\n    function updateMintPrice(uint _price) public onlyOwner {\n        mintPrice = _price;\n    }\n\n    /**\n    * @dev Updates the number of tokens any single address can mint.\n    * @param _limit uint, new address limit.\n    * @notice Only the contract owner can call this function.\n    */\n    function updateAddressMintLimit(uint _limit) public onlyOwner {\n        addressMintLimit = _limit;\n    }\n\n    /**\n    * @dev Updates the public mint boolean. When true, merkle proofs are not required to mint.\n    * @param _publicMint bool to set variable to.\n    * @notice Only the contract owner can call this function.\n    */\n    function updatePublicMint(bool _publicMint) public onlyOwner {\n        require(_publicMint != publicMint,\"input eqaul to state\");\n        publicMint = _publicMint;\n    }\n\n    /**\n    * @dev Sets the paused variable to true. Functions that use when not paused\n    * will start to revert. Functions that use when paused will start to work.\n    * @notice Only the contract owner can call this function.\n    */\n    function pause() public onlyOwner {\n        _pause();\n    }\n\n    /**\n    * @dev Sets the paused variable to false. Functions that use when not paused\n    * will start to work. Functions that use when paused will start to revert.\n    * @notice Only the contract owner can call this function.\n    */\n    function unpause() public onlyOwner {\n        _unpause();\n    }\n\n    /**\n    @dev used to determine what interfaces are supported.\n    @param interfaceId 4 bytes interface id of the interface to be checked.\n    */\n    function supportsInterface(bytes4 interfaceId)\n        public\n        view\n        override(ERC1155, ERC2981)\n        returns (bool)\n    {\n        return super.supportsInterface(interfaceId);\n    }\n}",
  "sourcePath": "/Users/bryantbackus/Documents/ABackusCryptoDynasty/Projects/HachiNFT/contracts/HACHINFT.sol",
  "compiler": {
    "name": "solc",
    "version": "0.8.13+commit.abaa5c0e.Emscripten.clang"
  },
  "schemaVersion": "3.4.7",
  "updatedAt": "2022-07-26T04:30:07.674Z",
  "devdoc": {
    "details": "Implementation of the ERC 1155 standard as an NFT contract. See https://github.com/BryantHustles/HachiNFT",
    "events": {
      "Mint(address,uint256[],uint256)": {
        "details": "Emitted when `to` mints tokens of `id` paying the value `_value`."
      }
    },
    "kind": "dev",
    "methods": {
      "balanceOf(address,uint256)": {
        "details": "See {IERC1155-balanceOf}. Requirements: - `account` cannot be the zero address."
      },
      "balanceOfBatch(address[],uint256[])": {
        "details": "See {IERC1155-balanceOfBatch}. Requirements: - `accounts` and `ids` must have the same length."
      },
      "constructor": {
        "details": "NFT contract employing the ERC1155 standard. See {ERC1155}. See {EIP712} pulls from contract constants. See {ERC2981} for setDefaultRoyalty. See {_pause} for pause. `_ipfs` is the base uri location where the token metadata is kept. `_whtlst` is the address of the whitelist contract. `_wllt` is the address of the address where funds are to be sent."
      },
      "isApprovedForAll(address,address)": {
        "details": "See {IERC1155-isApprovedForAll}."
      },
      "mintHachi((address,uint256[],bytes32[],bytes))": {
        "details": "mint function used to mint new tokens. Only able to call function when paused is false. When public mint is false, minter must be on the whitelist and provide a valid merkle proof. Value sent must be sufficient based on number minted. Given correct input and correct value sent.",
        "params": {
          "_ticket": "HachiTicket type data input to the function"
        }
      },
      "owner()": {
        "details": "Returns the address of the current owner."
      },
      "pause()": {
        "details": "Sets the paused variable to true. Functions that use when not paused will start to revert. Functions that use when paused will start to work."
      },
      "paused()": {
        "details": "Returns true if the contract is paused, and false otherwise."
      },
      "renounceOwnership()": {
        "details": "Leaves the contract without owner. It will not be possible to call `onlyOwner` functions anymore. Can only be called by the current owner. NOTE: Renouncing ownership will leave the contract without an owner, thereby removing any functionality that is only available to the owner."
      },
      "revealMetaData()": {
        "details": "updates the metadata reveal flag to true, revealing the true. When the flag is false, the uri function returns the generic uri. When the flag is true, the token uri is returned. See {uri}."
      },
      "royaltyInfo(uint256,uint256)": {
        "details": "Returns how much royalty is owed and to whom, based on a sale price that may be denominated in any unit of exchange. The royalty amount is denominated and should be paid in that same unit of exchange."
      },
      "safeBatchTransferFrom(address,address,uint256[],uint256[],bytes)": {
        "details": "See {IERC1155-safeBatchTransferFrom}."
      },
      "safeTransferFrom(address,address,uint256,uint256,bytes)": {
        "details": "See {IERC1155-safeTransferFrom}."
      },
      "setApprovalForAll(address,bool)": {
        "details": "See {IERC1155-setApprovalForAll}."
      },
      "setContractURI(string)": {
        "details": "Updates the contract uri location where the contract info json is stored.",
        "params": {
          "_contractURI": "The new uri path to the contract metadata json."
        }
      },
      "setDefaultRoyalty(address,uint96)": {
        "details": "Updates the default royalty value for all tokens.",
        "params": {
          "feeNumerator": "royalty to be collected in basis points.",
          "receiver": "address which will recieve royalties."
        }
      },
      "setGenericMeta(string)": {
        "details": "Updates the generic metadata uri used before metadata is revealed.",
        "params": {
          "_uri": "The uri string to the generic pre-reveal metadata json."
        }
      },
      "setURI(string)": {
        "details": "Updates the token metadata base uri.",
        "params": {
          "_newuri": "String, base uri where token metadata is stored."
        }
      },
      "supportsInterface(bytes4)": {
        "details": "used to determine what interfaces are supported.",
        "params": {
          "interfaceId": "4 bytes interface id of the interface to be checked."
        }
      },
      "transferOwnership(address)": {
        "details": "Transfers ownership of the contract to a new account (`newOwner`). Can only be called by the current owner."
      },
      "unpause()": {
        "details": "Sets the paused variable to false. Functions that use when not paused will start to work. Functions that use when paused will start to revert."
      },
      "updateAddressMintLimit(uint256)": {
        "details": "Updates the number of tokens any single address can mint.",
        "params": {
          "_limit": "uint, new address limit."
        }
      },
      "updateMintLimit(uint256)": {
        "details": "Updates the total minted tokens allowed.",
        "params": {
          "_limit": "uint, new token limit."
        }
      },
      "updateMintPrice(uint256)": {
        "details": "Updates the price required to mint a single token.",
        "params": {
          "_price": "uint, new price to set in wei"
        }
      },
      "updatePublicMint(bool)": {
        "details": "Updates the public mint boolean. When true, merkle proofs are not required to mint.",
        "params": {
          "_publicMint": "bool to set variable to."
        }
      },
      "uri(uint256)": {
        "details": "returns the uri of where the metadata is stored. If metadata is not revealed, it will return the generic uri. Otherwise, it will return the uri of the requested `_tokenId`",
        "params": {
          "_tokenId": "Token Id for which to return the uri."
        },
        "returns": {
          "_0": "string, generic metadata uri if metadata is not revealed. Returns uri of the input token if metadata is revealed."
        }
      }
    },
    "version": 1
  },
  "userdoc": {
    "kind": "user",
    "methods": {
      "mintHachi((address,uint256[],bytes32[],bytes))": {
        "notice": "See {HachiTicket} Function is non-reentrant Function is payable"
      },
      "pause()": {
        "notice": "Only the contract owner can call this function."
      },
      "revealMetaData()": {
        "notice": "Only the contract owner can call this function."
      },
      "setContractURI(string)": {
        "notice": "Only the contract owner can call this function."
      },
      "setDefaultRoyalty(address,uint96)": {
        "notice": "Only the contract owner can call this function."
      },
      "setGenericMeta(string)": {
        "notice": "Only the contract owner can call this function."
      },
      "setURI(string)": {
        "notice": "Only the contract owner can call this function."
      },
      "unpause()": {
        "notice": "Only the contract owner can call this function."
      },
      "updateAddressMintLimit(uint256)": {
        "notice": "Only the contract owner can call this function."
      },
      "updateMintLimit(uint256)": {
        "notice": "Only the contract owner can call this function."
      },
      "updateMintPrice(uint256)": {
        "notice": "Only the contract owner can call this function."
      },
      "updatePublicMint(bool)": {
        "notice": "Only the contract owner can call this function."
      }
    },
    "version": 1
  }
}