{
  "contractName": "HACHINFT",
  "abi": [
    {
      "inputs": [
        {
          "internalType": "string",
          "name": "_ipfs",
          "type": "string"
        },
        {
          "internalType": "contract HachiWhitelist",
          "name": "_whtlst",
          "type": "address"
        },
        {
          "internalType": "contract HachiWallet",
          "name": "_wllt",
          "type": "address"
        }
      ],
      "stateMutability": "nonpayable",
      "type": "constructor"
    },
    {
      "anonymous": false,
      "inputs": [
        {
          "indexed": true,
          "internalType": "address",
          "name": "account",
          "type": "address"
        },
        {
          "indexed": true,
          "internalType": "address",
          "name": "operator",
          "type": "address"
        },
        {
          "indexed": false,
          "internalType": "bool",
          "name": "approved",
          "type": "bool"
        }
      ],
      "name": "ApprovalForAll",
      "type": "event"
    },
    {
      "anonymous": false,
      "inputs": [
        {
          "indexed": true,
          "internalType": "address",
          "name": "to",
          "type": "address"
        },
        {
          "indexed": true,
          "internalType": "uint256[]",
          "name": "id",
          "type": "uint256[]"
        },
        {
          "indexed": false,
          "internalType": "uint256",
          "name": "_value",
          "type": "uint256"
        }
      ],
      "name": "Mint",
      "type": "event"
    },
    {
      "anonymous": false,
      "inputs": [
        {
          "indexed": true,
          "internalType": "address",
          "name": "previousOwner",
          "type": "address"
        },
        {
          "indexed": true,
          "internalType": "address",
          "name": "newOwner",
          "type": "address"
        }
      ],
      "name": "OwnershipTransferred",
      "type": "event"
    },
    {
      "anonymous": false,
      "inputs": [
        {
          "indexed": false,
          "internalType": "address",
          "name": "account",
          "type": "address"
        }
      ],
      "name": "Paused",
      "type": "event"
    },
    {
      "anonymous": false,
      "inputs": [
        {
          "indexed": true,
          "internalType": "address",
          "name": "operator",
          "type": "address"
        },
        {
          "indexed": true,
          "internalType": "address",
          "name": "from",
          "type": "address"
        },
        {
          "indexed": true,
          "internalType": "address",
          "name": "to",
          "type": "address"
        },
        {
          "indexed": false,
          "internalType": "uint256[]",
          "name": "ids",
          "type": "uint256[]"
        },
        {
          "indexed": false,
          "internalType": "uint256[]",
          "name": "values",
          "type": "uint256[]"
        }
      ],
      "name": "TransferBatch",
      "type": "event"
    },
    {
      "anonymous": false,
      "inputs": [
        {
          "indexed": true,
          "internalType": "address",
          "name": "operator",
          "type": "address"
        },
        {
          "indexed": true,
          "internalType": "address",
          "name": "from",
          "type": "address"
        },
        {
          "indexed": true,
          "internalType": "address",
          "name": "to",
          "type": "address"
        },
        {
          "indexed": false,
          "internalType": "uint256",
          "name": "id",
          "type": "uint256"
        },
        {
          "indexed": false,
          "internalType": "uint256",
          "name": "value",
          "type": "uint256"
        }
      ],
      "name": "TransferSingle",
      "type": "event"
    },
    {
      "anonymous": false,
      "inputs": [
        {
          "indexed": false,
          "internalType": "string",
          "name": "value",
          "type": "string"
        },
        {
          "indexed": true,
          "internalType": "uint256",
          "name": "id",
          "type": "uint256"
        }
      ],
      "name": "URI",
      "type": "event"
    },
    {
      "anonymous": false,
      "inputs": [
        {
          "indexed": false,
          "internalType": "address",
          "name": "account",
          "type": "address"
        }
      ],
      "name": "Unpaused",
      "type": "event"
    },
    {
      "inputs": [],
      "name": "addressMintLimit",
      "outputs": [
        {
          "internalType": "uint256",
          "name": "",
          "type": "uint256"
        }
      ],
      "stateMutability": "view",
      "type": "function",
      "constant": true
    },
    {
      "inputs": [
        {
          "internalType": "address",
          "name": "account",
          "type": "address"
        },
        {
          "internalType": "uint256",
          "name": "id",
          "type": "uint256"
        }
      ],
      "name": "balanceOf",
      "outputs": [
        {
          "internalType": "uint256",
          "name": "",
          "type": "uint256"
        }
      ],
      "stateMutability": "view",
      "type": "function",
      "constant": true
    },
    {
      "inputs": [
        {
          "internalType": "address[]",
          "name": "accounts",
          "type": "address[]"
        },
        {
          "internalType": "uint256[]",
          "name": "ids",
          "type": "uint256[]"
        }
      ],
      "name": "balanceOfBatch",
      "outputs": [
        {
          "internalType": "uint256[]",
          "name": "",
          "type": "uint256[]"
        }
      ],
      "stateMutability": "view",
      "type": "function",
      "constant": true
    },
    {
      "inputs": [],
      "name": "contractURI",
      "outputs": [
        {
          "internalType": "string",
          "name": "",
          "type": "string"
        }
      ],
      "stateMutability": "view",
      "type": "function",
      "constant": true
    },
    {
      "inputs": [
        {
          "internalType": "address",
          "name": "account",
          "type": "address"
        },
        {
          "internalType": "address",
          "name": "operator",
          "type": "address"
        }
      ],
      "name": "isApprovedForAll",
      "outputs": [
        {
          "internalType": "bool",
          "name": "",
          "type": "bool"
        }
      ],
      "stateMutability": "view",
      "type": "function",
      "constant": true
    },
    {
      "inputs": [],
      "name": "metaDataReveal",
      "outputs": [
        {
          "internalType": "bool",
          "name": "",
          "type": "bool"
        }
      ],
      "stateMutability": "view",
      "type": "function",
      "constant": true
    },
    {
      "inputs": [],
      "name": "mintLimit",
      "outputs": [
        {
          "internalType": "uint256",
          "name": "",
          "type": "uint256"
        }
      ],
      "stateMutability": "view",
      "type": "function",
      "constant": true
    },
    {
      "inputs": [],
      "name": "mintPrice",
      "outputs": [
        {
          "internalType": "uint256",
          "name": "",
          "type": "uint256"
        }
      ],
      "stateMutability": "view",
      "type": "function",
      "constant": true
    },
    {
      "inputs": [],
      "name": "owner",
      "outputs": [
        {
          "internalType": "address",
          "name": "",
          "type": "address"
        }
      ],
      "stateMutability": "view",
      "type": "function",
      "constant": true
    },
    {
      "inputs": [],
      "name": "paused",
      "outputs": [
        {
          "internalType": "bool",
          "name": "",
          "type": "bool"
        }
      ],
      "stateMutability": "view",
      "type": "function",
      "constant": true
    },
    {
      "inputs": [],
      "name": "publicMint",
      "outputs": [
        {
          "internalType": "bool",
          "name": "",
          "type": "bool"
        }
      ],
      "stateMutability": "view",
      "type": "function",
      "constant": true
    },
    {
      "inputs": [],
      "name": "renounceOwnership",
      "outputs": [],
      "stateMutability": "nonpayable",
      "type": "function"
    },
    {
      "inputs": [
        {
          "internalType": "uint256",
          "name": "_tokenId",
          "type": "uint256"
        },
        {
          "internalType": "uint256",
          "name": "_salePrice",
          "type": "uint256"
        }
      ],
      "name": "royaltyInfo",
      "outputs": [
        {
          "internalType": "address",
          "name": "",
          "type": "address"
        },
        {
          "internalType": "uint256",
          "name": "",
          "type": "uint256"
        }
      ],
      "stateMutability": "view",
      "type": "function",
      "constant": true
    },
    {
      "inputs": [
        {
          "internalType": "address",
          "name": "from",
          "type": "address"
        },
        {
          "internalType": "address",
          "name": "to",
          "type": "address"
        },
        {
          "internalType": "uint256[]",
          "name": "ids",
          "type": "uint256[]"
        },
        {
          "internalType": "uint256[]",
          "name": "amounts",
          "type": "uint256[]"
        },
        {
          "internalType": "bytes",
          "name": "data",
          "type": "bytes"
        }
      ],
      "name": "safeBatchTransferFrom",
      "outputs": [],
      "stateMutability": "nonpayable",
      "type": "function"
    },
    {
      "inputs": [
        {
          "internalType": "address",
          "name": "from",
          "type": "address"
        },
        {
          "internalType": "address",
          "name": "to",
          "type": "address"
        },
        {
          "internalType": "uint256",
          "name": "id",
          "type": "uint256"
        },
        {
          "internalType": "uint256",
          "name": "amount",
          "type": "uint256"
        },
        {
          "internalType": "bytes",
          "name": "data",
          "type": "bytes"
        }
      ],
      "name": "safeTransferFrom",
      "outputs": [],
      "stateMutability": "nonpayable",
      "type": "function"
    },
    {
      "inputs": [
        {
          "internalType": "address",
          "name": "operator",
          "type": "address"
        },
        {
          "internalType": "bool",
          "name": "approved",
          "type": "bool"
        }
      ],
      "name": "setApprovalForAll",
      "outputs": [],
      "stateMutability": "nonpayable",
      "type": "function"
    },
    {
      "inputs": [
        {
          "internalType": "address",
          "name": "newOwner",
          "type": "address"
        }
      ],
      "name": "transferOwnership",
      "outputs": [],
      "stateMutability": "nonpayable",
      "type": "function"
    },
    {
      "stateMutability": "payable",
      "type": "receive",
      "payable": true
    },
    {
      "inputs": [
        {
          "internalType": "uint256",
          "name": "tokenId",
          "type": "uint256"
        }
      ],
      "name": "uri",
      "outputs": [
        {
          "internalType": "string",
          "name": "",
          "type": "string"
        }
      ],
      "stateMutability": "view",
      "type": "function",
      "constant": true
    },
    {
      "inputs": [
        {
          "internalType": "string",
          "name": "sampleURI",
          "type": "string"
        }
      ],
      "name": "setGenericMeta",
      "outputs": [],
      "stateMutability": "nonpayable",
      "type": "function"
    },
    {
      "inputs": [],
      "name": "revealMetaData",
      "outputs": [],
      "stateMutability": "nonpayable",
      "type": "function"
    },
    {
      "inputs": [
        {
          "internalType": "string",
          "name": "_newuri",
          "type": "string"
        }
      ],
      "name": "setURI",
      "outputs": [],
      "stateMutability": "nonpayable",
      "type": "function"
    },
    {
      "inputs": [
        {
          "components": [
            {
              "internalType": "address",
              "name": "to",
              "type": "address"
            },
            {
              "internalType": "uint256[]",
              "name": "amounts",
              "type": "uint256[]"
            },
            {
              "internalType": "bytes32[]",
              "name": "merkleProof",
              "type": "bytes32[]"
            },
            {
              "internalType": "bytes",
              "name": "signature",
              "type": "bytes"
            }
          ],
          "internalType": "struct HACHINFT.HachiTicket",
          "name": "_ticket",
          "type": "tuple"
        }
      ],
      "name": "mintHachi",
      "outputs": [],
      "stateMutability": "payable",
      "type": "function",
      "payable": true
    },
    {
      "inputs": [
        {
          "internalType": "address",
          "name": "receiver",
          "type": "address"
        },
        {
          "internalType": "uint96",
          "name": "feeNumerator",
          "type": "uint96"
        }
      ],
      "name": "setDefaultRoyalty",
      "outputs": [],
      "stateMutability": "nonpayable",
      "type": "function"
    },
    {
      "inputs": [
        {
          "internalType": "uint256",
          "name": "_limit",
          "type": "uint256"
        }
      ],
      "name": "updateMintLimit",
      "outputs": [],
      "stateMutability": "nonpayable",
      "type": "function"
    },
    {
      "inputs": [
        {
          "internalType": "uint256",
          "name": "_price",
          "type": "uint256"
        }
      ],
      "name": "updateMintPrice",
      "outputs": [],
      "stateMutability": "nonpayable",
      "type": "function"
    },
    {
      "inputs": [
        {
          "internalType": "uint256",
          "name": "_limit",
          "type": "uint256"
        }
      ],
      "name": "updateAddressMintLimit",
      "outputs": [],
      "stateMutability": "nonpayable",
      "type": "function"
    },
    {
      "inputs": [
        {
          "internalType": "bool",
          "name": "_publicMint",
          "type": "bool"
        }
      ],
      "name": "updatePublicMint",
      "outputs": [],
      "stateMutability": "nonpayable",
      "type": "function"
    },
    {
      "inputs": [],
      "name": "pause",
      "outputs": [],
      "stateMutability": "nonpayable",
      "type": "function"
    },
    {
      "inputs": [],
      "name": "unpause",
      "outputs": [],
      "stateMutability": "nonpayable",
      "type": "function"
    },
    {
      "inputs": [
        {
          "internalType": "bytes4",
          "name": "interfaceId",
          "type": "bytes4"
        }
      ],
      "name": "supportsInterface",
      "outputs": [
        {
          "internalType": "bool",
          "name": "",
          "type": "bool"
        }
      ],
      "stateMutability": "view",
      "type": "function",
      "constant": true
    }
  ],
  "bytecode": "0x61014060405260405180608001604052806060815260200162006eb8606091396007908051906020019062000036929190620007f7565b506040518060a001604052806063815260200162006e55606391396009908051906020019062000068929190620007f7565b5067016345785d8a0000600b556003600c55611f40600d556000600e553480156200009257600080fd5b5060405162006f1838038062006f188339818101604052810190620000b8919062000b16565b6040518060400160405280600b81526020017f48616368694e66745369670000000000000000000000000000000000000000008152506040518060400160405280600181526020017f310000000000000000000000000000000000000000000000000000000000000081525060078054620001339062000bc0565b80601f0160208091040260200160405190810160405280929190818152602001828054620001619062000bc0565b8015620001b25780601f106200018657610100808354040283529160200191620001b2565b820191906000526020600020905b8154815290600101906020018083116200019457829003601f168201915b5050505050620001c8816200038660201b60201c565b5060008280519060200120905060008280519060200120905060007f8b73c3c69bb8fe3d512ecc4cf759cc79239f7b179b0ffacaa9a75d522b39400f90508260e081815250508161010081815250504660a0818152505062000232818484620003a260201b60201c565b608081815250503073ffffffffffffffffffffffffffffffffffffffff1660c08173ffffffffffffffffffffffffffffffffffffffff168152505080610120818152505050505050506200029b6200028f620003de60201b60201c565b620003e660201b60201c565b6000600560146101000a81548160ff02191690831515021790555060016006819055508260089080519060200190620002d6929190620007f7565b5081601160006101000a81548173ffffffffffffffffffffffffffffffffffffffff021916908373ffffffffffffffffffffffffffffffffffffffff16021790555080601260006101000a81548173ffffffffffffffffffffffffffffffffffffffff021916908373ffffffffffffffffffffffffffffffffffffffff1602179055506200036d8161012c620004ac60201b60201c565b6200037d6200055160201b60201c565b50505062000eb5565b80600290805190602001906200039e929190620007f7565b5050565b60008383834630604051602001620003bf95949392919062000c3c565b6040516020818303038152906040528051906020012090509392505050565b600033905090565b6000600560009054906101000a900473ffffffffffffffffffffffffffffffffffffffff16905081600560006101000a81548173ffffffffffffffffffffffffffffffffffffffff021916908373ffffffffffffffffffffffffffffffffffffffff1602179055508173ffffffffffffffffffffffffffffffffffffffff168173ffffffffffffffffffffffffffffffffffffffff167f8be0079c531659141344cd1fd0a4f28419497f9722a3daafe3b4186f6b6457e060405160405180910390a35050565b620004bc620003de60201b60201c565b73ffffffffffffffffffffffffffffffffffffffff16620004e26200060960201b60201c565b73ffffffffffffffffffffffffffffffffffffffff16146200053b576040517f08c379a0000000000000000000000000000000000000000000000000000000008152600401620005329062000cfa565b60405180910390fd5b6200054d82826200063360201b60201c565b5050565b62000561620007d660201b60201c565b15620005a4576040517f08c379a00000000000000000000000000000000000000000000000000000000081526004016200059b9062000d6c565b60405180910390fd5b6001600560146101000a81548160ff0219169083151502179055507f62e78cea01bee320cd4e420270b5ea74000d11b0c9f74754ebdbfc544b05a258620005f0620003de60201b60201c565b604051620005ff919062000d8e565b60405180910390a1565b6000600560009054906101000a900473ffffffffffffffffffffffffffffffffffffffff16905090565b62000643620007ed60201b60201c565b6bffffffffffffffffffffffff16816bffffffffffffffffffffffff161115620006a4576040517f08c379a00000000000000000000000000000000000000000000000000000000081526004016200069b9062000e21565b60405180910390fd5b600073ffffffffffffffffffffffffffffffffffffffff168273ffffffffffffffffffffffffffffffffffffffff160362000716576040517f08c379a00000000000000000000000000000000000000000000000000000000081526004016200070d9062000e93565b60405180910390fd5b60405180604001604052808373ffffffffffffffffffffffffffffffffffffffff168152602001826bffffffffffffffffffffffff16815250600360008201518160000160006101000a81548173ffffffffffffffffffffffffffffffffffffffff021916908373ffffffffffffffffffffffffffffffffffffffff16021790555060208201518160000160146101000a8154816bffffffffffffffffffffffff02191690836bffffffffffffffffffffffff1602179055509050505050565b6000600560149054906101000a900460ff16905090565b6000612710905090565b828054620008059062000bc0565b90600052602060002090601f01602090048101928262000829576000855562000875565b82601f106200084457805160ff191683800117855562000875565b8280016001018555821562000875579182015b828111156200087457825182559160200191906001019062000857565b5b50905062000884919062000888565b5090565b5b80821115620008a357600081600090555060010162000889565b5090565b6000604051905090565b600080fd5b600080fd5b600080fd5b600080fd5b6000601f19601f8301169050919050565b7f4e487b7100000000000000000000000000000000000000000000000000000000600052604160045260246000fd5b6200091082620008c5565b810181811067ffffffffffffffff82111715620009325762000931620008d6565b5b80604052505050565b600062000947620008a7565b905062000955828262000905565b919050565b600067ffffffffffffffff821115620009785762000977620008d6565b5b6200098382620008c5565b9050602081019050919050565b60005b83811015620009b057808201518184015260208101905062000993565b83811115620009c0576000848401525b50505050565b6000620009dd620009d7846200095a565b6200093b565b905082815260208101848484011115620009fc57620009fb620008c0565b5b62000a0984828562000990565b509392505050565b600082601f83011262000a295762000a28620008bb565b5b815162000a3b848260208601620009c6565b91505092915050565b600073ffffffffffffffffffffffffffffffffffffffff82169050919050565b600062000a718262000a44565b9050919050565b600062000a858262000a64565b9050919050565b62000a978162000a78565b811462000aa357600080fd5b50565b60008151905062000ab78162000a8c565b92915050565b600062000aca8262000a44565b9050919050565b600062000ade8262000abd565b9050919050565b62000af08162000ad1565b811462000afc57600080fd5b50565b60008151905062000b108162000ae5565b92915050565b60008060006060848603121562000b325762000b31620008b1565b5b600084015167ffffffffffffffff81111562000b535762000b52620008b6565b5b62000b618682870162000a11565b935050602062000b748682870162000aa6565b925050604062000b878682870162000aff565b9150509250925092565b7f4e487b7100000000000000000000000000000000000000000000000000000000600052602260045260246000fd5b6000600282049050600182168062000bd957607f821691505b60208210810362000bef5762000bee62000b91565b5b50919050565b6000819050919050565b62000c0a8162000bf5565b82525050565b6000819050919050565b62000c258162000c10565b82525050565b62000c368162000a64565b82525050565b600060a08201905062000c53600083018862000bff565b62000c62602083018762000bff565b62000c71604083018662000bff565b62000c80606083018562000c1a565b62000c8f608083018462000c2b565b9695505050505050565b600082825260208201905092915050565b7f4f776e61626c653a2063616c6c6572206973206e6f7420746865206f776e6572600082015250565b600062000ce260208362000c99565b915062000cef8262000caa565b602082019050919050565b6000602082019050818103600083015262000d158162000cd3565b9050919050565b7f5061757361626c653a2070617573656400000000000000000000000000000000600082015250565b600062000d5460108362000c99565b915062000d618262000d1c565b602082019050919050565b6000602082019050818103600083015262000d878162000d45565b9050919050565b600060208201905062000da5600083018462000c2b565b92915050565b7f455243323938313a20726f79616c7479206665652077696c6c2065786365656460008201527f2073616c65507269636500000000000000000000000000000000000000000000602082015250565b600062000e09602a8362000c99565b915062000e168262000dab565b604082019050919050565b6000602082019050818103600083015262000e3c8162000dfa565b9050919050565b7f455243323938313a20696e76616c696420726563656976657200000000000000600082015250565b600062000e7b60198362000c99565b915062000e888262000e43565b602082019050919050565b6000602082019050818103600083015262000eae8162000e6c565b9050919050565b60805160a05160c05160e0516101005161012051615f5062000f0560003960006135cd0152600061360f015260006135ee0152600061352301526000613579015260006135a20152615f506000f3fe6080604052600436106101cf5760003560e01c80635c975abb116100f7578063a700f51311610095578063e985e9c511610064578063e985e9c51461069f578063e9d1fd14146106dc578063f242432a146106f3578063f2fde38b1461071c5761023e565b8063a700f513146105f7578063bf9b90b214610620578063e01d55c51461064b578063e8a3d485146106745761023e565b80638456cb59116100d15780638456cb59146105615780638da5cb5b14610578578063996517cf146105a3578063a22cb465146105ce5761023e565b80635c975abb146104f45780636817c76c1461051f578063715018a61461054a5761023e565b806326092b831161016f57806338b91e541161013e57806338b91e541461044c5780633f4ba83a146104775780634033de3f1461048e5780634e1273f4146104b75761023e565b806326092b831461039e5780632a55205a146103c95780632eb2c2d61461040757806338b41a48146104305761023e565b806302fe5305116101ab57806302fe5305146102e657806304634d8d1461030f5780630e89341c14610338578063210df791146103755761023e565b8062728e4614610243578062fdd58e1461026c57806301ffc9a7146102a95761023e565b3661023e57601260009054906101000a900473ffffffffffffffffffffffffffffffffffffffff1673ffffffffffffffffffffffffffffffffffffffff166108fc349081150290604051600060405180830381858888f1935050505015801561023c573d6000803e3d6000fd5b005b600080fd5b34801561024f57600080fd5b5061026a600480360381019061026591906138fe565b610745565b005b34801561027857600080fd5b50610293600480360381019061028e9190613989565b6107cb565b6040516102a091906139d8565b60405180910390f35b3480156102b557600080fd5b506102d060048036038101906102cb9190613a4b565b610893565b6040516102dd9190613a93565b60405180910390f35b3480156102f257600080fd5b5061030d60048036038101906103089190613bf4565b6108a5565b005b34801561031b57600080fd5b5061033660048036038101906103319190613c81565b61093b565b005b34801561034457600080fd5b5061035f600480360381019061035a91906138fe565b6109c5565b60405161036c9190613d49565b60405180910390f35b34801561038157600080fd5b5061039c60048036038101906103979190613bf4565b610aa0565b005b3480156103aa57600080fd5b506103b3610b36565b6040516103c09190613a93565b60405180910390f35b3480156103d557600080fd5b506103f060048036038101906103eb9190613d6b565b610b49565b6040516103fe929190613dba565b60405180910390f35b34801561041357600080fd5b5061042e60048036038101906104299190613f4c565b610d33565b005b61044a6004803603810190610445919061403f565b610dd4565b005b34801561045857600080fd5b50610461611446565b60405161046e91906139d8565b60405180910390f35b34801561048357600080fd5b5061048c61144c565b005b34801561049a57600080fd5b506104b560048036038101906104b091906140b4565b6114d2565b005b3480156104c357600080fd5b506104de60048036038101906104d991906141a4565b6115c0565b6040516104eb91906142da565b60405180910390f35b34801561050057600080fd5b506105096116d9565b6040516105169190613a93565b60405180910390f35b34801561052b57600080fd5b506105346116f0565b60405161054191906139d8565b60405180910390f35b34801561055657600080fd5b5061055f6116f6565b005b34801561056d57600080fd5b5061057661177e565b005b34801561058457600080fd5b5061058d611804565b60405161059a91906142fc565b60405180910390f35b3480156105af57600080fd5b506105b861182e565b6040516105c591906139d8565b60405180910390f35b3480156105da57600080fd5b506105f560048036038101906105f09190614317565b611834565b005b34801561060357600080fd5b5061061e600480360381019061061991906138fe565b61184a565b005b34801561062c57600080fd5b506106356118d0565b6040516106429190613a93565b60405180910390f35b34801561065757600080fd5b50610672600480360381019061066d91906138fe565b6118e3565b005b34801561068057600080fd5b50610689611969565b6040516106969190613d49565b60405180910390f35b3480156106ab57600080fd5b506106c660048036038101906106c19190614357565b6119f7565b6040516106d39190613a93565b60405180910390f35b3480156106e857600080fd5b506106f1611a8b565b005b3480156106ff57600080fd5b5061071a60048036038101906107159190614397565b611b24565b005b34801561072857600080fd5b50610743600480360381019061073e919061442e565b611bc5565b005b61074d611cbc565b73ffffffffffffffffffffffffffffffffffffffff1661076b611804565b73ffffffffffffffffffffffffffffffffffffffff16146107c1576040517f08c379a00000000000000000000000000000000000000000000000000000000081526004016107b8906144a7565b60405180910390fd5b80600b8190555050565b60008073ffffffffffffffffffffffffffffffffffffffff168373ffffffffffffffffffffffffffffffffffffffff160361083b576040517f08c379a000000000000000000000000000000000000000000000000000000000815260040161083290614539565b60405180910390fd5b60008083815260200190815260200160002060008473ffffffffffffffffffffffffffffffffffffffff1673ffffffffffffffffffffffffffffffffffffffff16815260200190815260200160002054905092915050565b600061089e82611cc4565b9050919050565b6108ad611cbc565b73ffffffffffffffffffffffffffffffffffffffff166108cb611804565b73ffffffffffffffffffffffffffffffffffffffff1614610921576040517f08c379a0000000000000000000000000000000000000000000000000000000008152600401610918906144a7565b60405180910390fd5b8060089080519060200190610937929190613811565b5050565b610943611cbc565b73ffffffffffffffffffffffffffffffffffffffff16610961611804565b73ffffffffffffffffffffffffffffffffffffffff16146109b7576040517f08c379a00000000000000000000000000000000000000000000000000000000081526004016109ae906144a7565b60405180910390fd5b6109c18282611d3e565b5050565b6060600a60009054906101000a900460ff16610a6d57600780546109e890614588565b80601f0160208091040260200160405190810160405280929190818152602001828054610a1490614588565b8015610a615780601f10610a3657610100808354040283529160200191610a61565b820191906000526020600020905b815481529060010190602001808311610a4457829003601f168201915b50505050509050610a9b565b6008610a7883611ed3565b604051602001610a899291906146d5565b60405160208183030381529060405290505b919050565b610aa8611cbc565b73ffffffffffffffffffffffffffffffffffffffff16610ac6611804565b73ffffffffffffffffffffffffffffffffffffffff1614610b1c576040517f08c379a0000000000000000000000000000000000000000000000000000000008152600401610b13906144a7565b60405180910390fd5b8060079080519060200190610b32929190613811565b5050565b600a60019054906101000a900460ff1681565b6000806000600460008681526020019081526020016000206040518060400160405290816000820160009054906101000a900473ffffffffffffffffffffffffffffffffffffffff1673ffffffffffffffffffffffffffffffffffffffff1673ffffffffffffffffffffffffffffffffffffffff1681526020016000820160149054906101000a90046bffffffffffffffffffffffff166bffffffffffffffffffffffff166bffffffffffffffffffffffff16815250509050600073ffffffffffffffffffffffffffffffffffffffff16816000015173ffffffffffffffffffffffffffffffffffffffff1603610cde5760036040518060400160405290816000820160009054906101000a900473ffffffffffffffffffffffffffffffffffffffff1673ffffffffffffffffffffffffffffffffffffffff1673ffffffffffffffffffffffffffffffffffffffff1681526020016000820160149054906101000a90046bffffffffffffffffffffffff166bffffffffffffffffffffffff166bffffffffffffffffffffffff168152505090505b6000610ce8612033565b6bffffffffffffffffffffffff1682602001516bffffffffffffffffffffffff1686610d149190614733565b610d1e91906147bc565b90508160000151819350935050509250929050565b610d3b611cbc565b73ffffffffffffffffffffffffffffffffffffffff168573ffffffffffffffffffffffffffffffffffffffff161480610d815750610d8085610d7b611cbc565b6119f7565b5b610dc0576040517f08c379a0000000000000000000000000000000000000000000000000000000008152600401610db79061485f565b60405180910390fd5b610dcd858585858561203d565b5050505050565b610ddc6116d9565b15610e1c576040517f08c379a0000000000000000000000000000000000000000000000000000000008152600401610e13906148cb565b60405180910390fd5b600260065403610e61576040517f08c379a0000000000000000000000000000000000000000000000000000000008152600401610e5890614937565b60405180910390fd5b60026006819055506000610e748261235e565b90508073ffffffffffffffffffffffffffffffffffffffff163373ffffffffffffffffffffffffffffffffffffffff1614610ee4576040517f08c379a0000000000000000000000000000000000000000000000000000000008152600401610edb906149a3565b60405180910390fd5b6000828060200190610ef691906149d2565b9050905060008111610f3d576040517f08c379a0000000000000000000000000000000000000000000000000000000008152600401610f3490614a81565b60405180910390fd5b6000838060200190610f4f91906149d2565b80806020026020016040519081016040528093929190818152602001838360200280828437600081840152601f19601f820116905080830192505050505050509050600d5482600e54610fa29190614aa1565b1115610fe3576040517f08c379a0000000000000000000000000000000000000000000000000000000008152600401610fda90614b43565b60405180910390fd5b600a60019054906101000a900460ff166110e557601160009054906101000a900473ffffffffffffffffffffffffffffffffffffffff1673ffffffffffffffffffffffffffffffffffffffff166318ff357e8580604001906110459190614b63565b866040518463ffffffff1660e01b815260040161106493929190614c38565b602060405180830381865afa158015611081573d6000803e3d6000fd5b505050506040513d601f19601f820116820180604052508101906110a59190614c7f565b6110e4576040517f08c379a00000000000000000000000000000000000000000000000000000000081526004016110db90614cf8565b60405180910390fd5b5b600c5482601060008673ffffffffffffffffffffffffffffffffffffffff1673ffffffffffffffffffffffffffffffffffffffff168152602001908152602001600020546111339190614aa1565b1115611174576040517f08c379a000000000000000000000000000000000000000000000000000000000815260040161116b90614d64565b60405180910390fd5b81600b546111829190614733565b3410156111c4576040517f08c379a00000000000000000000000000000000000000000000000000000000081526004016111bb90614dd0565b60405180910390fd5b60005b828110156112865760018580602001906111e191906149d2565b838181106111f2576111f1614df0565b5b9050602002013514611239576040517f08c379a000000000000000000000000000000000000000000000000000000000815260040161123090614e6b565b60405180910390fd5b600e600081548092919061124c90614e8b565b9190505550600e5482828151811061126757611266614df0565b5b602002602001018181525050808061127e90614e8b565b9150506111c7565b50806040516112959190614f63565b60405180910390208460000160208101906112b0919061442e565b73ffffffffffffffffffffffffffffffffffffffff167ffcedfad5335528f6891da1a7c502536cc084c4eb50c94825d3d2bb9e61a3bc30346040516112f591906139d8565b60405180910390a381601060008573ffffffffffffffffffffffffffffffffffffffff1673ffffffffffffffffffffffffffffffffffffffff168152602001908152602001600020600082825461134c9190614aa1565b925050819055506113cf846000016020810190611369919061442e565b8286806020019061137a91906149d2565b80806020026020016040519081016040528093929190818152602001838360200280828437600081840152601f19601f82011690508083019250505050505050604051806020016040528060008152506123d0565b601260009054906101000a900473ffffffffffffffffffffffffffffffffffffffff1673ffffffffffffffffffffffffffffffffffffffff166108fc349081150290604051600060405180830381858888f19350505050158015611437573d6000803e3d6000fd5b50505050600160068190555050565b600c5481565b611454611cbc565b73ffffffffffffffffffffffffffffffffffffffff16611472611804565b73ffffffffffffffffffffffffffffffffffffffff16146114c8576040517f08c379a00000000000000000000000000000000000000000000000000000000081526004016114bf906144a7565b60405180910390fd5b6114d06125fc565b565b6114da611cbc565b73ffffffffffffffffffffffffffffffffffffffff166114f8611804565b73ffffffffffffffffffffffffffffffffffffffff161461154e576040517f08c379a0000000000000000000000000000000000000000000000000000000008152600401611545906144a7565b60405180910390fd5b600a60019054906101000a900460ff161515811515036115a3576040517f08c379a000000000000000000000000000000000000000000000000000000000815260040161159a90614fc6565b60405180910390fd5b80600a60016101000a81548160ff02191690831515021790555050565b60608151835114611606576040517f08c379a00000000000000000000000000000000000000000000000000000000081526004016115fd90615058565b60405180910390fd5b6000835167ffffffffffffffff81111561162357611622613ac9565b5b6040519080825280602002602001820160405280156116515781602001602082028036833780820191505090505b50905060005b84518110156116ce5761169e85828151811061167657611675614df0565b5b602002602001015185838151811061169157611690614df0565b5b60200260200101516107cb565b8282815181106116b1576116b0614df0565b5b602002602001018181525050806116c790614e8b565b9050611657565b508091505092915050565b6000600560149054906101000a900460ff16905090565b600b5481565b6116fe611cbc565b73ffffffffffffffffffffffffffffffffffffffff1661171c611804565b73ffffffffffffffffffffffffffffffffffffffff1614611772576040517f08c379a0000000000000000000000000000000000000000000000000000000008152600401611769906144a7565b60405180910390fd5b61177c600061269e565b565b611786611cbc565b73ffffffffffffffffffffffffffffffffffffffff166117a4611804565b73ffffffffffffffffffffffffffffffffffffffff16146117fa576040517f08c379a00000000000000000000000000000000000000000000000000000000081526004016117f1906144a7565b60405180910390fd5b611802612764565b565b6000600560009054906101000a900473ffffffffffffffffffffffffffffffffffffffff16905090565b600d5481565b61184661183f611cbc565b8383612807565b5050565b611852611cbc565b73ffffffffffffffffffffffffffffffffffffffff16611870611804565b73ffffffffffffffffffffffffffffffffffffffff16146118c6576040517f08c379a00000000000000000000000000000000000000000000000000000000081526004016118bd906144a7565b60405180910390fd5b80600c8190555050565b600a60009054906101000a900460ff1681565b6118eb611cbc565b73ffffffffffffffffffffffffffffffffffffffff16611909611804565b73ffffffffffffffffffffffffffffffffffffffff161461195f576040517f08c379a0000000000000000000000000000000000000000000000000000000008152600401611956906144a7565b60405180910390fd5b80600d8190555050565b6009805461197690614588565b80601f01602080910402602001604051908101604052809291908181526020018280546119a290614588565b80156119ef5780601f106119c4576101008083540402835291602001916119ef565b820191906000526020600020905b8154815290600101906020018083116119d257829003601f168201915b505050505081565b6000600160008473ffffffffffffffffffffffffffffffffffffffff1673ffffffffffffffffffffffffffffffffffffffff16815260200190815260200160002060008373ffffffffffffffffffffffffffffffffffffffff1673ffffffffffffffffffffffffffffffffffffffff16815260200190815260200160002060009054906101000a900460ff16905092915050565b611a93611cbc565b73ffffffffffffffffffffffffffffffffffffffff16611ab1611804565b73ffffffffffffffffffffffffffffffffffffffff1614611b07576040517f08c379a0000000000000000000000000000000000000000000000000000000008152600401611afe906144a7565b60405180910390fd5b6001600a60006101000a81548160ff021916908315150217905550565b611b2c611cbc565b73ffffffffffffffffffffffffffffffffffffffff168573ffffffffffffffffffffffffffffffffffffffff161480611b725750611b7185611b6c611cbc565b6119f7565b5b611bb1576040517f08c379a0000000000000000000000000000000000000000000000000000000008152600401611ba8906150ea565b60405180910390fd5b611bbe8585858585612973565b5050505050565b611bcd611cbc565b73ffffffffffffffffffffffffffffffffffffffff16611beb611804565b73ffffffffffffffffffffffffffffffffffffffff1614611c41576040517f08c379a0000000000000000000000000000000000000000000000000000000008152600401611c38906144a7565b60405180910390fd5b600073ffffffffffffffffffffffffffffffffffffffff168173ffffffffffffffffffffffffffffffffffffffff1603611cb0576040517f08c379a0000000000000000000000000000000000000000000000000000000008152600401611ca79061517c565b60405180910390fd5b611cb98161269e565b50565b600033905090565b60007f2a55205a000000000000000000000000000000000000000000000000000000007bffffffffffffffffffffffffffffffffffffffffffffffffffffffff1916827bffffffffffffffffffffffffffffffffffffffffffffffffffffffff19161480611d375750611d3682612c0e565b5b9050919050565b611d46612033565b6bffffffffffffffffffffffff16816bffffffffffffffffffffffff161115611da4576040517f08c379a0000000000000000000000000000000000000000000000000000000008152600401611d9b9061520e565b60405180910390fd5b600073ffffffffffffffffffffffffffffffffffffffff168273ffffffffffffffffffffffffffffffffffffffff1603611e13576040517f08c379a0000000000000000000000000000000000000000000000000000000008152600401611e0a9061527a565b60405180910390fd5b60405180604001604052808373ffffffffffffffffffffffffffffffffffffffff168152602001826bffffffffffffffffffffffff16815250600360008201518160000160006101000a81548173ffffffffffffffffffffffffffffffffffffffff021916908373ffffffffffffffffffffffffffffffffffffffff16021790555060208201518160000160146101000a8154816bffffffffffffffffffffffff02191690836bffffffffffffffffffffffff1602179055509050505050565b606060008203611f1a576040518060400160405280600181526020017f3000000000000000000000000000000000000000000000000000000000000000815250905061202e565b600082905060005b60008214611f4c578080611f3590614e8b565b915050600a82611f4591906147bc565b9150611f22565b60008167ffffffffffffffff811115611f6857611f67613ac9565b5b6040519080825280601f01601f191660200182016040528015611f9a5781602001600182028036833780820191505090505b5090505b6000851461202757600182611fb3919061529a565b9150600a85611fc291906152ce565b6030611fce9190614aa1565b60f81b818381518110611fe457611fe3614df0565b5b60200101907effffffffffffffffffffffffffffffffffffffffffffffffffffffffffffff1916908160001a905350600a8561202091906147bc565b9450611f9e565b8093505050505b919050565b6000612710905090565b8151835114612081576040517f08c379a000000000000000000000000000000000000000000000000000000000815260040161207890615371565b60405180910390fd5b600073ffffffffffffffffffffffffffffffffffffffff168473ffffffffffffffffffffffffffffffffffffffff16036120f0576040517f08c379a00000000000000000000000000000000000000000000000000000000081526004016120e790615403565b60405180910390fd5b60006120fa611cbc565b905061210a818787878787612cf0565b60005b84518110156122bb57600085828151811061212b5761212a614df0565b5b60200260200101519050600085838151811061214a57612149614df0565b5b60200260200101519050600080600084815260200190815260200160002060008b73ffffffffffffffffffffffffffffffffffffffff1673ffffffffffffffffffffffffffffffffffffffff168152602001908152602001600020549050818110156121eb576040517f08c379a00000000000000000000000000000000000000000000000000000000081526004016121e290615495565b60405180910390fd5b81810360008085815260200190815260200160002060008c73ffffffffffffffffffffffffffffffffffffffff1673ffffffffffffffffffffffffffffffffffffffff168152602001908152602001600020819055508160008085815260200190815260200160002060008b73ffffffffffffffffffffffffffffffffffffffff1673ffffffffffffffffffffffffffffffffffffffff16815260200190815260200160002060008282546122a09190614aa1565b92505081905550505050806122b490614e8b565b905061210d565b508473ffffffffffffffffffffffffffffffffffffffff168673ffffffffffffffffffffffffffffffffffffffff168273ffffffffffffffffffffffffffffffffffffffff167f4a39dc06d4c0dbc64b70af90fd698a233a518aa5d07e595d983b8c0526c8f7fb87876040516123329291906154b5565b60405180910390a4612348818787878787612cf8565b612356818787878787612d00565b505050505050565b60008061236a83612ed7565b90506123c88184806060019061238091906154ec565b8080601f016020809104026020016040519081016040528093929190818152602001838380828437600081840152601f19601f82011690508083019250505050505050612fb3565b915050919050565b600073ffffffffffffffffffffffffffffffffffffffff168473ffffffffffffffffffffffffffffffffffffffff160361243f576040517f08c379a0000000000000000000000000000000000000000000000000000000008152600401612436906155c1565b60405180910390fd5b8151835114612483576040517f08c379a000000000000000000000000000000000000000000000000000000000815260040161247a90615371565b60405180910390fd5b600061248d611cbc565b905061249e81600087878787612cf0565b60005b8451811015612557578381815181106124bd576124bc614df0565b5b60200260200101516000808784815181106124db576124da614df0565b5b6020026020010151815260200190815260200160002060008873ffffffffffffffffffffffffffffffffffffffff1673ffffffffffffffffffffffffffffffffffffffff168152602001908152602001600020600082825461253d9190614aa1565b92505081905550808061254f90614e8b565b9150506124a1565b508473ffffffffffffffffffffffffffffffffffffffff16600073ffffffffffffffffffffffffffffffffffffffff168273ffffffffffffffffffffffffffffffffffffffff167f4a39dc06d4c0dbc64b70af90fd698a233a518aa5d07e595d983b8c0526c8f7fb87876040516125cf9291906154b5565b60405180910390a46125e681600087878787612cf8565b6125f581600087878787612d00565b5050505050565b6126046116d9565b612643576040517f08c379a000000000000000000000000000000000000000000000000000000000815260040161263a9061562d565b60405180910390fd5b6000600560146101000a81548160ff0219169083151502179055507f5db9ee0a495bf2e6ff9c91a7834c1ba4fdd244a5e8aa4e537bd38aeae4b073aa612687611cbc565b60405161269491906142fc565b60405180910390a1565b6000600560009054906101000a900473ffffffffffffffffffffffffffffffffffffffff16905081600560006101000a81548173ffffffffffffffffffffffffffffffffffffffff021916908373ffffffffffffffffffffffffffffffffffffffff1602179055508173ffffffffffffffffffffffffffffffffffffffff168173ffffffffffffffffffffffffffffffffffffffff167f8be0079c531659141344cd1fd0a4f28419497f9722a3daafe3b4186f6b6457e060405160405180910390a35050565b61276c6116d9565b156127ac576040517f08c379a00000000000000000000000000000000000000000000000000000000081526004016127a3906148cb565b60405180910390fd5b6001600560146101000a81548160ff0219169083151502179055507f62e78cea01bee320cd4e420270b5ea74000d11b0c9f74754ebdbfc544b05a2586127f0611cbc565b6040516127fd91906142fc565b60405180910390a1565b8173ffffffffffffffffffffffffffffffffffffffff168373ffffffffffffffffffffffffffffffffffffffff1603612875576040517f08c379a000000000000000000000000000000000000000000000000000000000815260040161286c906156bf565b60405180910390fd5b80600160008573ffffffffffffffffffffffffffffffffffffffff1673ffffffffffffffffffffffffffffffffffffffff16815260200190815260200160002060008473ffffffffffffffffffffffffffffffffffffffff1673ffffffffffffffffffffffffffffffffffffffff16815260200190815260200160002060006101000a81548160ff0219169083151502179055508173ffffffffffffffffffffffffffffffffffffffff168373ffffffffffffffffffffffffffffffffffffffff167f17307eab39ab6107e8899845ad3d59bd9653f200f220920489ca2b5937696c31836040516129669190613a93565b60405180910390a3505050565b600073ffffffffffffffffffffffffffffffffffffffff168473ffffffffffffffffffffffffffffffffffffffff16036129e2576040517f08c379a00000000000000000000000000000000000000000000000000000000081526004016129d990615403565b60405180910390fd5b60006129ec611cbc565b905060006129f985612fda565b90506000612a0685612fda565b9050612a16838989858589612cf0565b600080600088815260200190815260200160002060008a73ffffffffffffffffffffffffffffffffffffffff1673ffffffffffffffffffffffffffffffffffffffff16815260200190815260200160002054905085811015612aad576040517f08c379a0000000000000000000000000000000000000000000000000000000008152600401612aa490615495565b60405180910390fd5b85810360008089815260200190815260200160002060008b73ffffffffffffffffffffffffffffffffffffffff1673ffffffffffffffffffffffffffffffffffffffff168152602001908152602001600020819055508560008089815260200190815260200160002060008a73ffffffffffffffffffffffffffffffffffffffff1673ffffffffffffffffffffffffffffffffffffffff1681526020019081526020016000206000828254612b629190614aa1565b925050819055508773ffffffffffffffffffffffffffffffffffffffff168973ffffffffffffffffffffffffffffffffffffffff168573ffffffffffffffffffffffffffffffffffffffff167fc3d58168c5ae7397731d063d5bbf3d657854427343f4c083240f7aacaa2d0f628a8a604051612bdf9291906156df565b60405180910390a4612bf5848a8a86868a612cf8565b612c03848a8a8a8a8a613054565b505050505050505050565b60007fd9b67a26000000000000000000000000000000000000000000000000000000007bffffffffffffffffffffffffffffffffffffffffffffffffffffffff1916827bffffffffffffffffffffffffffffffffffffffffffffffffffffffff19161480612cd957507f0e89341c000000000000000000000000000000000000000000000000000000007bffffffffffffffffffffffffffffffffffffffffffffffffffffffff1916827bffffffffffffffffffffffffffffffffffffffffffffffffffffffff1916145b80612ce95750612ce88261322b565b5b9050919050565b505050505050565b505050505050565b612d1f8473ffffffffffffffffffffffffffffffffffffffff16613295565b15612ecf578373ffffffffffffffffffffffffffffffffffffffff1663bc197c8187878686866040518663ffffffff1660e01b8152600401612d6595949392919061575d565b6020604051808303816000875af1925050508015612da157506040513d601f19601f82011682018060405250810190612d9e91906157da565b60015b612e4657612dad615814565b806308c379a003612e095750612dc1615836565b80612dcc5750612e0b565b806040517f08c379a0000000000000000000000000000000000000000000000000000000008152600401612e009190613d49565b60405180910390fd5b505b6040517f08c379a0000000000000000000000000000000000000000000000000000000008152600401612e3d90615938565b60405180910390fd5b63bc197c8160e01b7bffffffffffffffffffffffffffffffffffffffffffffffffffffffff1916817bffffffffffffffffffffffffffffffffffffffffffffffffffffffff191614612ecd576040517f08c379a0000000000000000000000000000000000000000000000000000000008152600401612ec4906159ca565b60405180910390fd5b505b505050505050565b6000612fac7f798f2fc7cec67eb8a3e992f2d864cc1f56f87a6e9130d64fe2b2d7693eca2d2b836000016020810190612f10919061442e565b848060200190612f2091906149d2565b604051602001612f31929190615a46565b60405160208183030381529060405280519060200120858060400190612f579190614b63565b604051602001612f68929190615ac6565b60405160208183030381529060405280519060200120604051602001612f919493929190615af8565b604051602081830303815290604052805190602001206132b8565b9050919050565b6000806000612fc285856132d2565b91509150612fcf81613353565b819250505092915050565b60606000600167ffffffffffffffff811115612ff957612ff8613ac9565b5b6040519080825280602002602001820160405280156130275781602001602082028036833780820191505090505b509050828160008151811061303f5761303e614df0565b5b60200260200101818152505080915050919050565b6130738473ffffffffffffffffffffffffffffffffffffffff16613295565b15613223578373ffffffffffffffffffffffffffffffffffffffff1663f23a6e6187878686866040518663ffffffff1660e01b81526004016130b9959493929190615b3d565b6020604051808303816000875af19250505080156130f557506040513d601f19601f820116820180604052508101906130f291906157da565b60015b61319a57613101615814565b806308c379a00361315d5750613115615836565b80613120575061315f565b806040517f08c379a00000000000000000000000000000000000000000000000000000000081526004016131549190613d49565b60405180910390fd5b505b6040517f08c379a000000000000000000000000000000000000000000000000000000000815260040161319190615938565b60405180910390fd5b63f23a6e6160e01b7bffffffffffffffffffffffffffffffffffffffffffffffffffffffff1916817bffffffffffffffffffffffffffffffffffffffffffffffffffffffff191614613221576040517f08c379a0000000000000000000000000000000000000000000000000000000008152600401613218906159ca565b60405180910390fd5b505b505050505050565b60007f01ffc9a7000000000000000000000000000000000000000000000000000000007bffffffffffffffffffffffffffffffffffffffffffffffffffffffff1916827bffffffffffffffffffffffffffffffffffffffffffffffffffffffff1916149050919050565b6000808273ffffffffffffffffffffffffffffffffffffffff163b119050919050565b60006132cb6132c561351f565b83613639565b9050919050565b60008060418351036133135760008060006020860151925060408601519150606086015160001a90506133078782858561366c565b9450945050505061334c565b6040835103613343576000806020850151915060408501519050613338868383613778565b93509350505061334c565b60006002915091505b9250929050565b6000600481111561336757613366615b97565b5b81600481111561337a57613379615b97565b5b031561351c576001600481111561339457613393615b97565b5b8160048111156133a7576133a6615b97565b5b036133e7576040517f08c379a00000000000000000000000000000000000000000000000000000000081526004016133de90615c12565b60405180910390fd5b600260048111156133fb576133fa615b97565b5b81600481111561340e5761340d615b97565b5b0361344e576040517f08c379a000000000000000000000000000000000000000000000000000000000815260040161344590615c7e565b60405180910390fd5b6003600481111561346257613461615b97565b5b81600481111561347557613474615b97565b5b036134b5576040517f08c379a00000000000000000000000000000000000000000000000000000000081526004016134ac90615d10565b60405180910390fd5b6004808111156134c8576134c7615b97565b5b8160048111156134db576134da615b97565b5b0361351b576040517f08c379a000000000000000000000000000000000000000000000000000000000815260040161351290615da2565b60405180910390fd5b5b50565b60007f000000000000000000000000000000000000000000000000000000000000000073ffffffffffffffffffffffffffffffffffffffff163073ffffffffffffffffffffffffffffffffffffffff1614801561359b57507f000000000000000000000000000000000000000000000000000000000000000046145b156135c8577f00000000000000000000000000000000000000000000000000000000000000009050613636565b6136337f00000000000000000000000000000000000000000000000000000000000000007f00000000000000000000000000000000000000000000000000000000000000007f00000000000000000000000000000000000000000000000000000000000000006137d7565b90505b90565b6000828260405160200161364e929190615e2f565b60405160208183030381529060405280519060200120905092915050565b6000807f7fffffffffffffffffffffffffffffff5d576e7357a4501ddfe92f46681b20a08360001c11156136a757600060039150915061376f565b601b8560ff16141580156136bf5750601c8560ff1614155b156136d157600060049150915061376f565b6000600187878787604051600081526020016040526040516136f69493929190615e82565b6020604051602081039080840390855afa158015613718573d6000803e3d6000fd5b505050602060405103519050600073ffffffffffffffffffffffffffffffffffffffff168173ffffffffffffffffffffffffffffffffffffffff16036137665760006001925092505061376f565b80600092509250505b94509492505050565b60008060007f7fffffffffffffffffffffffffffffffffffffffffffffffffffffffffffffff60001b841690506000601b60ff8660001c901c6137bb9190614aa1565b90506137c98782888561366c565b935093505050935093915050565b600083838346306040516020016137f2959493929190615ec7565b6040516020818303038152906040528051906020012090509392505050565b82805461381d90614588565b90600052602060002090601f01602090048101928261383f5760008555613886565b82601f1061385857805160ff1916838001178555613886565b82800160010185558215613886579182015b8281111561388557825182559160200191906001019061386a565b5b5090506138939190613897565b5090565b5b808211156138b0576000816000905550600101613898565b5090565b6000604051905090565b600080fd5b600080fd5b6000819050919050565b6138db816138c8565b81146138e657600080fd5b50565b6000813590506138f8816138d2565b92915050565b600060208284031215613914576139136138be565b5b6000613922848285016138e9565b91505092915050565b600073ffffffffffffffffffffffffffffffffffffffff82169050919050565b60006139568261392b565b9050919050565b6139668161394b565b811461397157600080fd5b50565b6000813590506139838161395d565b92915050565b600080604083850312156139a05761399f6138be565b5b60006139ae85828601613974565b92505060206139bf858286016138e9565b9150509250929050565b6139d2816138c8565b82525050565b60006020820190506139ed60008301846139c9565b92915050565b60007fffffffff0000000000000000000000000000000000000000000000000000000082169050919050565b613a28816139f3565b8114613a3357600080fd5b50565b600081359050613a4581613a1f565b92915050565b600060208284031215613a6157613a606138be565b5b6000613a6f84828501613a36565b91505092915050565b60008115159050919050565b613a8d81613a78565b82525050565b6000602082019050613aa86000830184613a84565b92915050565b600080fd5b600080fd5b6000601f19601f8301169050919050565b7f4e487b7100000000000000000000000000000000000000000000000000000000600052604160045260246000fd5b613b0182613ab8565b810181811067ffffffffffffffff82111715613b2057613b1f613ac9565b5b80604052505050565b6000613b336138b4565b9050613b3f8282613af8565b919050565b600067ffffffffffffffff821115613b5f57613b5e613ac9565b5b613b6882613ab8565b9050602081019050919050565b82818337600083830152505050565b6000613b97613b9284613b44565b613b29565b905082815260208101848484011115613bb357613bb2613ab3565b5b613bbe848285613b75565b509392505050565b600082601f830112613bdb57613bda613aae565b5b8135613beb848260208601613b84565b91505092915050565b600060208284031215613c0a57613c096138be565b5b600082013567ffffffffffffffff811115613c2857613c276138c3565b5b613c3484828501613bc6565b91505092915050565b60006bffffffffffffffffffffffff82169050919050565b613c5e81613c3d565b8114613c6957600080fd5b50565b600081359050613c7b81613c55565b92915050565b60008060408385031215613c9857613c976138be565b5b6000613ca685828601613974565b9250506020613cb785828601613c6c565b9150509250929050565b600081519050919050565b600082825260208201905092915050565b60005b83811015613cfb578082015181840152602081019050613ce0565b83811115613d0a576000848401525b50505050565b6000613d1b82613cc1565b613d258185613ccc565b9350613d35818560208601613cdd565b613d3e81613ab8565b840191505092915050565b60006020820190508181036000830152613d638184613d10565b905092915050565b60008060408385031215613d8257613d816138be565b5b6000613d90858286016138e9565b9250506020613da1858286016138e9565b9150509250929050565b613db48161394b565b82525050565b6000604082019050613dcf6000830185613dab565b613ddc60208301846139c9565b9392505050565b600067ffffffffffffffff821115613dfe57613dfd613ac9565b5b602082029050602081019050919050565b600080fd5b6000613e27613e2284613de3565b613b29565b90508083825260208201905060208402830185811115613e4a57613e49613e0f565b5b835b81811015613e735780613e5f88826138e9565b845260208401935050602081019050613e4c565b5050509392505050565b600082601f830112613e9257613e91613aae565b5b8135613ea2848260208601613e14565b91505092915050565b600067ffffffffffffffff821115613ec657613ec5613ac9565b5b613ecf82613ab8565b9050602081019050919050565b6000613eef613eea84613eab565b613b29565b905082815260208101848484011115613f0b57613f0a613ab3565b5b613f16848285613b75565b509392505050565b600082601f830112613f3357613f32613aae565b5b8135613f43848260208601613edc565b91505092915050565b600080600080600060a08688031215613f6857613f676138be565b5b6000613f7688828901613974565b9550506020613f8788828901613974565b945050604086013567ffffffffffffffff811115613fa857613fa76138c3565b5b613fb488828901613e7d565b935050606086013567ffffffffffffffff811115613fd557613fd46138c3565b5b613fe188828901613e7d565b925050608086013567ffffffffffffffff811115614002576140016138c3565b5b61400e88828901613f1e565b9150509295509295909350565b600080fd5b6000608082840312156140365761403561401b565b5b81905092915050565b600060208284031215614055576140546138be565b5b600082013567ffffffffffffffff811115614073576140726138c3565b5b61407f84828501614020565b91505092915050565b61409181613a78565b811461409c57600080fd5b50565b6000813590506140ae81614088565b92915050565b6000602082840312156140ca576140c96138be565b5b60006140d88482850161409f565b91505092915050565b600067ffffffffffffffff8211156140fc576140fb613ac9565b5b602082029050602081019050919050565b600061412061411b846140e1565b613b29565b9050808382526020820190506020840283018581111561414357614142613e0f565b5b835b8181101561416c57806141588882613974565b845260208401935050602081019050614145565b5050509392505050565b600082601f83011261418b5761418a613aae565b5b813561419b84826020860161410d565b91505092915050565b600080604083850312156141bb576141ba6138be565b5b600083013567ffffffffffffffff8111156141d9576141d86138c3565b5b6141e585828601614176565b925050602083013567ffffffffffffffff811115614206576142056138c3565b5b61421285828601613e7d565b9150509250929050565b600081519050919050565b600082825260208201905092915050565b6000819050602082019050919050565b614251816138c8565b82525050565b60006142638383614248565b60208301905092915050565b6000602082019050919050565b60006142878261421c565b6142918185614227565b935061429c83614238565b8060005b838110156142cd5781516142b48882614257565b97506142bf8361426f565b9250506001810190506142a0565b5085935050505092915050565b600060208201905081810360008301526142f4818461427c565b905092915050565b60006020820190506143116000830184613dab565b92915050565b6000806040838503121561432e5761432d6138be565b5b600061433c85828601613974565b925050602061434d8582860161409f565b9150509250929050565b6000806040838503121561436e5761436d6138be565b5b600061437c85828601613974565b925050602061438d85828601613974565b9150509250929050565b600080600080600060a086880312156143b3576143b26138be565b5b60006143c188828901613974565b95505060206143d288828901613974565b94505060406143e3888289016138e9565b93505060606143f4888289016138e9565b925050608086013567ffffffffffffffff811115614415576144146138c3565b5b61442188828901613f1e565b9150509295509295909350565b600060208284031215614444576144436138be565b5b600061445284828501613974565b91505092915050565b7f4f776e61626c653a2063616c6c6572206973206e6f7420746865206f776e6572600082015250565b6000614491602083613ccc565b915061449c8261445b565b602082019050919050565b600060208201905081810360008301526144c081614484565b9050919050565b7f455243313135353a2062616c616e636520717565727920666f7220746865207a60008201527f65726f2061646472657373000000000000000000000000000000000000000000602082015250565b6000614523602b83613ccc565b915061452e826144c7565b604082019050919050565b6000602082019050818103600083015261455281614516565b9050919050565b7f4e487b7100000000000000000000000000000000000000000000000000000000600052602260045260246000fd5b600060028204905060018216806145a057607f821691505b6020821081036145b3576145b2614559565b5b50919050565b600081905092915050565b60008190508160005260206000209050919050565b600081546145e681614588565b6145f081866145b9565b9450600182166000811461460b576001811461461c5761464f565b60ff1983168652818601935061464f565b614625856145c4565b60005b8381101561464757815481890152600182019150602081019050614628565b838801955050505b50505092915050565b600061466382613cc1565b61466d81856145b9565b935061467d818560208601613cdd565b80840191505092915050565b7f2e6a736f6e000000000000000000000000000000000000000000000000000000600082015250565b60006146bf6005836145b9565b91506146ca82614689565b600582019050919050565b60006146e182856145d9565b91506146ed8284614658565b91506146f8826146b2565b91508190509392505050565b7f4e487b7100000000000000000000000000000000000000000000000000000000600052601160045260246000fd5b600061473e826138c8565b9150614749836138c8565b9250817fffffffffffffffffffffffffffffffffffffffffffffffffffffffffffffffff048311821515161561478257614781614704565b5b828202905092915050565b7f4e487b7100000000000000000000000000000000000000000000000000000000600052601260045260246000fd5b60006147c7826138c8565b91506147d2836138c8565b9250826147e2576147e161478d565b5b828204905092915050565b7f455243313135353a207472616e736665722063616c6c6572206973206e6f742060008201527f6f776e6572206e6f7220617070726f7665640000000000000000000000000000602082015250565b6000614849603283613ccc565b9150614854826147ed565b604082019050919050565b600060208201905081810360008301526148788161483c565b9050919050565b7f5061757361626c653a2070617573656400000000000000000000000000000000600082015250565b60006148b5601083613ccc565b91506148c08261487f565b602082019050919050565b600060208201905081810360008301526148e4816148a8565b9050919050565b7f5265656e7472616e637947756172643a207265656e7472616e742063616c6c00600082015250565b6000614921601f83613ccc565b915061492c826148eb565b602082019050919050565b6000602082019050818103600083015261495081614914565b9050919050565b7f566572696669636174696f6e204661696c656400000000000000000000000000600082015250565b600061498d601383613ccc565b915061499882614957565b602082019050919050565b600060208201905081810360008301526149bc81614980565b9050919050565b600080fd5b600080fd5b600080fd5b600080833560016020038436030381126149ef576149ee6149c3565b5b80840192508235915067ffffffffffffffff821115614a1157614a106149c8565b5b602083019250602082023603831315614a2d57614a2c6149cd565b5b509250929050565b7f496e76616c696420416d6f756e747320496e7075740000000000000000000000600082015250565b6000614a6b601583613ccc565b9150614a7682614a35565b602082019050919050565b60006020820190508181036000830152614a9a81614a5e565b9050919050565b6000614aac826138c8565b9150614ab7836138c8565b9250827fffffffffffffffffffffffffffffffffffffffffffffffffffffffffffffffff03821115614aec57614aeb614704565b5b828201905092915050565b7f536f6c64204f7574000000000000000000000000000000000000000000000000600082015250565b6000614b2d600883613ccc565b9150614b3882614af7565b602082019050919050565b60006020820190508181036000830152614b5c81614b20565b9050919050565b60008083356001602003843603038112614b8057614b7f6149c3565b5b80840192508235915067ffffffffffffffff821115614ba257614ba16149c8565b5b602083019250602082023603831315614bbe57614bbd6149cd565b5b509250929050565b600082825260208201905092915050565b600080fd5b6000614be88385614bc6565b93507f07ffffffffffffffffffffffffffffffffffffffffffffffffffffffffffffff831115614c1b57614c1a614bd7565b5b602083029250614c2c838584613b75565b82840190509392505050565b60006040820190508181036000830152614c53818587614bdc565b9050614c626020830184613dab565b949350505050565b600081519050614c7981614088565b92915050565b600060208284031215614c9557614c946138be565b5b6000614ca384828501614c6a565b91505092915050565b7f4e6f742057686974656c69737465640000000000000000000000000000000000600082015250565b6000614ce2600f83613ccc565b9150614ced82614cac565b602082019050919050565b60006020820190508181036000830152614d1181614cd5565b9050919050565b7f41646472657373206d696e74206c696d69742072656163686564000000000000600082015250565b6000614d4e601a83613ccc565b9150614d5982614d18565b602082019050919050565b60006020820190508181036000830152614d7d81614d41565b9050919050565b7f496e73756666696369656e742066756e64730000000000000000000000000000600082015250565b6000614dba601283613ccc565b9150614dc582614d84565b602082019050919050565b60006020820190508181036000830152614de981614dad565b9050919050565b7f4e487b7100000000000000000000000000000000000000000000000000000000600052603260045260246000fd5b7f496e76616c696420616d6f756e74732061727261790000000000000000000000600082015250565b6000614e55601583613ccc565b9150614e6082614e1f565b602082019050919050565b60006020820190508181036000830152614e8481614e48565b9050919050565b6000614e96826138c8565b91507fffffffffffffffffffffffffffffffffffffffffffffffffffffffffffffffff8203614ec857614ec7614704565b5b600182019050919050565b600081905092915050565b614ee7816138c8565b82525050565b6000614ef98383614ede565b60208301905092915050565b6000614f108261421c565b614f1a8185614ed3565b9350614f2583614238565b8060005b83811015614f56578151614f3d8882614eed565b9750614f488361426f565b925050600181019050614f29565b5085935050505092915050565b6000614f6f8284614f05565b915081905092915050565b7f696e70757420657161756c20746f207374617465000000000000000000000000600082015250565b6000614fb0601483613ccc565b9150614fbb82614f7a565b602082019050919050565b60006020820190508181036000830152614fdf81614fa3565b9050919050565b7f455243313135353a206163636f756e747320616e6420696473206c656e67746860008201527f206d69736d617463680000000000000000000000000000000000000000000000602082015250565b6000615042602983613ccc565b915061504d82614fe6565b604082019050919050565b6000602082019050818103600083015261507181615035565b9050919050565b7f455243313135353a2063616c6c6572206973206e6f74206f776e6572206e6f7260008201527f20617070726f7665640000000000000000000000000000000000000000000000602082015250565b60006150d4602983613ccc565b91506150df82615078565b604082019050919050565b60006020820190508181036000830152615103816150c7565b9050919050565b7f4f776e61626c653a206e6577206f776e657220697320746865207a65726f206160008201527f6464726573730000000000000000000000000000000000000000000000000000602082015250565b6000615166602683613ccc565b91506151718261510a565b604082019050919050565b6000602082019050818103600083015261519581615159565b9050919050565b7f455243323938313a20726f79616c7479206665652077696c6c2065786365656460008201527f2073616c65507269636500000000000000000000000000000000000000000000602082015250565b60006151f8602a83613ccc565b91506152038261519c565b604082019050919050565b60006020820190508181036000830152615227816151eb565b9050919050565b7f455243323938313a20696e76616c696420726563656976657200000000000000600082015250565b6000615264601983613ccc565b915061526f8261522e565b602082019050919050565b6000602082019050818103600083015261529381615257565b9050919050565b60006152a5826138c8565b91506152b0836138c8565b9250828210156152c3576152c2614704565b5b828203905092915050565b60006152d9826138c8565b91506152e4836138c8565b9250826152f4576152f361478d565b5b828206905092915050565b7f455243313135353a2069647320616e6420616d6f756e7473206c656e6774682060008201527f6d69736d61746368000000000000000000000000000000000000000000000000602082015250565b600061535b602883613ccc565b9150615366826152ff565b604082019050919050565b6000602082019050818103600083015261538a8161534e565b9050919050565b7f455243313135353a207472616e7366657220746f20746865207a65726f20616460008201527f6472657373000000000000000000000000000000000000000000000000000000602082015250565b60006153ed602583613ccc565b91506153f882615391565b604082019050919050565b6000602082019050818103600083015261541c816153e0565b9050919050565b7f455243313135353a20696e73756666696369656e742062616c616e636520666f60008201527f72207472616e7366657200000000000000000000000000000000000000000000602082015250565b600061547f602a83613ccc565b915061548a82615423565b604082019050919050565b600060208201905081810360008301526154ae81615472565b9050919050565b600060408201905081810360008301526154cf818561427c565b905081810360208301526154e3818461427c565b90509392505050565b60008083356001602003843603038112615509576155086149c3565b5b80840192508235915067ffffffffffffffff82111561552b5761552a6149c8565b5b602083019250600182023603831315615547576155466149cd565b5b509250929050565b7f455243313135353a206d696e7420746f20746865207a65726f2061646472657360008201527f7300000000000000000000000000000000000000000000000000000000000000602082015250565b60006155ab602183613ccc565b91506155b68261554f565b604082019050919050565b600060208201905081810360008301526155da8161559e565b9050919050565b7f5061757361626c653a206e6f7420706175736564000000000000000000000000600082015250565b6000615617601483613ccc565b9150615622826155e1565b602082019050919050565b600060208201905081810360008301526156468161560a565b9050919050565b7f455243313135353a2073657474696e6720617070726f76616c2073746174757360008201527f20666f722073656c660000000000000000000000000000000000000000000000602082015250565b60006156a9602983613ccc565b91506156b48261564d565b604082019050919050565b600060208201905081810360008301526156d88161569c565b9050919050565b60006040820190506156f460008301856139c9565b61570160208301846139c9565b9392505050565b600081519050919050565b600082825260208201905092915050565b600061572f82615708565b6157398185615713565b9350615749818560208601613cdd565b61575281613ab8565b840191505092915050565b600060a0820190506157726000830188613dab565b61577f6020830187613dab565b8181036040830152615791818661427c565b905081810360608301526157a5818561427c565b905081810360808301526157b98184615724565b90509695505050505050565b6000815190506157d481613a1f565b92915050565b6000602082840312156157f0576157ef6138be565b5b60006157fe848285016157c5565b91505092915050565b60008160e01c9050919050565b600060033d11156158335760046000803e615830600051615807565b90505b90565b600060443d106158c3576158486138b4565b60043d036004823e80513d602482011167ffffffffffffffff821117156158705750506158c3565b808201805167ffffffffffffffff81111561588e57505050506158c3565b80602083010160043d0385018111156158ab5750505050506158c3565b6158ba82602001850186613af8565b82955050505050505b90565b7f455243313135353a207472616e7366657220746f206e6f6e204552433131353560008201527f526563656976657220696d706c656d656e746572000000000000000000000000602082015250565b6000615922603483613ccc565b915061592d826158c6565b604082019050919050565b6000602082019050818103600083015261595181615915565b9050919050565b7f455243313135353a204552433131353552656365697665722072656a6563746560008201527f6420746f6b656e73000000000000000000000000000000000000000000000000602082015250565b60006159b4602883613ccc565b91506159bf82615958565b604082019050919050565b600060208201905081810360008301526159e3816159a7565b9050919050565b60006159f68385614ed3565b93507f07ffffffffffffffffffffffffffffffffffffffffffffffffffffffffffffff831115615a2957615a28614bd7565b5b602083029250615a3a838584613b75565b82840190509392505050565b6000615a538284866159ea565b91508190509392505050565b600081905092915050565b6000615a768385615a5f565b93507f07ffffffffffffffffffffffffffffffffffffffffffffffffffffffffffffff831115615aa957615aa8614bd7565b5b602083029250615aba838584613b75565b82840190509392505050565b6000615ad3828486615a6a565b91508190509392505050565b6000819050919050565b615af281615adf565b82525050565b6000608082019050615b0d6000830187615ae9565b615b1a6020830186613dab565b615b276040830185615ae9565b615b346060830184615ae9565b95945050505050565b600060a082019050615b526000830188613dab565b615b5f6020830187613dab565b615b6c60408301866139c9565b615b7960608301856139c9565b8181036080830152615b8b8184615724565b90509695505050505050565b7f4e487b7100000000000000000000000000000000000000000000000000000000600052602160045260246000fd5b7f45434453413a20696e76616c6964207369676e61747572650000000000000000600082015250565b6000615bfc601883613ccc565b9150615c0782615bc6565b602082019050919050565b60006020820190508181036000830152615c2b81615bef565b9050919050565b7f45434453413a20696e76616c6964207369676e6174757265206c656e67746800600082015250565b6000615c68601f83613ccc565b9150615c7382615c32565b602082019050919050565b60006020820190508181036000830152615c9781615c5b565b9050919050565b7f45434453413a20696e76616c6964207369676e6174757265202773272076616c60008201527f7565000000000000000000000000000000000000000000000000000000000000602082015250565b6000615cfa602283613ccc565b9150615d0582615c9e565b604082019050919050565b60006020820190508181036000830152615d2981615ced565b9050919050565b7f45434453413a20696e76616c6964207369676e6174757265202776272076616c60008201527f7565000000000000000000000000000000000000000000000000000000000000602082015250565b6000615d8c602283613ccc565b9150615d9782615d30565b604082019050919050565b60006020820190508181036000830152615dbb81615d7f565b9050919050565b7f1901000000000000000000000000000000000000000000000000000000000000600082015250565b6000615df86002836145b9565b9150615e0382615dc2565b600282019050919050565b6000819050919050565b615e29615e2482615adf565b615e0e565b82525050565b6000615e3a82615deb565b9150615e468285615e18565b602082019150615e568284615e18565b6020820191508190509392505050565b600060ff82169050919050565b615e7c81615e66565b82525050565b6000608082019050615e976000830187615ae9565b615ea46020830186615e73565b615eb16040830185615ae9565b615ebe6060830184615ae9565b95945050505050565b600060a082019050615edc6000830188615ae9565b615ee96020830187615ae9565b615ef66040830186615ae9565b615f0360608301856139c9565b615f106080830184613dab565b969550505050505056fea264697066735822122053c20cc9cbfa5f729fa03d0f58a61e49490f0f38fc1b4881848f253893c618f464736f6c634300080d003368747470733a2f2f697066732e696f2f697066732f516d52646e41735075666b74326e5641434d7564357969376454477648697769396832344e3575583375726669753f66696c656e616d653d4861636869436f6e7472616374546573742e6a736f6e68747470733a2f2f697066732e696f2f697066732f516d546f37384c4366796f5a6552313338333258674531425a58623751734c446166706158537a785553426b46313f66696c656e616d653d47656e7269634d657461446174612e6a736f6e",
  "immutableReferences": {
    "3623": [
      {
        "length": 32,
        "start": 13730
      }
    ],
    "3625": [
      {
        "length": 32,
        "start": 13689
      }
    ],
    "3627": [
      {
        "length": 32,
        "start": 13603
      }
    ],
    "3629": [
      {
        "length": 32,
        "start": 13806
      }
    ],
    "3631": [
      {
        "length": 32,
        "start": 13839
      }
    ],
    "3633": [
      {
        "length": 32,
        "start": 13773
      }
    ]
  },
  "source": "// SPDX-License-Identifier: MIT\n\npragma solidity ^0.8.11;\n\nimport \"./HACHIWhitelist.sol\";\nimport \"./HACHIWallet.sol\";\nimport \"@openzeppelin/contracts/token/common/ERC2981.sol\";\nimport \"@openzeppelin/contracts/utils/Strings.sol\";\nimport \"@openzeppelin/contracts/token/ERC1155/ERC1155.sol\";\nimport \"@openzeppelin/contracts/access/Ownable.sol\";\nimport \"@openzeppelin/contracts/security/Pausable.sol\";\nimport \"@openzeppelin/contracts/security/ReentrancyGuard.sol\";\nimport \"@openzeppelin/contracts/utils/cryptography/ECDSA.sol\";\nimport \"@openzeppelin/contracts/utils/cryptography/draft-EIP712.sol\";\n\n//HachiNFT\ncontract HACHINFT is ERC1155, EIP712, ERC2981, Ownable, Pausable, ReentrancyGuard {\n    string private hachiGenericMetaDataURI = \"https://ipfs.io/ipfs/QmTo78LCfyoZeR13832XgE1BZXb7QsLDafpaXSzxUSBkF1?filename=GenricMetaData.json\";\n    string private hachiIPFSMetaDataURI;\n    string private constant SIGNING_DOMAIN = \"HachiNftSig\";\n    string private constant SIGNATURE_VERSION = \"1\";\n    string public contractURI = \"https://ipfs.io/ipfs/QmRdnAsPufkt2nVACMud5yi7dTGvHiwi9h24N5uX3urfiu?filename=HachiContractTest.json\";\n\n    bool public metaDataReveal;\n    bool public publicMint;\n\n    uint public mintPrice = 0.1 ether;\n    uint public addressMintLimit = 3;\n    uint public mintLimit = 8000;\n    uint private tokenIndex = 0;\n\n    mapping(uint256 => uint256) private control;\n    mapping(address => uint256) private numberMinted;\n\n    struct HachiTicket {\n        address to;\n        uint256[]  amounts;\n        bytes32[]  merkleProof;\n        bytes  signature;\n    }\n\n    HachiWhitelist whtlst;\n    HachiWallet wllt;\n    \n    event Mint(address indexed to, uint256[] indexed id, uint256 _value);\n\n    constructor(\n        string memory _ipfs,\n        HachiWhitelist _whtlst,\n        HachiWallet _wllt\n        )\n        ERC1155(hachiGenericMetaDataURI)\n        EIP712(SIGNING_DOMAIN, SIGNATURE_VERSION) {\n            hachiIPFSMetaDataURI = _ipfs; \n            whtlst = _whtlst;\n            wllt = _wllt;\n            setDefaultRoyalty(address(_wllt), 300);\n            _pause();\n    }\n\n    receive() external payable {\n        payable(wllt).transfer(msg.value);\n    }\n\n    function uri(uint256 tokenId) override public view returns (string memory) {\n\n        if (!metaDataReveal)\n            return hachiGenericMetaDataURI;\n\n        return(string(abi.encodePacked(hachiIPFSMetaDataURI, Strings.toString(tokenId),\".json\")));\n    }\n\n    function setGenericMeta(string memory sampleURI) public onlyOwner {\n        hachiGenericMetaDataURI = sampleURI;\n    }\n\n    function revealMetaData() public onlyOwner {\n        metaDataReveal = true;\n    }\n\n      function setURI(string memory _newuri) public onlyOwner {\n        hachiIPFSMetaDataURI = _newuri;\n    }\n\n    function mintHachi(HachiTicket calldata _ticket) public whenNotPaused nonReentrant payable  {\n        address _signer = verifySigner(_ticket);\n        require(msg.sender == _signer, \"Verification Failed\");\n        uint _length = _ticket.amounts.length;\n        require(_length > 0, \"Invalid Amounts Input\");\n        uint[] memory _tokenId = _ticket.amounts;\n\n        require(tokenIndex + _length <= mintLimit, \"Sold Out\");\n        if(!publicMint) {\n            require(whtlst.verifyWhitelist(_ticket.merkleProof, _signer), \"Not Whitelisted\");\n        }\n        require(numberMinted[_signer] + _length <= addressMintLimit, \"Address mint limit reached\");\n        require(msg.value >= mintPrice*_length, \"Insufficient funds\");\n        for(uint i=0; i<_length; i++){\n            require(_ticket.amounts[i] == 1, \"Invalid amounts array\");\n            tokenIndex ++;\n            _tokenId[i] = tokenIndex;\n        }\n\n        emit Mint(_ticket.to, _tokenId, msg.value);\n        numberMinted[_signer] += _length;\n\n        _mintBatch(_ticket.to, _tokenId, _ticket.amounts, \"\");\n\n        payable(wllt).transfer(msg.value);\n    }\n\n    function verifySigner(HachiTicket calldata _ticket) internal view returns (address) {\n        bytes32 digest = _hash(_ticket);\n        return ECDSA.recover(digest, _ticket.signature);\n    }\n\n    function _hash(HachiTicket calldata _ticket) internal view returns (bytes32) {\n        return _hashTypedDataV4(keccak256(abi.encode(\n            keccak256(\"HachiTicket(address to,uint256[] amounts,bytes32[] merkleProof)\"),\n            _ticket.to,\n            keccak256(abi.encodePacked(_ticket.amounts)),\n            keccak256(abi.encodePacked(_ticket.merkleProof))\n        )));\n    }\n\n    // function deleteDefaultRoyalty() public onlyOwner {\n    //     _deleteDefaultRoyalty();\n    // }\n\n    function setDefaultRoyalty(address receiver, uint96 feeNumerator) public onlyOwner {\n        _setDefaultRoyalty(receiver, feeNumerator);\n    }\n\n    // function setTokenRoyalty(uint256 tokenId, address receiver, uint96 feeNumerator) public onlyOwner {\n    //     _setTokenRoyalty(tokenId, receiver, feeNumerator);\n    // }\n\n    // function resetTokenRoyalty(uint256 tokenId) public onlyOwner {\n    //     _resetTokenRoyalty(tokenId);\n    // }\n\n    function updateMintLimit(uint _limit) public onlyOwner {\n        mintLimit = _limit;\n    }\n\n    function updateMintPrice(uint _price) public onlyOwner {\n        mintPrice = _price;\n    }\n\n    function updateAddressMintLimit(uint _limit) public onlyOwner {\n        addressMintLimit = _limit;\n    }\n\n    function updatePublicMint(bool _publicMint) public onlyOwner {\n        require(_publicMint != publicMint,\"input eqaul to state\");\n        publicMint = _publicMint;\n    }\n\n    function pause() public onlyOwner {\n        _pause();\n    }\n\n    function unpause() public onlyOwner {\n        _unpause();\n    }\n\n    function supportsInterface(bytes4 interfaceId)\n        public\n        view\n        override(ERC1155, ERC2981)\n        returns (bool)\n    {\n        return super.supportsInterface(interfaceId);\n    }\n}",
  "sourcePath": "/Users/bryantbackus/Documents/ABackusCryptoDynasty/Projects/HachiNFT/contracts/HACHINFT.sol",
  "compiler": {
    "name": "solc",
    "version": "0.8.13+commit.abaa5c0e.Emscripten.clang"
  },
  "schemaVersion": "3.4.7",
  "updatedAt": "2022-07-20T00:48:27.533Z",
  "networkType": "ethereum",
  "devdoc": {
    "kind": "dev",
    "methods": {
      "balanceOf(address,uint256)": {
        "details": "See {IERC1155-balanceOf}. Requirements: - `account` cannot be the zero address."
      },
      "balanceOfBatch(address[],uint256[])": {
        "details": "See {IERC1155-balanceOfBatch}. Requirements: - `accounts` and `ids` must have the same length."
      },
      "isApprovedForAll(address,address)": {
        "details": "See {IERC1155-isApprovedForAll}."
      },
      "owner()": {
        "details": "Returns the address of the current owner."
      },
      "paused()": {
        "details": "Returns true if the contract is paused, and false otherwise."
      },
      "renounceOwnership()": {
        "details": "Leaves the contract without owner. It will not be possible to call `onlyOwner` functions anymore. Can only be called by the current owner. NOTE: Renouncing ownership will leave the contract without an owner, thereby removing any functionality that is only available to the owner."
      },
      "royaltyInfo(uint256,uint256)": {
        "details": "Returns how much royalty is owed and to whom, based on a sale price that may be denominated in any unit of exchange. The royalty amount is denominated and should be paid in that same unit of exchange."
      },
      "safeBatchTransferFrom(address,address,uint256[],uint256[],bytes)": {
        "details": "See {IERC1155-safeBatchTransferFrom}."
      },
      "safeTransferFrom(address,address,uint256,uint256,bytes)": {
        "details": "See {IERC1155-safeTransferFrom}."
      },
      "setApprovalForAll(address,bool)": {
        "details": "See {IERC1155-setApprovalForAll}."
      },
      "transferOwnership(address)": {
        "details": "Transfers ownership of the contract to a new account (`newOwner`). Can only be called by the current owner."
      }
    },
    "version": 1
  },
  "userdoc": {
    "kind": "user",
    "methods": {},
    "version": 1
  }
}