{
  "contractName": "HachiWallet",
  "abi": [
    {
      "inputs": [
        {
          "internalType": "address[]",
          "name": "_address",
          "type": "address[]"
        },
        {
          "internalType": "uint256[]",
          "name": "_shares",
          "type": "uint256[]"
        }
      ],
      "stateMutability": "payable",
      "type": "constructor",
      "payable": true
    },
    {
      "anonymous": false,
      "inputs": [
        {
          "indexed": true,
          "internalType": "contract IERC20",
          "name": "token",
          "type": "address"
        },
        {
          "indexed": false,
          "internalType": "address",
          "name": "to",
          "type": "address"
        },
        {
          "indexed": false,
          "internalType": "uint256",
          "name": "amount",
          "type": "uint256"
        }
      ],
      "name": "ERC20PaymentReleased",
      "type": "event"
    },
    {
      "anonymous": false,
      "inputs": [
        {
          "indexed": true,
          "internalType": "address",
          "name": "previousOwner",
          "type": "address"
        },
        {
          "indexed": true,
          "internalType": "address",
          "name": "newOwner",
          "type": "address"
        }
      ],
      "name": "OwnershipTransferred",
      "type": "event"
    },
    {
      "anonymous": false,
      "inputs": [
        {
          "indexed": false,
          "internalType": "address",
          "name": "account",
          "type": "address"
        },
        {
          "indexed": false,
          "internalType": "uint256",
          "name": "shares",
          "type": "uint256"
        }
      ],
      "name": "PayeeAdded",
      "type": "event"
    },
    {
      "anonymous": false,
      "inputs": [
        {
          "indexed": false,
          "internalType": "address",
          "name": "from",
          "type": "address"
        },
        {
          "indexed": false,
          "internalType": "uint256",
          "name": "amount",
          "type": "uint256"
        }
      ],
      "name": "PaymentReceived",
      "type": "event"
    },
    {
      "anonymous": false,
      "inputs": [
        {
          "indexed": false,
          "internalType": "address",
          "name": "to",
          "type": "address"
        },
        {
          "indexed": false,
          "internalType": "uint256",
          "name": "amount",
          "type": "uint256"
        }
      ],
      "name": "PaymentReleased",
      "type": "event"
    },
    {
      "inputs": [],
      "name": "owner",
      "outputs": [
        {
          "internalType": "address",
          "name": "",
          "type": "address"
        }
      ],
      "stateMutability": "view",
      "type": "function",
      "constant": true
    },
    {
      "inputs": [
        {
          "internalType": "uint256",
          "name": "index",
          "type": "uint256"
        }
      ],
      "name": "payee",
      "outputs": [
        {
          "internalType": "address",
          "name": "",
          "type": "address"
        }
      ],
      "stateMutability": "view",
      "type": "function",
      "constant": true
    },
    {
      "inputs": [
        {
          "internalType": "contract IERC20",
          "name": "token",
          "type": "address"
        },
        {
          "internalType": "address",
          "name": "account",
          "type": "address"
        }
      ],
      "name": "released",
      "outputs": [
        {
          "internalType": "uint256",
          "name": "",
          "type": "uint256"
        }
      ],
      "stateMutability": "view",
      "type": "function",
      "constant": true
    },
    {
      "inputs": [
        {
          "internalType": "address",
          "name": "account",
          "type": "address"
        }
      ],
      "name": "released",
      "outputs": [
        {
          "internalType": "uint256",
          "name": "",
          "type": "uint256"
        }
      ],
      "stateMutability": "view",
      "type": "function",
      "constant": true
    },
    {
      "inputs": [],
      "name": "renounceOwnership",
      "outputs": [],
      "stateMutability": "nonpayable",
      "type": "function"
    },
    {
      "inputs": [
        {
          "internalType": "address",
          "name": "account",
          "type": "address"
        }
      ],
      "name": "shares",
      "outputs": [
        {
          "internalType": "uint256",
          "name": "",
          "type": "uint256"
        }
      ],
      "stateMutability": "view",
      "type": "function",
      "constant": true
    },
    {
      "inputs": [
        {
          "internalType": "contract IERC20",
          "name": "token",
          "type": "address"
        }
      ],
      "name": "totalReleased",
      "outputs": [
        {
          "internalType": "uint256",
          "name": "",
          "type": "uint256"
        }
      ],
      "stateMutability": "view",
      "type": "function",
      "constant": true
    },
    {
      "inputs": [],
      "name": "totalReleased",
      "outputs": [
        {
          "internalType": "uint256",
          "name": "",
          "type": "uint256"
        }
      ],
      "stateMutability": "view",
      "type": "function",
      "constant": true
    },
    {
      "inputs": [],
      "name": "totalShares",
      "outputs": [
        {
          "internalType": "uint256",
          "name": "",
          "type": "uint256"
        }
      ],
      "stateMutability": "view",
      "type": "function",
      "constant": true
    },
    {
      "inputs": [
        {
          "internalType": "address",
          "name": "newOwner",
          "type": "address"
        }
      ],
      "name": "transferOwnership",
      "outputs": [],
      "stateMutability": "nonpayable",
      "type": "function"
    },
    {
      "stateMutability": "payable",
      "type": "receive",
      "payable": true
    },
    {
      "inputs": [
        {
          "internalType": "address payable",
          "name": "account",
          "type": "address"
        }
      ],
      "name": "release",
      "outputs": [],
      "stateMutability": "nonpayable",
      "type": "function"
    },
    {
      "inputs": [
        {
          "internalType": "contract IERC20",
          "name": "token",
          "type": "address"
        },
        {
          "internalType": "address",
          "name": "account",
          "type": "address"
        }
      ],
      "name": "release",
      "outputs": [],
      "stateMutability": "nonpayable",
      "type": "function"
    },
    {
      "inputs": [],
      "name": "easyRelease",
      "outputs": [],
      "stateMutability": "nonpayable",
      "type": "function"
    },
    {
      "inputs": [],
      "name": "viewBalanceOwed",
      "outputs": [
        {
          "internalType": "uint256",
          "name": "",
          "type": "uint256"
        }
      ],
      "stateMutability": "view",
      "type": "function",
      "constant": true
    }
  ],
  "bytecode": "0x60806040526040516200295238038062002952833981810160405281019062000029919062000759565b8181805182511462000072576040517f08c379a0000000000000000000000000000000000000000000000000000000008152600401620000699062000865565b60405180910390fd5b6000825111620000b9576040517f08c379a0000000000000000000000000000000000000000000000000000000008152600401620000b090620008d7565b60405180910390fd5b60005b8251811015620001285762000112838281518110620000e057620000df620008f9565b5b6020026020010151838381518110620000fe57620000fd620008f9565b5b60200260200101516200015360201b60201c565b80806200011f9062000957565b915050620000bc565b5050506200014b6200013f6200038c60201b60201c565b6200039460201b60201c565b505062000bf2565b600073ffffffffffffffffffffffffffffffffffffffff168273ffffffffffffffffffffffffffffffffffffffff1603620001c5576040517f08c379a0000000000000000000000000000000000000000000000000000000008152600401620001bc9062000a1a565b60405180910390fd5b600081116200020b576040517f08c379a0000000000000000000000000000000000000000000000000000000008152600401620002029062000a8c565b60405180910390fd5b6000600260008473ffffffffffffffffffffffffffffffffffffffff1673ffffffffffffffffffffffffffffffffffffffff168152602001908152602001600020541462000290576040517f08c379a0000000000000000000000000000000000000000000000000000000008152600401620002879062000b24565b60405180910390fd5b6004829080600181540180825580915050600190039060005260206000200160009091909190916101000a81548173ffffffffffffffffffffffffffffffffffffffff021916908373ffffffffffffffffffffffffffffffffffffffff16021790555080600260008473ffffffffffffffffffffffffffffffffffffffff1673ffffffffffffffffffffffffffffffffffffffff168152602001908152602001600020819055508060005462000347919062000b46565b6000819055507f40c340f65e17194d14ddddb073d3c9f888e3cb52b5aae0c6c7706b4fbc905fac82826040516200038092919062000bc5565b60405180910390a15050565b600033905090565b6000600760009054906101000a900473ffffffffffffffffffffffffffffffffffffffff16905081600760006101000a81548173ffffffffffffffffffffffffffffffffffffffff021916908373ffffffffffffffffffffffffffffffffffffffff1602179055508173ffffffffffffffffffffffffffffffffffffffff168173ffffffffffffffffffffffffffffffffffffffff167f8be0079c531659141344cd1fd0a4f28419497f9722a3daafe3b4186f6b6457e060405160405180910390a35050565b6000604051905090565b600080fd5b600080fd5b600080fd5b6000601f19601f8301169050919050565b7f4e487b7100000000000000000000000000000000000000000000000000000000600052604160045260246000fd5b620004be8262000473565b810181811067ffffffffffffffff82111715620004e057620004df62000484565b5b80604052505050565b6000620004f56200045a565b9050620005038282620004b3565b919050565b600067ffffffffffffffff82111562000526576200052562000484565b5b602082029050602081019050919050565b600080fd5b600073ffffffffffffffffffffffffffffffffffffffff82169050919050565b600062000569826200053c565b9050919050565b6200057b816200055c565b81146200058757600080fd5b50565b6000815190506200059b8162000570565b92915050565b6000620005b8620005b28462000508565b620004e9565b90508083825260208201905060208402830185811115620005de57620005dd62000537565b5b835b818110156200060b5780620005f688826200058a565b845260208401935050602081019050620005e0565b5050509392505050565b600082601f8301126200062d576200062c6200046e565b5b81516200063f848260208601620005a1565b91505092915050565b600067ffffffffffffffff82111562000666576200066562000484565b5b602082029050602081019050919050565b6000819050919050565b6200068c8162000677565b81146200069857600080fd5b50565b600081519050620006ac8162000681565b92915050565b6000620006c9620006c38462000648565b620004e9565b90508083825260208201905060208402830185811115620006ef57620006ee62000537565b5b835b818110156200071c57806200070788826200069b565b845260208401935050602081019050620006f1565b5050509392505050565b600082601f8301126200073e576200073d6200046e565b5b815162000750848260208601620006b2565b91505092915050565b6000806040838503121562000773576200077262000464565b5b600083015167ffffffffffffffff81111562000794576200079362000469565b5b620007a28582860162000615565b925050602083015167ffffffffffffffff811115620007c657620007c562000469565b5b620007d48582860162000726565b9150509250929050565b600082825260208201905092915050565b7f5061796d656e7453706c69747465723a2070617965657320616e64207368617260008201527f6573206c656e677468206d69736d617463680000000000000000000000000000602082015250565b60006200084d603283620007de565b91506200085a82620007ef565b604082019050919050565b6000602082019050818103600083015262000880816200083e565b9050919050565b7f5061796d656e7453706c69747465723a206e6f20706179656573000000000000600082015250565b6000620008bf601a83620007de565b9150620008cc8262000887565b602082019050919050565b60006020820190508181036000830152620008f281620008b0565b9050919050565b7f4e487b7100000000000000000000000000000000000000000000000000000000600052603260045260246000fd5b7f4e487b7100000000000000000000000000000000000000000000000000000000600052601160045260246000fd5b6000620009648262000677565b91507fffffffffffffffffffffffffffffffffffffffffffffffffffffffffffffffff820362000999576200099862000928565b5b600182019050919050565b7f5061796d656e7453706c69747465723a206163636f756e74206973207468652060008201527f7a65726f20616464726573730000000000000000000000000000000000000000602082015250565b600062000a02602c83620007de565b915062000a0f82620009a4565b604082019050919050565b6000602082019050818103600083015262000a3581620009f3565b9050919050565b7f5061796d656e7453706c69747465723a20736861726573206172652030000000600082015250565b600062000a74601d83620007de565b915062000a818262000a3c565b602082019050919050565b6000602082019050818103600083015262000aa78162000a65565b9050919050565b7f5061796d656e7453706c69747465723a206163636f756e7420616c726561647960008201527f2068617320736861726573000000000000000000000000000000000000000000602082015250565b600062000b0c602b83620007de565b915062000b198262000aae565b604082019050919050565b6000602082019050818103600083015262000b3f8162000afd565b9050919050565b600062000b538262000677565b915062000b608362000677565b9250827fffffffffffffffffffffffffffffffffffffffffffffffffffffffffffffffff0382111562000b985762000b9762000928565b5b828201905092915050565b62000bae816200055c565b82525050565b62000bbf8162000677565b82525050565b600060408201905062000bdc600083018562000ba3565b62000beb602083018462000bb4565b9392505050565b611d508062000c026000396000f3fe6080604052600436106100e15760003560e01c80639852595c1161007f578063d79779b211610059578063d79779b2146102f7578063e33b7de314610334578063f28e51201461035f578063f2fde38b1461038a57610128565b80639852595c14610266578063a4a4ce8a146102a3578063ce7c2ac2146102ba57610128565b806348b75044116100bb57806348b75044146101be578063715018a6146101e75780638b83209b146101fe5780638da5cb5b1461023b57610128565b8063191655871461012d5780633a98ef3914610156578063406072a91461018157610128565b36610128577f6ef95f06320e7a25a04a175ca677b7052bdd97131872c2192525a629f51be77061010f6103b3565b3460405161011e929190611219565b60405180910390a1005b600080fd5b34801561013957600080fd5b50610154600480360381019061014f9190611285565b6103bb565b005b34801561016257600080fd5b5061016b610443565b60405161017891906112b2565b60405180910390f35b34801561018d57600080fd5b506101a860048036038101906101a39190611337565b61044c565b6040516101b591906112b2565b60405180910390f35b3480156101ca57600080fd5b506101e560048036038101906101e09190611337565b6104d3565b005b3480156101f357600080fd5b506101fc61078b565b005b34801561020a57600080fd5b50610225600480360381019061022091906113a3565b610813565b60405161023291906113d0565b60405180910390f35b34801561024757600080fd5b5061025061085b565b60405161025d91906113d0565b60405180910390f35b34801561027257600080fd5b5061028d600480360381019061028891906113eb565b610885565b60405161029a91906112b2565b60405180910390f35b3480156102af57600080fd5b506102b86108ce565b005b3480156102c657600080fd5b506102e160048036038101906102dc91906113eb565b6108d9565b6040516102ee91906112b2565b60405180910390f35b34801561030357600080fd5b5061031e60048036038101906103199190611418565b610922565b60405161032b91906112b2565b60405180910390f35b34801561034057600080fd5b5061034961096b565b60405161035691906112b2565b60405180910390f35b34801561036b57600080fd5b50610374610975565b60405161038191906112b2565b60405180910390f35b34801561039657600080fd5b506103b160048036038101906103ac91906113eb565b6109f3565b005b600033905090565b6103c36103b3565b73ffffffffffffffffffffffffffffffffffffffff166103e161085b565b73ffffffffffffffffffffffffffffffffffffffff1614610437576040517f08c379a000000000000000000000000000000000000000000000000000000000815260040161042e906114a2565b60405180910390fd5b61044081610aea565b50565b60008054905090565b6000600660008473ffffffffffffffffffffffffffffffffffffffff1673ffffffffffffffffffffffffffffffffffffffff16815260200190815260200160002060008373ffffffffffffffffffffffffffffffffffffffff1673ffffffffffffffffffffffffffffffffffffffff16815260200190815260200160002054905092915050565b6000600260008373ffffffffffffffffffffffffffffffffffffffff1673ffffffffffffffffffffffffffffffffffffffff1681526020019081526020016000205411610555576040517f08c379a000000000000000000000000000000000000000000000000000000000815260040161054c90611534565b60405180910390fd5b600061056083610922565b8373ffffffffffffffffffffffffffffffffffffffff166370a08231306040518263ffffffff1660e01b815260040161059991906113d0565b602060405180830381865afa1580156105b6573d6000803e3d6000fd5b505050506040513d601f19601f820116820180604052508101906105da9190611569565b6105e491906115c5565b905060006105fc83836105f7878761044c565b610c94565b905060008103610641576040517f08c379a00000000000000000000000000000000000000000000000000000000081526004016106389061168d565b60405180910390fd5b80600660008673ffffffffffffffffffffffffffffffffffffffff1673ffffffffffffffffffffffffffffffffffffffff16815260200190815260200160002060008573ffffffffffffffffffffffffffffffffffffffff1673ffffffffffffffffffffffffffffffffffffffff16815260200190815260200160002060008282546106cd91906115c5565b9250508190555080600560008673ffffffffffffffffffffffffffffffffffffffff1673ffffffffffffffffffffffffffffffffffffffff168152602001908152602001600020600082825461072391906115c5565b92505081905550610735848483610d02565b8373ffffffffffffffffffffffffffffffffffffffff167f3be5b7a71e84ed12875d241991c70855ac5817d847039e17a9d895c1ceb0f18a848360405161077d929190611219565b60405180910390a250505050565b6107936103b3565b73ffffffffffffffffffffffffffffffffffffffff166107b161085b565b73ffffffffffffffffffffffffffffffffffffffff1614610807576040517f08c379a00000000000000000000000000000000000000000000000000000000081526004016107fe906114a2565b60405180910390fd5b6108116000610d88565b565b600060048281548110610829576108286116ad565b5b9060005260206000200160009054906101000a900473ffffffffffffffffffffffffffffffffffffffff169050919050565b6000600760009054906101000a900473ffffffffffffffffffffffffffffffffffffffff16905090565b6000600360008373ffffffffffffffffffffffffffffffffffffffff1673ffffffffffffffffffffffffffffffffffffffff168152602001908152602001600020549050919050565b6108d7336103bb565b565b6000600260008373ffffffffffffffffffffffffffffffffffffffff1673ffffffffffffffffffffffffffffffffffffffff168152602001908152602001600020549050919050565b6000600560008373ffffffffffffffffffffffffffffffffffffffff1673ffffffffffffffffffffffffffffffffffffffff168152602001908152602001600020549050919050565b6000600154905090565b600080610981336108d9565b1161098b57600080fd5b6000610996336108d9565b905060006109a2610443565b905060006109ae61096b565b476109b991906115c5565b905060006109c633610885565b9050808385846109d691906116dc565b6109e09190611765565b6109ea9190611796565b94505050505090565b6109fb6103b3565b73ffffffffffffffffffffffffffffffffffffffff16610a1961085b565b73ffffffffffffffffffffffffffffffffffffffff1614610a6f576040517f08c379a0000000000000000000000000000000000000000000000000000000008152600401610a66906114a2565b60405180910390fd5b600073ffffffffffffffffffffffffffffffffffffffff168173ffffffffffffffffffffffffffffffffffffffff1603610ade576040517f08c379a0000000000000000000000000000000000000000000000000000000008152600401610ad59061183c565b60405180910390fd5b610ae781610d88565b50565b6000600260008373ffffffffffffffffffffffffffffffffffffffff1673ffffffffffffffffffffffffffffffffffffffff1681526020019081526020016000205411610b6c576040517f08c379a0000000000000000000000000000000000000000000000000000000008152600401610b6390611534565b60405180910390fd5b6000610b7661096b565b47610b8191906115c5565b90506000610b988383610b9386610885565b610c94565b905060008103610bdd576040517f08c379a0000000000000000000000000000000000000000000000000000000008152600401610bd49061168d565b60405180910390fd5b80600360008573ffffffffffffffffffffffffffffffffffffffff1673ffffffffffffffffffffffffffffffffffffffff1681526020019081526020016000206000828254610c2c91906115c5565b925050819055508060016000828254610c4591906115c5565b92505081905550610c568382610e4e565b7fdf20fd1e76bc69d672e4814fafb2c449bba3a5369d8359adf9e05e6fde87b0568382604051610c879291906118bb565b60405180910390a1505050565b600081600054600260008773ffffffffffffffffffffffffffffffffffffffff1673ffffffffffffffffffffffffffffffffffffffff1681526020019081526020016000205485610ce591906116dc565b610cef9190611765565b610cf99190611796565b90509392505050565b610d838363a9059cbb60e01b8484604051602401610d21929190611219565b604051602081830303815290604052907bffffffffffffffffffffffffffffffffffffffffffffffffffffffff19166020820180517bffffffffffffffffffffffffffffffffffffffffffffffffffffffff8381831617835250505050610f42565b505050565b6000600760009054906101000a900473ffffffffffffffffffffffffffffffffffffffff16905081600760006101000a81548173ffffffffffffffffffffffffffffffffffffffff021916908373ffffffffffffffffffffffffffffffffffffffff1602179055508173ffffffffffffffffffffffffffffffffffffffff168173ffffffffffffffffffffffffffffffffffffffff167f8be0079c531659141344cd1fd0a4f28419497f9722a3daafe3b4186f6b6457e060405160405180910390a35050565b80471015610e91576040517f08c379a0000000000000000000000000000000000000000000000000000000008152600401610e8890611930565b60405180910390fd5b60008273ffffffffffffffffffffffffffffffffffffffff1682604051610eb790611981565b60006040518083038185875af1925050503d8060008114610ef4576040519150601f19603f3d011682016040523d82523d6000602084013e610ef9565b606091505b5050905080610f3d576040517f08c379a0000000000000000000000000000000000000000000000000000000008152600401610f3490611a08565b60405180910390fd5b505050565b6000610fa4826040518060400160405280602081526020017f5361666545524332303a206c6f772d6c6576656c2063616c6c206661696c65648152508573ffffffffffffffffffffffffffffffffffffffff166110099092919063ffffffff16565b90506000815111156110045780806020019051810190610fc49190611a60565b611003576040517f08c379a0000000000000000000000000000000000000000000000000000000008152600401610ffa90611aff565b60405180910390fd5b5b505050565b60606110188484600085611021565b90509392505050565b606082471015611066576040517f08c379a000000000000000000000000000000000000000000000000000000000815260040161105d90611b91565b60405180910390fd5b61106f85611135565b6110ae576040517f08c379a00000000000000000000000000000000000000000000000000000000081526004016110a590611bfd565b60405180910390fd5b6000808673ffffffffffffffffffffffffffffffffffffffff1685876040516110d79190611c8c565b60006040518083038185875af1925050503d8060008114611114576040519150601f19603f3d011682016040523d82523d6000602084013e611119565b606091505b5091509150611129828286611158565b92505050949350505050565b6000808273ffffffffffffffffffffffffffffffffffffffff163b119050919050565b60608315611168578290506111b8565b60008351111561117b5782518084602001fd5b816040517f08c379a00000000000000000000000000000000000000000000000000000000081526004016111af9190611cf8565b60405180910390fd5b9392505050565b600073ffffffffffffffffffffffffffffffffffffffff82169050919050565b60006111ea826111bf565b9050919050565b6111fa816111df565b82525050565b6000819050919050565b61121381611200565b82525050565b600060408201905061122e60008301856111f1565b61123b602083018461120a565b9392505050565b600080fd5b6000611252826111bf565b9050919050565b61126281611247565b811461126d57600080fd5b50565b60008135905061127f81611259565b92915050565b60006020828403121561129b5761129a611242565b5b60006112a984828501611270565b91505092915050565b60006020820190506112c7600083018461120a565b92915050565b60006112d8826111df565b9050919050565b6112e8816112cd565b81146112f357600080fd5b50565b600081359050611305816112df565b92915050565b611314816111df565b811461131f57600080fd5b50565b6000813590506113318161130b565b92915050565b6000806040838503121561134e5761134d611242565b5b600061135c858286016112f6565b925050602061136d85828601611322565b9150509250929050565b61138081611200565b811461138b57600080fd5b50565b60008135905061139d81611377565b92915050565b6000602082840312156113b9576113b8611242565b5b60006113c78482850161138e565b91505092915050565b60006020820190506113e560008301846111f1565b92915050565b60006020828403121561140157611400611242565b5b600061140f84828501611322565b91505092915050565b60006020828403121561142e5761142d611242565b5b600061143c848285016112f6565b91505092915050565b600082825260208201905092915050565b7f4f776e61626c653a2063616c6c6572206973206e6f7420746865206f776e6572600082015250565b600061148c602083611445565b915061149782611456565b602082019050919050565b600060208201905081810360008301526114bb8161147f565b9050919050565b7f5061796d656e7453706c69747465723a206163636f756e7420686173206e6f2060008201527f7368617265730000000000000000000000000000000000000000000000000000602082015250565b600061151e602683611445565b9150611529826114c2565b604082019050919050565b6000602082019050818103600083015261154d81611511565b9050919050565b60008151905061156381611377565b92915050565b60006020828403121561157f5761157e611242565b5b600061158d84828501611554565b91505092915050565b7f4e487b7100000000000000000000000000000000000000000000000000000000600052601160045260246000fd5b60006115d082611200565b91506115db83611200565b9250827fffffffffffffffffffffffffffffffffffffffffffffffffffffffffffffffff038211156116105761160f611596565b5b828201905092915050565b7f5061796d656e7453706c69747465723a206163636f756e74206973206e6f742060008201527f647565207061796d656e74000000000000000000000000000000000000000000602082015250565b6000611677602b83611445565b91506116828261161b565b604082019050919050565b600060208201905081810360008301526116a68161166a565b9050919050565b7f4e487b7100000000000000000000000000000000000000000000000000000000600052603260045260246000fd5b60006116e782611200565b91506116f283611200565b9250817fffffffffffffffffffffffffffffffffffffffffffffffffffffffffffffffff048311821515161561172b5761172a611596565b5b828202905092915050565b7f4e487b7100000000000000000000000000000000000000000000000000000000600052601260045260246000fd5b600061177082611200565b915061177b83611200565b92508261178b5761178a611736565b5b828204905092915050565b60006117a182611200565b91506117ac83611200565b9250828210156117bf576117be611596565b5b828203905092915050565b7f4f776e61626c653a206e6577206f776e657220697320746865207a65726f206160008201527f6464726573730000000000000000000000000000000000000000000000000000602082015250565b6000611826602683611445565b9150611831826117ca565b604082019050919050565b6000602082019050818103600083015261185581611819565b9050919050565b6000819050919050565b600061188161187c611877846111bf565b61185c565b6111bf565b9050919050565b600061189382611866565b9050919050565b60006118a582611888565b9050919050565b6118b58161189a565b82525050565b60006040820190506118d060008301856118ac565b6118dd602083018461120a565b9392505050565b7f416464726573733a20696e73756666696369656e742062616c616e6365000000600082015250565b600061191a601d83611445565b9150611925826118e4565b602082019050919050565b600060208201905081810360008301526119498161190d565b9050919050565b600081905092915050565b50565b600061196b600083611950565b91506119768261195b565b600082019050919050565b600061198c8261195e565b9150819050919050565b7f416464726573733a20756e61626c6520746f2073656e642076616c75652c207260008201527f6563697069656e74206d61792068617665207265766572746564000000000000602082015250565b60006119f2603a83611445565b91506119fd82611996565b604082019050919050565b60006020820190508181036000830152611a21816119e5565b9050919050565b60008115159050919050565b611a3d81611a28565b8114611a4857600080fd5b50565b600081519050611a5a81611a34565b92915050565b600060208284031215611a7657611a75611242565b5b6000611a8484828501611a4b565b91505092915050565b7f5361666545524332303a204552433230206f7065726174696f6e20646964206e60008201527f6f74207375636365656400000000000000000000000000000000000000000000602082015250565b6000611ae9602a83611445565b9150611af482611a8d565b604082019050919050565b60006020820190508181036000830152611b1881611adc565b9050919050565b7f416464726573733a20696e73756666696369656e742062616c616e636520666f60008201527f722063616c6c0000000000000000000000000000000000000000000000000000602082015250565b6000611b7b602683611445565b9150611b8682611b1f565b604082019050919050565b60006020820190508181036000830152611baa81611b6e565b9050919050565b7f416464726573733a2063616c6c20746f206e6f6e2d636f6e7472616374000000600082015250565b6000611be7601d83611445565b9150611bf282611bb1565b602082019050919050565b60006020820190508181036000830152611c1681611bda565b9050919050565b600081519050919050565b60005b83811015611c46578082015181840152602081019050611c2b565b83811115611c55576000848401525b50505050565b6000611c6682611c1d565b611c708185611950565b9350611c80818560208601611c28565b80840191505092915050565b6000611c988284611c5b565b915081905092915050565b600081519050919050565b6000601f19601f8301169050919050565b6000611cca82611ca3565b611cd48185611445565b9350611ce4818560208601611c28565b611ced81611cae565b840191505092915050565b60006020820190508181036000830152611d128184611cbf565b90509291505056fea26469706673582212206ef6ca0009545d7c78c1261946ef71f3fa2e7b14820bbbcea068ee1f05801c4d64736f6c634300080d0033",
  "immutableReferences": {},
  "source": "// SPDX-License-Identifier: MIT\n\npragma solidity ^0.8.11;\n\nimport \"@openzeppelin/contracts/finance/PaymentSplitter.sol\";\nimport \"@openzeppelin/contracts/access/Ownable.sol\";\n\ncontract HachiWallet is PaymentSplitter, Ownable {\n\n    constructor(\n        address[] memory _address, \n        uint256[] memory _shares\n    ) payable\n    PaymentSplitter(_address, _shares) {\n    }\n\n    function release(address payable account) \n    public \n    onlyOwner\n    override(PaymentSplitter) \n    {\n        super.release(account);\n    }\n\n    function easyRelease() public {\n        HachiWallet.release(payable(msg.sender));\n    }\n\n    function viewBalanceOwed() public view returns (uint) {\n        require(shares(msg.sender) > 0);\n        uint _shares = shares(msg.sender);\n        uint _totalShares = totalShares();\n        uint _totalReceived = address(this).balance + totalReleased();\n        uint _released = released(msg.sender);\n\n        return (_totalReceived * _shares) / _totalShares - _released;\n    }\n}",
  "sourcePath": "/Users/bryantbackus/Documents/ABackusCryptoDynasty/Projects/HachiNFT/contracts/HACHIWallet.sol",
  "compiler": {
    "name": "solc",
    "version": "0.8.13+commit.abaa5c0e.Emscripten.clang"
  },
  "schemaVersion": "3.4.7",
  "updatedAt": "2022-06-23T00:09:34.507Z",
  "networkType": "ethereum",
  "devdoc": {
    "kind": "dev",
    "methods": {
      "owner()": {
        "details": "Returns the address of the current owner."
      },
      "payee(uint256)": {
        "details": "Getter for the address of the payee number `index`."
      },
      "release(address)": {
        "details": "Triggers a transfer to `account` of the amount of Ether they are owed, according to their percentage of the total shares and their previous withdrawals."
      },
      "release(address,address)": {
        "details": "Triggers a transfer to `account` of the amount of `token` tokens they are owed, according to their percentage of the total shares and their previous withdrawals. `token` must be the address of an IERC20 contract."
      },
      "released(address)": {
        "details": "Getter for the amount of Ether already released to a payee."
      },
      "released(address,address)": {
        "details": "Getter for the amount of `token` tokens already released to a payee. `token` should be the address of an IERC20 contract."
      },
      "renounceOwnership()": {
        "details": "Leaves the contract without owner. It will not be possible to call `onlyOwner` functions anymore. Can only be called by the current owner. NOTE: Renouncing ownership will leave the contract without an owner, thereby removing any functionality that is only available to the owner."
      },
      "shares(address)": {
        "details": "Getter for the amount of shares held by an account."
      },
      "totalReleased()": {
        "details": "Getter for the total amount of Ether already released."
      },
      "totalReleased(address)": {
        "details": "Getter for the total amount of `token` already released. `token` should be the address of an IERC20 contract."
      },
      "totalShares()": {
        "details": "Getter for the total shares held by payees."
      },
      "transferOwnership(address)": {
        "details": "Transfers ownership of the contract to a new account (`newOwner`). Can only be called by the current owner."
      }
    },
    "version": 1
  },
  "userdoc": {
    "kind": "user",
    "methods": {},
    "version": 1
  }
}