{
  "contractName": "HACHINFT",
  "abi": [
    {
      "inputs": [
        {
          "internalType": "string",
          "name": "_ipfs",
          "type": "string"
        },
        {
          "internalType": "contract HachiWhitelist",
          "name": "_whtlst",
          "type": "address"
        },
        {
          "internalType": "contract HachiWallet",
          "name": "_wllt",
          "type": "address"
        }
      ],
      "stateMutability": "nonpayable",
      "type": "constructor"
    },
    {
      "anonymous": false,
      "inputs": [
        {
          "indexed": true,
          "internalType": "address",
          "name": "account",
          "type": "address"
        },
        {
          "indexed": true,
          "internalType": "address",
          "name": "operator",
          "type": "address"
        },
        {
          "indexed": false,
          "internalType": "bool",
          "name": "approved",
          "type": "bool"
        }
      ],
      "name": "ApprovalForAll",
      "type": "event"
    },
    {
      "anonymous": false,
      "inputs": [
        {
          "indexed": true,
          "internalType": "address",
          "name": "to",
          "type": "address"
        },
        {
          "indexed": true,
          "internalType": "uint256[]",
          "name": "id",
          "type": "uint256[]"
        },
        {
          "indexed": false,
          "internalType": "uint256",
          "name": "_value",
          "type": "uint256"
        }
      ],
      "name": "Mint",
      "type": "event"
    },
    {
      "anonymous": false,
      "inputs": [
        {
          "indexed": true,
          "internalType": "address",
          "name": "previousOwner",
          "type": "address"
        },
        {
          "indexed": true,
          "internalType": "address",
          "name": "newOwner",
          "type": "address"
        }
      ],
      "name": "OwnershipTransferred",
      "type": "event"
    },
    {
      "anonymous": false,
      "inputs": [
        {
          "indexed": false,
          "internalType": "address",
          "name": "account",
          "type": "address"
        }
      ],
      "name": "Paused",
      "type": "event"
    },
    {
      "anonymous": false,
      "inputs": [
        {
          "indexed": true,
          "internalType": "address",
          "name": "operator",
          "type": "address"
        },
        {
          "indexed": true,
          "internalType": "address",
          "name": "from",
          "type": "address"
        },
        {
          "indexed": true,
          "internalType": "address",
          "name": "to",
          "type": "address"
        },
        {
          "indexed": false,
          "internalType": "uint256[]",
          "name": "ids",
          "type": "uint256[]"
        },
        {
          "indexed": false,
          "internalType": "uint256[]",
          "name": "values",
          "type": "uint256[]"
        }
      ],
      "name": "TransferBatch",
      "type": "event"
    },
    {
      "anonymous": false,
      "inputs": [
        {
          "indexed": true,
          "internalType": "address",
          "name": "operator",
          "type": "address"
        },
        {
          "indexed": true,
          "internalType": "address",
          "name": "from",
          "type": "address"
        },
        {
          "indexed": true,
          "internalType": "address",
          "name": "to",
          "type": "address"
        },
        {
          "indexed": false,
          "internalType": "uint256",
          "name": "id",
          "type": "uint256"
        },
        {
          "indexed": false,
          "internalType": "uint256",
          "name": "value",
          "type": "uint256"
        }
      ],
      "name": "TransferSingle",
      "type": "event"
    },
    {
      "anonymous": false,
      "inputs": [
        {
          "indexed": false,
          "internalType": "string",
          "name": "value",
          "type": "string"
        },
        {
          "indexed": true,
          "internalType": "uint256",
          "name": "id",
          "type": "uint256"
        }
      ],
      "name": "URI",
      "type": "event"
    },
    {
      "anonymous": false,
      "inputs": [
        {
          "indexed": false,
          "internalType": "address",
          "name": "account",
          "type": "address"
        }
      ],
      "name": "Unpaused",
      "type": "event"
    },
    {
      "inputs": [],
      "name": "addressMintLimit",
      "outputs": [
        {
          "internalType": "uint256",
          "name": "",
          "type": "uint256"
        }
      ],
      "stateMutability": "view",
      "type": "function",
      "constant": true
    },
    {
      "inputs": [
        {
          "internalType": "address",
          "name": "account",
          "type": "address"
        },
        {
          "internalType": "uint256",
          "name": "id",
          "type": "uint256"
        }
      ],
      "name": "balanceOf",
      "outputs": [
        {
          "internalType": "uint256",
          "name": "",
          "type": "uint256"
        }
      ],
      "stateMutability": "view",
      "type": "function",
      "constant": true
    },
    {
      "inputs": [
        {
          "internalType": "address[]",
          "name": "accounts",
          "type": "address[]"
        },
        {
          "internalType": "uint256[]",
          "name": "ids",
          "type": "uint256[]"
        }
      ],
      "name": "balanceOfBatch",
      "outputs": [
        {
          "internalType": "uint256[]",
          "name": "",
          "type": "uint256[]"
        }
      ],
      "stateMutability": "view",
      "type": "function",
      "constant": true
    },
    {
      "inputs": [
        {
          "internalType": "address",
          "name": "account",
          "type": "address"
        },
        {
          "internalType": "address",
          "name": "operator",
          "type": "address"
        }
      ],
      "name": "isApprovedForAll",
      "outputs": [
        {
          "internalType": "bool",
          "name": "",
          "type": "bool"
        }
      ],
      "stateMutability": "view",
      "type": "function",
      "constant": true
    },
    {
      "inputs": [],
      "name": "metaDataReveal",
      "outputs": [
        {
          "internalType": "bool",
          "name": "",
          "type": "bool"
        }
      ],
      "stateMutability": "view",
      "type": "function",
      "constant": true
    },
    {
      "inputs": [],
      "name": "mintLimit",
      "outputs": [
        {
          "internalType": "uint256",
          "name": "",
          "type": "uint256"
        }
      ],
      "stateMutability": "view",
      "type": "function",
      "constant": true
    },
    {
      "inputs": [],
      "name": "mintPrice",
      "outputs": [
        {
          "internalType": "uint256",
          "name": "",
          "type": "uint256"
        }
      ],
      "stateMutability": "view",
      "type": "function",
      "constant": true
    },
    {
      "inputs": [],
      "name": "owner",
      "outputs": [
        {
          "internalType": "address",
          "name": "",
          "type": "address"
        }
      ],
      "stateMutability": "view",
      "type": "function",
      "constant": true
    },
    {
      "inputs": [],
      "name": "paused",
      "outputs": [
        {
          "internalType": "bool",
          "name": "",
          "type": "bool"
        }
      ],
      "stateMutability": "view",
      "type": "function",
      "constant": true
    },
    {
      "inputs": [],
      "name": "publicMint",
      "outputs": [
        {
          "internalType": "bool",
          "name": "",
          "type": "bool"
        }
      ],
      "stateMutability": "view",
      "type": "function",
      "constant": true
    },
    {
      "inputs": [],
      "name": "renounceOwnership",
      "outputs": [],
      "stateMutability": "nonpayable",
      "type": "function"
    },
    {
      "inputs": [
        {
          "internalType": "uint256",
          "name": "_tokenId",
          "type": "uint256"
        },
        {
          "internalType": "uint256",
          "name": "_salePrice",
          "type": "uint256"
        }
      ],
      "name": "royaltyInfo",
      "outputs": [
        {
          "internalType": "address",
          "name": "",
          "type": "address"
        },
        {
          "internalType": "uint256",
          "name": "",
          "type": "uint256"
        }
      ],
      "stateMutability": "view",
      "type": "function",
      "constant": true
    },
    {
      "inputs": [
        {
          "internalType": "address",
          "name": "from",
          "type": "address"
        },
        {
          "internalType": "address",
          "name": "to",
          "type": "address"
        },
        {
          "internalType": "uint256[]",
          "name": "ids",
          "type": "uint256[]"
        },
        {
          "internalType": "uint256[]",
          "name": "amounts",
          "type": "uint256[]"
        },
        {
          "internalType": "bytes",
          "name": "data",
          "type": "bytes"
        }
      ],
      "name": "safeBatchTransferFrom",
      "outputs": [],
      "stateMutability": "nonpayable",
      "type": "function"
    },
    {
      "inputs": [
        {
          "internalType": "address",
          "name": "from",
          "type": "address"
        },
        {
          "internalType": "address",
          "name": "to",
          "type": "address"
        },
        {
          "internalType": "uint256",
          "name": "id",
          "type": "uint256"
        },
        {
          "internalType": "uint256",
          "name": "amount",
          "type": "uint256"
        },
        {
          "internalType": "bytes",
          "name": "data",
          "type": "bytes"
        }
      ],
      "name": "safeTransferFrom",
      "outputs": [],
      "stateMutability": "nonpayable",
      "type": "function"
    },
    {
      "inputs": [
        {
          "internalType": "address",
          "name": "operator",
          "type": "address"
        },
        {
          "internalType": "bool",
          "name": "approved",
          "type": "bool"
        }
      ],
      "name": "setApprovalForAll",
      "outputs": [],
      "stateMutability": "nonpayable",
      "type": "function"
    },
    {
      "inputs": [
        {
          "internalType": "address",
          "name": "newOwner",
          "type": "address"
        }
      ],
      "name": "transferOwnership",
      "outputs": [],
      "stateMutability": "nonpayable",
      "type": "function"
    },
    {
      "stateMutability": "payable",
      "type": "receive",
      "payable": true
    },
    {
      "inputs": [],
      "name": "contractURI",
      "outputs": [
        {
          "internalType": "string",
          "name": "",
          "type": "string"
        }
      ],
      "stateMutability": "pure",
      "type": "function",
      "constant": true
    },
    {
      "inputs": [
        {
          "internalType": "uint256",
          "name": "tokenId",
          "type": "uint256"
        }
      ],
      "name": "uri",
      "outputs": [
        {
          "internalType": "string",
          "name": "",
          "type": "string"
        }
      ],
      "stateMutability": "view",
      "type": "function",
      "constant": true
    },
    {
      "inputs": [
        {
          "internalType": "string",
          "name": "sampleURI",
          "type": "string"
        }
      ],
      "name": "setGenericMeta",
      "outputs": [],
      "stateMutability": "nonpayable",
      "type": "function"
    },
    {
      "inputs": [
        {
          "internalType": "bool",
          "name": "_reveal",
          "type": "bool"
        }
      ],
      "name": "setMetaDataReveal",
      "outputs": [],
      "stateMutability": "nonpayable",
      "type": "function"
    },
    {
      "inputs": [
        {
          "components": [
            {
              "internalType": "address",
              "name": "to",
              "type": "address"
            },
            {
              "internalType": "uint256[]",
              "name": "amounts",
              "type": "uint256[]"
            },
            {
              "internalType": "bytes32[]",
              "name": "merkleProof",
              "type": "bytes32[]"
            },
            {
              "internalType": "bytes",
              "name": "signature",
              "type": "bytes"
            }
          ],
          "internalType": "struct HACHINFT.HachiTicket",
          "name": "_ticket",
          "type": "tuple"
        }
      ],
      "name": "mintHachi",
      "outputs": [],
      "stateMutability": "payable",
      "type": "function",
      "payable": true
    },
    {
      "inputs": [
        {
          "internalType": "address",
          "name": "receiver",
          "type": "address"
        },
        {
          "internalType": "uint96",
          "name": "feeNumerator",
          "type": "uint96"
        }
      ],
      "name": "setDefaultRoyalty",
      "outputs": [],
      "stateMutability": "nonpayable",
      "type": "function"
    },
    {
      "inputs": [
        {
          "internalType": "uint256",
          "name": "_limit",
          "type": "uint256"
        }
      ],
      "name": "updateMintLimit",
      "outputs": [],
      "stateMutability": "nonpayable",
      "type": "function"
    },
    {
      "inputs": [
        {
          "internalType": "uint256",
          "name": "_price",
          "type": "uint256"
        }
      ],
      "name": "updateMintPrice",
      "outputs": [],
      "stateMutability": "nonpayable",
      "type": "function"
    },
    {
      "inputs": [
        {
          "internalType": "uint256",
          "name": "_limit",
          "type": "uint256"
        }
      ],
      "name": "updateAddressMintLimit",
      "outputs": [],
      "stateMutability": "nonpayable",
      "type": "function"
    },
    {
      "inputs": [
        {
          "internalType": "string",
          "name": "newuri",
          "type": "string"
        }
      ],
      "name": "setURI",
      "outputs": [],
      "stateMutability": "nonpayable",
      "type": "function"
    },
    {
      "inputs": [
        {
          "internalType": "bool",
          "name": "_publicMint",
          "type": "bool"
        }
      ],
      "name": "updatePublicMint",
      "outputs": [],
      "stateMutability": "nonpayable",
      "type": "function"
    },
    {
      "inputs": [],
      "name": "pause",
      "outputs": [],
      "stateMutability": "nonpayable",
      "type": "function"
    },
    {
      "inputs": [],
      "name": "unpause",
      "outputs": [],
      "stateMutability": "nonpayable",
      "type": "function"
    },
    {
      "inputs": [
        {
          "internalType": "bytes4",
          "name": "interfaceId",
          "type": "bytes4"
        }
      ],
      "name": "supportsInterface",
      "outputs": [
        {
          "internalType": "bool",
          "name": "",
          "type": "bool"
        }
      ],
      "stateMutability": "view",
      "type": "function",
      "constant": true
    }
  ],
  "bytecode": "0x61014060405260405180606001604052806036815260200162006e35603691396007908051906020019062000036929190620007c5565b5067016345785d8a0000600a556003600b55611f40600c556000600d553480156200006057600080fd5b5060405162006e6b38038062006e6b833981810160405281019062000086919062000ae4565b6040518060400160405280600b81526020017f48616368694e66745369670000000000000000000000000000000000000000008152506040518060400160405280600181526020017f310000000000000000000000000000000000000000000000000000000000000081525060078054620001019062000b8e565b80601f01602080910402602001604051908101604052809291908181526020018280546200012f9062000b8e565b8015620001805780601f10620001545761010080835404028352916020019162000180565b820191906000526020600020905b8154815290600101906020018083116200016257829003601f168201915b505050505062000196816200035460201b60201c565b5060008280519060200120905060008280519060200120905060007f8b73c3c69bb8fe3d512ecc4cf759cc79239f7b179b0ffacaa9a75d522b39400f90508260e081815250508161010081815250504660a08181525050620002008184846200037060201b60201c565b608081815250503073ffffffffffffffffffffffffffffffffffffffff1660c08173ffffffffffffffffffffffffffffffffffffffff16815250508061012081815250505050505050620002696200025d620003ac60201b60201c565b620003b460201b60201c565b6000600560146101000a81548160ff02191690831515021790555060016006819055508260089080519060200190620002a4929190620007c5565b5081601060006101000a81548173ffffffffffffffffffffffffffffffffffffffff021916908373ffffffffffffffffffffffffffffffffffffffff16021790555080601160006101000a81548173ffffffffffffffffffffffffffffffffffffffff021916908373ffffffffffffffffffffffffffffffffffffffff1602179055506200033b8161012c6200047a60201b60201c565b6200034b6200051f60201b60201c565b50505062000e83565b80600290805190602001906200036c929190620007c5565b5050565b600083838346306040516020016200038d95949392919062000c0a565b6040516020818303038152906040528051906020012090509392505050565b600033905090565b6000600560009054906101000a900473ffffffffffffffffffffffffffffffffffffffff16905081600560006101000a81548173ffffffffffffffffffffffffffffffffffffffff021916908373ffffffffffffffffffffffffffffffffffffffff1602179055508173ffffffffffffffffffffffffffffffffffffffff168173ffffffffffffffffffffffffffffffffffffffff167f8be0079c531659141344cd1fd0a4f28419497f9722a3daafe3b4186f6b6457e060405160405180910390a35050565b6200048a620003ac60201b60201c565b73ffffffffffffffffffffffffffffffffffffffff16620004b0620005d760201b60201c565b73ffffffffffffffffffffffffffffffffffffffff161462000509576040517f08c379a0000000000000000000000000000000000000000000000000000000008152600401620005009062000cc8565b60405180910390fd5b6200051b82826200060160201b60201c565b5050565b6200052f620007a460201b60201c565b1562000572576040517f08c379a0000000000000000000000000000000000000000000000000000000008152600401620005699062000d3a565b60405180910390fd5b6001600560146101000a81548160ff0219169083151502179055507f62e78cea01bee320cd4e420270b5ea74000d11b0c9f74754ebdbfc544b05a258620005be620003ac60201b60201c565b604051620005cd919062000d5c565b60405180910390a1565b6000600560009054906101000a900473ffffffffffffffffffffffffffffffffffffffff16905090565b62000611620007bb60201b60201c565b6bffffffffffffffffffffffff16816bffffffffffffffffffffffff16111562000672576040517f08c379a0000000000000000000000000000000000000000000000000000000008152600401620006699062000def565b60405180910390fd5b600073ffffffffffffffffffffffffffffffffffffffff168273ffffffffffffffffffffffffffffffffffffffff1603620006e4576040517f08c379a0000000000000000000000000000000000000000000000000000000008152600401620006db9062000e61565b60405180910390fd5b60405180604001604052808373ffffffffffffffffffffffffffffffffffffffff168152602001826bffffffffffffffffffffffff16815250600360008201518160000160006101000a81548173ffffffffffffffffffffffffffffffffffffffff021916908373ffffffffffffffffffffffffffffffffffffffff16021790555060208201518160000160146101000a8154816bffffffffffffffffffffffff02191690836bffffffffffffffffffffffff1602179055509050505050565b6000600560149054906101000a900460ff16905090565b6000612710905090565b828054620007d39062000b8e565b90600052602060002090601f016020900481019282620007f7576000855562000843565b82601f106200081257805160ff191683800117855562000843565b8280016001018555821562000843579182015b828111156200084257825182559160200191906001019062000825565b5b50905062000852919062000856565b5090565b5b808211156200087157600081600090555060010162000857565b5090565b6000604051905090565b600080fd5b600080fd5b600080fd5b600080fd5b6000601f19601f8301169050919050565b7f4e487b7100000000000000000000000000000000000000000000000000000000600052604160045260246000fd5b620008de8262000893565b810181811067ffffffffffffffff821117156200090057620008ff620008a4565b5b80604052505050565b60006200091562000875565b9050620009238282620008d3565b919050565b600067ffffffffffffffff821115620009465762000945620008a4565b5b620009518262000893565b9050602081019050919050565b60005b838110156200097e57808201518184015260208101905062000961565b838111156200098e576000848401525b50505050565b6000620009ab620009a58462000928565b62000909565b905082815260208101848484011115620009ca57620009c96200088e565b5b620009d78482856200095e565b509392505050565b600082601f830112620009f757620009f662000889565b5b815162000a0984826020860162000994565b91505092915050565b600073ffffffffffffffffffffffffffffffffffffffff82169050919050565b600062000a3f8262000a12565b9050919050565b600062000a538262000a32565b9050919050565b62000a658162000a46565b811462000a7157600080fd5b50565b60008151905062000a858162000a5a565b92915050565b600062000a988262000a12565b9050919050565b600062000aac8262000a8b565b9050919050565b62000abe8162000a9f565b811462000aca57600080fd5b50565b60008151905062000ade8162000ab3565b92915050565b60008060006060848603121562000b005762000aff6200087f565b5b600084015167ffffffffffffffff81111562000b215762000b2062000884565b5b62000b2f86828701620009df565b935050602062000b428682870162000a74565b925050604062000b558682870162000acd565b9150509250925092565b7f4e487b7100000000000000000000000000000000000000000000000000000000600052602260045260246000fd5b6000600282049050600182168062000ba757607f821691505b60208210810362000bbd5762000bbc62000b5f565b5b50919050565b6000819050919050565b62000bd88162000bc3565b82525050565b6000819050919050565b62000bf38162000bde565b82525050565b62000c048162000a32565b82525050565b600060a08201905062000c21600083018862000bcd565b62000c30602083018762000bcd565b62000c3f604083018662000bcd565b62000c4e606083018562000be8565b62000c5d608083018462000bf9565b9695505050505050565b600082825260208201905092915050565b7f4f776e61626c653a2063616c6c6572206973206e6f7420746865206f776e6572600082015250565b600062000cb060208362000c67565b915062000cbd8262000c78565b602082019050919050565b6000602082019050818103600083015262000ce38162000ca1565b9050919050565b7f5061757361626c653a2070617573656400000000000000000000000000000000600082015250565b600062000d2260108362000c67565b915062000d2f8262000cea565b602082019050919050565b6000602082019050818103600083015262000d558162000d13565b9050919050565b600060208201905062000d73600083018462000bf9565b92915050565b7f455243323938313a20726f79616c7479206665652077696c6c2065786365656460008201527f2073616c65507269636500000000000000000000000000000000000000000000602082015250565b600062000dd7602a8362000c67565b915062000de48262000d79565b604082019050919050565b6000602082019050818103600083015262000e0a8162000dc8565b9050919050565b7f455243323938313a20696e76616c696420726563656976657200000000000000600082015250565b600062000e4960198362000c67565b915062000e568262000e11565b602082019050919050565b6000602082019050818103600083015262000e7c8162000e3a565b9050919050565b60805160a05160c05160e0516101005161012051615f6262000ed3600039600061357d015260006135bf0152600061359e015260006134d301526000613529015260006135520152615f626000f3fe6080604052600436106101cf5760003560e01c80635c975abb116100f7578063a700f51311610095578063e8a3d48511610064578063e8a3d4851461069d578063e985e9c5146106c8578063f242432a14610705578063f2fde38b1461072e5761023e565b8063a700f513146105f7578063bafca65314610620578063bf9b90b214610649578063e01d55c5146106745761023e565b80638456cb59116100d15780638456cb59146105615780638da5cb5b14610578578063996517cf146105a3578063a22cb465146105ce5761023e565b80635c975abb146104f45780636817c76c1461051f578063715018a61461054a5761023e565b806326092b831161016f57806338b91e541161013e57806338b91e541461044c5780633f4ba83a146104775780634033de3f1461048e5780634e1273f4146104b75761023e565b806326092b831461039e5780632a55205a146103c95780632eb2c2d61461040757806338b41a48146104305761023e565b806302fe5305116101ab57806302fe5305146102e657806304634d8d1461030f5780630e89341c14610338578063210df791146103755761023e565b8062728e4614610243578062fdd58e1461026c57806301ffc9a7146102a95761023e565b3661023e57601160009054906101000a900473ffffffffffffffffffffffffffffffffffffffff1673ffffffffffffffffffffffffffffffffffffffff166108fc349081150290604051600060405180830381858888f1935050505015801561023c573d6000803e3d6000fd5b005b600080fd5b34801561024f57600080fd5b5061026a600480360381019061026591906138ae565b610757565b005b34801561027857600080fd5b50610293600480360381019061028e9190613939565b6107dd565b6040516102a09190613988565b60405180910390f35b3480156102b557600080fd5b506102d060048036038101906102cb91906139fb565b6108a5565b6040516102dd9190613a43565b60405180910390f35b3480156102f257600080fd5b5061030d60048036038101906103089190613ba4565b6108b7565b005b34801561031b57600080fd5b5061033660048036038101906103319190613c31565b61093f565b005b34801561034457600080fd5b5061035f600480360381019061035a91906138ae565b6109c9565b60405161036c9190613cf9565b60405180910390f35b34801561038157600080fd5b5061039c60048036038101906103979190613ba4565b610aa4565b005b3480156103aa57600080fd5b506103b3610b3a565b6040516103c09190613a43565b60405180910390f35b3480156103d557600080fd5b506103f060048036038101906103eb9190613d1b565b610b4d565b6040516103fe929190613d6a565b60405180910390f35b34801561041357600080fd5b5061042e60048036038101906104299190613efc565b610d37565b005b61044a60048036038101906104459190613fef565b610dd8565b005b34801561045857600080fd5b5061046161144a565b60405161046e9190613988565b60405180910390f35b34801561048357600080fd5b5061048c611450565b005b34801561049a57600080fd5b506104b560048036038101906104b09190614064565b6114d6565b005b3480156104c357600080fd5b506104de60048036038101906104d99190614154565b6115c4565b6040516104eb919061428a565b60405180910390f35b34801561050057600080fd5b506105096116dd565b6040516105169190613a43565b60405180910390f35b34801561052b57600080fd5b506105346116f4565b6040516105419190613988565b60405180910390f35b34801561055657600080fd5b5061055f6116fa565b005b34801561056d57600080fd5b50610576611782565b005b34801561058457600080fd5b5061058d611808565b60405161059a91906142ac565b60405180910390f35b3480156105af57600080fd5b506105b8611832565b6040516105c59190613988565b60405180910390f35b3480156105da57600080fd5b506105f560048036038101906105f091906142c7565b611838565b005b34801561060357600080fd5b5061061e600480360381019061061991906138ae565b61184e565b005b34801561062c57600080fd5b5061064760048036038101906106429190614064565b6118d4565b005b34801561065557600080fd5b5061065e61196d565b60405161066b9190613a43565b60405180910390f35b34801561068057600080fd5b5061069b600480360381019061069691906138ae565b611980565b005b3480156106a957600080fd5b506106b2611a06565b6040516106bf9190613cf9565b60405180910390f35b3480156106d457600080fd5b506106ef60048036038101906106ea9190614307565b611a26565b6040516106fc9190613a43565b60405180910390f35b34801561071157600080fd5b5061072c60048036038101906107279190614347565b611aba565b005b34801561073a57600080fd5b50610755600480360381019061075091906143de565b611b5b565b005b61075f611c52565b73ffffffffffffffffffffffffffffffffffffffff1661077d611808565b73ffffffffffffffffffffffffffffffffffffffff16146107d3576040517f08c379a00000000000000000000000000000000000000000000000000000000081526004016107ca90614457565b60405180910390fd5b80600a8190555050565b60008073ffffffffffffffffffffffffffffffffffffffff168373ffffffffffffffffffffffffffffffffffffffff160361084d576040517f08c379a0000000000000000000000000000000000000000000000000000000008152600401610844906144e9565b60405180910390fd5b60008083815260200190815260200160002060008473ffffffffffffffffffffffffffffffffffffffff1673ffffffffffffffffffffffffffffffffffffffff16815260200190815260200160002054905092915050565b60006108b082611c5a565b9050919050565b6108bf611c52565b73ffffffffffffffffffffffffffffffffffffffff166108dd611808565b73ffffffffffffffffffffffffffffffffffffffff1614610933576040517f08c379a000000000000000000000000000000000000000000000000000000000815260040161092a90614457565b60405180910390fd5b61093c81611cd4565b50565b610947611c52565b73ffffffffffffffffffffffffffffffffffffffff16610965611808565b73ffffffffffffffffffffffffffffffffffffffff16146109bb576040517f08c379a00000000000000000000000000000000000000000000000000000000081526004016109b290614457565b60405180910390fd5b6109c58282611cee565b5050565b6060600960009054906101000a900460ff16610a7157600780546109ec90614538565b80601f0160208091040260200160405190810160405280929190818152602001828054610a1890614538565b8015610a655780601f10610a3a57610100808354040283529160200191610a65565b820191906000526020600020905b815481529060010190602001808311610a4857829003601f168201915b50505050509050610a9f565b6008610a7c83611e83565b604051602001610a8d929190614685565b60405160208183030381529060405290505b919050565b610aac611c52565b73ffffffffffffffffffffffffffffffffffffffff16610aca611808565b73ffffffffffffffffffffffffffffffffffffffff1614610b20576040517f08c379a0000000000000000000000000000000000000000000000000000000008152600401610b1790614457565b60405180910390fd5b8060079080519060200190610b369291906137c1565b5050565b600960019054906101000a900460ff1681565b6000806000600460008681526020019081526020016000206040518060400160405290816000820160009054906101000a900473ffffffffffffffffffffffffffffffffffffffff1673ffffffffffffffffffffffffffffffffffffffff1673ffffffffffffffffffffffffffffffffffffffff1681526020016000820160149054906101000a90046bffffffffffffffffffffffff166bffffffffffffffffffffffff166bffffffffffffffffffffffff16815250509050600073ffffffffffffffffffffffffffffffffffffffff16816000015173ffffffffffffffffffffffffffffffffffffffff1603610ce25760036040518060400160405290816000820160009054906101000a900473ffffffffffffffffffffffffffffffffffffffff1673ffffffffffffffffffffffffffffffffffffffff1673ffffffffffffffffffffffffffffffffffffffff1681526020016000820160149054906101000a90046bffffffffffffffffffffffff166bffffffffffffffffffffffff166bffffffffffffffffffffffff168152505090505b6000610cec611fe3565b6bffffffffffffffffffffffff1682602001516bffffffffffffffffffffffff1686610d1891906146e3565b610d22919061476c565b90508160000151819350935050509250929050565b610d3f611c52565b73ffffffffffffffffffffffffffffffffffffffff168573ffffffffffffffffffffffffffffffffffffffff161480610d855750610d8485610d7f611c52565b611a26565b5b610dc4576040517f08c379a0000000000000000000000000000000000000000000000000000000008152600401610dbb9061480f565b60405180910390fd5b610dd18585858585611fed565b5050505050565b610de06116dd565b15610e20576040517f08c379a0000000000000000000000000000000000000000000000000000000008152600401610e179061487b565b60405180910390fd5b600260065403610e65576040517f08c379a0000000000000000000000000000000000000000000000000000000008152600401610e5c906148e7565b60405180910390fd5b60026006819055506000610e788261230e565b90508073ffffffffffffffffffffffffffffffffffffffff163373ffffffffffffffffffffffffffffffffffffffff1614610ee8576040517f08c379a0000000000000000000000000000000000000000000000000000000008152600401610edf90614953565b60405180910390fd5b6000828060200190610efa9190614982565b9050905060008111610f41576040517f08c379a0000000000000000000000000000000000000000000000000000000008152600401610f3890614a31565b60405180910390fd5b6000838060200190610f539190614982565b80806020026020016040519081016040528093929190818152602001838360200280828437600081840152601f19601f820116905080830192505050505050509050600c5482600d54610fa69190614a51565b1115610fe7576040517f08c379a0000000000000000000000000000000000000000000000000000000008152600401610fde90614af3565b60405180910390fd5b600960019054906101000a900460ff166110e957601060009054906101000a900473ffffffffffffffffffffffffffffffffffffffff1673ffffffffffffffffffffffffffffffffffffffff166318ff357e8580604001906110499190614b13565b866040518463ffffffff1660e01b815260040161106893929190614be8565b602060405180830381865afa158015611085573d6000803e3d6000fd5b505050506040513d601f19601f820116820180604052508101906110a99190614c2f565b6110e8576040517f08c379a00000000000000000000000000000000000000000000000000000000081526004016110df90614ca8565b60405180910390fd5b5b600b5482600f60008673ffffffffffffffffffffffffffffffffffffffff1673ffffffffffffffffffffffffffffffffffffffff168152602001908152602001600020546111379190614a51565b1115611178576040517f08c379a000000000000000000000000000000000000000000000000000000000815260040161116f90614d14565b60405180910390fd5b81600a5461118691906146e3565b3410156111c8576040517f08c379a00000000000000000000000000000000000000000000000000000000081526004016111bf90614d80565b60405180910390fd5b60005b8281101561128a5760018580602001906111e59190614982565b838181106111f6576111f5614da0565b5b905060200201351461123d576040517f08c379a000000000000000000000000000000000000000000000000000000000815260040161123490614e1b565b60405180910390fd5b600d600081548092919061125090614e3b565b9190505550600d5482828151811061126b5761126a614da0565b5b602002602001018181525050808061128290614e3b565b9150506111cb565b50806040516112999190614f13565b60405180910390208460000160208101906112b491906143de565b73ffffffffffffffffffffffffffffffffffffffff167ffcedfad5335528f6891da1a7c502536cc084c4eb50c94825d3d2bb9e61a3bc30346040516112f99190613988565b60405180910390a381600f60008573ffffffffffffffffffffffffffffffffffffffff1673ffffffffffffffffffffffffffffffffffffffff16815260200190815260200160002060008282546113509190614a51565b925050819055506113d384600001602081019061136d91906143de565b8286806020019061137e9190614982565b80806020026020016040519081016040528093929190818152602001838360200280828437600081840152601f19601f8201169050808301925050505050505060405180602001604052806000815250612380565b601160009054906101000a900473ffffffffffffffffffffffffffffffffffffffff1673ffffffffffffffffffffffffffffffffffffffff166108fc349081150290604051600060405180830381858888f1935050505015801561143b573d6000803e3d6000fd5b50505050600160068190555050565b600b5481565b611458611c52565b73ffffffffffffffffffffffffffffffffffffffff16611476611808565b73ffffffffffffffffffffffffffffffffffffffff16146114cc576040517f08c379a00000000000000000000000000000000000000000000000000000000081526004016114c390614457565b60405180910390fd5b6114d46125ac565b565b6114de611c52565b73ffffffffffffffffffffffffffffffffffffffff166114fc611808565b73ffffffffffffffffffffffffffffffffffffffff1614611552576040517f08c379a000000000000000000000000000000000000000000000000000000000815260040161154990614457565b60405180910390fd5b600960019054906101000a900460ff161515811515036115a7576040517f08c379a000000000000000000000000000000000000000000000000000000000815260040161159e90614f76565b60405180910390fd5b80600960016101000a81548160ff02191690831515021790555050565b6060815183511461160a576040517f08c379a000000000000000000000000000000000000000000000000000000000815260040161160190615008565b60405180910390fd5b6000835167ffffffffffffffff81111561162757611626613a79565b5b6040519080825280602002602001820160405280156116555781602001602082028036833780820191505090505b50905060005b84518110156116d2576116a285828151811061167a57611679614da0565b5b602002602001015185838151811061169557611694614da0565b5b60200260200101516107dd565b8282815181106116b5576116b4614da0565b5b602002602001018181525050806116cb90614e3b565b905061165b565b508091505092915050565b6000600560149054906101000a900460ff16905090565b600a5481565b611702611c52565b73ffffffffffffffffffffffffffffffffffffffff16611720611808565b73ffffffffffffffffffffffffffffffffffffffff1614611776576040517f08c379a000000000000000000000000000000000000000000000000000000000815260040161176d90614457565b60405180910390fd5b611780600061264e565b565b61178a611c52565b73ffffffffffffffffffffffffffffffffffffffff166117a8611808565b73ffffffffffffffffffffffffffffffffffffffff16146117fe576040517f08c379a00000000000000000000000000000000000000000000000000000000081526004016117f590614457565b60405180910390fd5b611806612714565b565b6000600560009054906101000a900473ffffffffffffffffffffffffffffffffffffffff16905090565b600c5481565b61184a611843611c52565b83836127b7565b5050565b611856611c52565b73ffffffffffffffffffffffffffffffffffffffff16611874611808565b73ffffffffffffffffffffffffffffffffffffffff16146118ca576040517f08c379a00000000000000000000000000000000000000000000000000000000081526004016118c190614457565b60405180910390fd5b80600b8190555050565b6118dc611c52565b73ffffffffffffffffffffffffffffffffffffffff166118fa611808565b73ffffffffffffffffffffffffffffffffffffffff1614611950576040517f08c379a000000000000000000000000000000000000000000000000000000000815260040161194790614457565b60405180910390fd5b80600960006101000a81548160ff02191690831515021790555050565b600960009054906101000a900460ff1681565b611988611c52565b73ffffffffffffffffffffffffffffffffffffffff166119a6611808565b73ffffffffffffffffffffffffffffffffffffffff16146119fc576040517f08c379a00000000000000000000000000000000000000000000000000000000081526004016119f390614457565b60405180910390fd5b80600c8190555050565b60606040518060a0016040528060628152602001615ecb60629139905090565b6000600160008473ffffffffffffffffffffffffffffffffffffffff1673ffffffffffffffffffffffffffffffffffffffff16815260200190815260200160002060008373ffffffffffffffffffffffffffffffffffffffff1673ffffffffffffffffffffffffffffffffffffffff16815260200190815260200160002060009054906101000a900460ff16905092915050565b611ac2611c52565b73ffffffffffffffffffffffffffffffffffffffff168573ffffffffffffffffffffffffffffffffffffffff161480611b085750611b0785611b02611c52565b611a26565b5b611b47576040517f08c379a0000000000000000000000000000000000000000000000000000000008152600401611b3e9061509a565b60405180910390fd5b611b548585858585612923565b5050505050565b611b63611c52565b73ffffffffffffffffffffffffffffffffffffffff16611b81611808565b73ffffffffffffffffffffffffffffffffffffffff1614611bd7576040517f08c379a0000000000000000000000000000000000000000000000000000000008152600401611bce90614457565b60405180910390fd5b600073ffffffffffffffffffffffffffffffffffffffff168173ffffffffffffffffffffffffffffffffffffffff1603611c46576040517f08c379a0000000000000000000000000000000000000000000000000000000008152600401611c3d9061512c565b60405180910390fd5b611c4f8161264e565b50565b600033905090565b60007f2a55205a000000000000000000000000000000000000000000000000000000007bffffffffffffffffffffffffffffffffffffffffffffffffffffffff1916827bffffffffffffffffffffffffffffffffffffffffffffffffffffffff19161480611ccd5750611ccc82612bbe565b5b9050919050565b8060029080519060200190611cea9291906137c1565b5050565b611cf6611fe3565b6bffffffffffffffffffffffff16816bffffffffffffffffffffffff161115611d54576040517f08c379a0000000000000000000000000000000000000000000000000000000008152600401611d4b906151be565b60405180910390fd5b600073ffffffffffffffffffffffffffffffffffffffff168273ffffffffffffffffffffffffffffffffffffffff1603611dc3576040517f08c379a0000000000000000000000000000000000000000000000000000000008152600401611dba9061522a565b60405180910390fd5b60405180604001604052808373ffffffffffffffffffffffffffffffffffffffff168152602001826bffffffffffffffffffffffff16815250600360008201518160000160006101000a81548173ffffffffffffffffffffffffffffffffffffffff021916908373ffffffffffffffffffffffffffffffffffffffff16021790555060208201518160000160146101000a8154816bffffffffffffffffffffffff02191690836bffffffffffffffffffffffff1602179055509050505050565b606060008203611eca576040518060400160405280600181526020017f30000000000000000000000000000000000000000000000000000000000000008152509050611fde565b600082905060005b60008214611efc578080611ee590614e3b565b915050600a82611ef5919061476c565b9150611ed2565b60008167ffffffffffffffff811115611f1857611f17613a79565b5b6040519080825280601f01601f191660200182016040528015611f4a5781602001600182028036833780820191505090505b5090505b60008514611fd757600182611f63919061524a565b9150600a85611f72919061527e565b6030611f7e9190614a51565b60f81b818381518110611f9457611f93614da0565b5b60200101907effffffffffffffffffffffffffffffffffffffffffffffffffffffffffffff1916908160001a905350600a85611fd0919061476c565b9450611f4e565b8093505050505b919050565b6000612710905090565b8151835114612031576040517f08c379a000000000000000000000000000000000000000000000000000000000815260040161202890615321565b60405180910390fd5b600073ffffffffffffffffffffffffffffffffffffffff168473ffffffffffffffffffffffffffffffffffffffff16036120a0576040517f08c379a0000000000000000000000000000000000000000000000000000000008152600401612097906153b3565b60405180910390fd5b60006120aa611c52565b90506120ba818787878787612ca0565b60005b845181101561226b5760008582815181106120db576120da614da0565b5b6020026020010151905060008583815181106120fa576120f9614da0565b5b60200260200101519050600080600084815260200190815260200160002060008b73ffffffffffffffffffffffffffffffffffffffff1673ffffffffffffffffffffffffffffffffffffffff1681526020019081526020016000205490508181101561219b576040517f08c379a000000000000000000000000000000000000000000000000000000000815260040161219290615445565b60405180910390fd5b81810360008085815260200190815260200160002060008c73ffffffffffffffffffffffffffffffffffffffff1673ffffffffffffffffffffffffffffffffffffffff168152602001908152602001600020819055508160008085815260200190815260200160002060008b73ffffffffffffffffffffffffffffffffffffffff1673ffffffffffffffffffffffffffffffffffffffff16815260200190815260200160002060008282546122509190614a51565b925050819055505050508061226490614e3b565b90506120bd565b508473ffffffffffffffffffffffffffffffffffffffff168673ffffffffffffffffffffffffffffffffffffffff168273ffffffffffffffffffffffffffffffffffffffff167f4a39dc06d4c0dbc64b70af90fd698a233a518aa5d07e595d983b8c0526c8f7fb87876040516122e2929190615465565b60405180910390a46122f8818787878787612ca8565b612306818787878787612cb0565b505050505050565b60008061231a83612e87565b905061237881848060600190612330919061549c565b8080601f016020809104026020016040519081016040528093929190818152602001838380828437600081840152601f19601f82011690508083019250505050505050612f63565b915050919050565b600073ffffffffffffffffffffffffffffffffffffffff168473ffffffffffffffffffffffffffffffffffffffff16036123ef576040517f08c379a00000000000000000000000000000000000000000000000000000000081526004016123e690615571565b60405180910390fd5b8151835114612433576040517f08c379a000000000000000000000000000000000000000000000000000000000815260040161242a90615321565b60405180910390fd5b600061243d611c52565b905061244e81600087878787612ca0565b60005b84518110156125075783818151811061246d5761246c614da0565b5b602002602001015160008087848151811061248b5761248a614da0565b5b6020026020010151815260200190815260200160002060008873ffffffffffffffffffffffffffffffffffffffff1673ffffffffffffffffffffffffffffffffffffffff16815260200190815260200160002060008282546124ed9190614a51565b9250508190555080806124ff90614e3b565b915050612451565b508473ffffffffffffffffffffffffffffffffffffffff16600073ffffffffffffffffffffffffffffffffffffffff168273ffffffffffffffffffffffffffffffffffffffff167f4a39dc06d4c0dbc64b70af90fd698a233a518aa5d07e595d983b8c0526c8f7fb878760405161257f929190615465565b60405180910390a461259681600087878787612ca8565b6125a581600087878787612cb0565b5050505050565b6125b46116dd565b6125f3576040517f08c379a00000000000000000000000000000000000000000000000000000000081526004016125ea906155dd565b60405180910390fd5b6000600560146101000a81548160ff0219169083151502179055507f5db9ee0a495bf2e6ff9c91a7834c1ba4fdd244a5e8aa4e537bd38aeae4b073aa612637611c52565b60405161264491906142ac565b60405180910390a1565b6000600560009054906101000a900473ffffffffffffffffffffffffffffffffffffffff16905081600560006101000a81548173ffffffffffffffffffffffffffffffffffffffff021916908373ffffffffffffffffffffffffffffffffffffffff1602179055508173ffffffffffffffffffffffffffffffffffffffff168173ffffffffffffffffffffffffffffffffffffffff167f8be0079c531659141344cd1fd0a4f28419497f9722a3daafe3b4186f6b6457e060405160405180910390a35050565b61271c6116dd565b1561275c576040517f08c379a00000000000000000000000000000000000000000000000000000000081526004016127539061487b565b60405180910390fd5b6001600560146101000a81548160ff0219169083151502179055507f62e78cea01bee320cd4e420270b5ea74000d11b0c9f74754ebdbfc544b05a2586127a0611c52565b6040516127ad91906142ac565b60405180910390a1565b8173ffffffffffffffffffffffffffffffffffffffff168373ffffffffffffffffffffffffffffffffffffffff1603612825576040517f08c379a000000000000000000000000000000000000000000000000000000000815260040161281c9061566f565b60405180910390fd5b80600160008573ffffffffffffffffffffffffffffffffffffffff1673ffffffffffffffffffffffffffffffffffffffff16815260200190815260200160002060008473ffffffffffffffffffffffffffffffffffffffff1673ffffffffffffffffffffffffffffffffffffffff16815260200190815260200160002060006101000a81548160ff0219169083151502179055508173ffffffffffffffffffffffffffffffffffffffff168373ffffffffffffffffffffffffffffffffffffffff167f17307eab39ab6107e8899845ad3d59bd9653f200f220920489ca2b5937696c31836040516129169190613a43565b60405180910390a3505050565b600073ffffffffffffffffffffffffffffffffffffffff168473ffffffffffffffffffffffffffffffffffffffff1603612992576040517f08c379a0000000000000000000000000000000000000000000000000000000008152600401612989906153b3565b60405180910390fd5b600061299c611c52565b905060006129a985612f8a565b905060006129b685612f8a565b90506129c6838989858589612ca0565b600080600088815260200190815260200160002060008a73ffffffffffffffffffffffffffffffffffffffff1673ffffffffffffffffffffffffffffffffffffffff16815260200190815260200160002054905085811015612a5d576040517f08c379a0000000000000000000000000000000000000000000000000000000008152600401612a5490615445565b60405180910390fd5b85810360008089815260200190815260200160002060008b73ffffffffffffffffffffffffffffffffffffffff1673ffffffffffffffffffffffffffffffffffffffff168152602001908152602001600020819055508560008089815260200190815260200160002060008a73ffffffffffffffffffffffffffffffffffffffff1673ffffffffffffffffffffffffffffffffffffffff1681526020019081526020016000206000828254612b129190614a51565b925050819055508773ffffffffffffffffffffffffffffffffffffffff168973ffffffffffffffffffffffffffffffffffffffff168573ffffffffffffffffffffffffffffffffffffffff167fc3d58168c5ae7397731d063d5bbf3d657854427343f4c083240f7aacaa2d0f628a8a604051612b8f92919061568f565b60405180910390a4612ba5848a8a86868a612ca8565b612bb3848a8a8a8a8a613004565b505050505050505050565b60007fd9b67a26000000000000000000000000000000000000000000000000000000007bffffffffffffffffffffffffffffffffffffffffffffffffffffffff1916827bffffffffffffffffffffffffffffffffffffffffffffffffffffffff19161480612c8957507f0e89341c000000000000000000000000000000000000000000000000000000007bffffffffffffffffffffffffffffffffffffffffffffffffffffffff1916827bffffffffffffffffffffffffffffffffffffffffffffffffffffffff1916145b80612c995750612c98826131db565b5b9050919050565b505050505050565b505050505050565b612ccf8473ffffffffffffffffffffffffffffffffffffffff16613245565b15612e7f578373ffffffffffffffffffffffffffffffffffffffff1663bc197c8187878686866040518663ffffffff1660e01b8152600401612d1595949392919061570d565b6020604051808303816000875af1925050508015612d5157506040513d601f19601f82011682018060405250810190612d4e919061578a565b60015b612df657612d5d6157c4565b806308c379a003612db95750612d716157e6565b80612d7c5750612dbb565b806040517f08c379a0000000000000000000000000000000000000000000000000000000008152600401612db09190613cf9565b60405180910390fd5b505b6040517f08c379a0000000000000000000000000000000000000000000000000000000008152600401612ded906158e8565b60405180910390fd5b63bc197c8160e01b7bffffffffffffffffffffffffffffffffffffffffffffffffffffffff1916817bffffffffffffffffffffffffffffffffffffffffffffffffffffffff191614612e7d576040517f08c379a0000000000000000000000000000000000000000000000000000000008152600401612e749061597a565b60405180910390fd5b505b505050505050565b6000612f5c7f798f2fc7cec67eb8a3e992f2d864cc1f56f87a6e9130d64fe2b2d7693eca2d2b836000016020810190612ec091906143de565b848060200190612ed09190614982565b604051602001612ee19291906159f6565b60405160208183030381529060405280519060200120858060400190612f079190614b13565b604051602001612f18929190615a76565b60405160208183030381529060405280519060200120604051602001612f419493929190615aa8565b60405160208183030381529060405280519060200120613268565b9050919050565b6000806000612f728585613282565b91509150612f7f81613303565b819250505092915050565b60606000600167ffffffffffffffff811115612fa957612fa8613a79565b5b604051908082528060200260200182016040528015612fd75781602001602082028036833780820191505090505b5090508281600081518110612fef57612fee614da0565b5b60200260200101818152505080915050919050565b6130238473ffffffffffffffffffffffffffffffffffffffff16613245565b156131d3578373ffffffffffffffffffffffffffffffffffffffff1663f23a6e6187878686866040518663ffffffff1660e01b8152600401613069959493929190615aed565b6020604051808303816000875af19250505080156130a557506040513d601f19601f820116820180604052508101906130a2919061578a565b60015b61314a576130b16157c4565b806308c379a00361310d57506130c56157e6565b806130d0575061310f565b806040517f08c379a00000000000000000000000000000000000000000000000000000000081526004016131049190613cf9565b60405180910390fd5b505b6040517f08c379a0000000000000000000000000000000000000000000000000000000008152600401613141906158e8565b60405180910390fd5b63f23a6e6160e01b7bffffffffffffffffffffffffffffffffffffffffffffffffffffffff1916817bffffffffffffffffffffffffffffffffffffffffffffffffffffffff1916146131d1576040517f08c379a00000000000000000000000000000000000000000000000000000000081526004016131c89061597a565b60405180910390fd5b505b505050505050565b60007f01ffc9a7000000000000000000000000000000000000000000000000000000007bffffffffffffffffffffffffffffffffffffffffffffffffffffffff1916827bffffffffffffffffffffffffffffffffffffffffffffffffffffffff1916149050919050565b6000808273ffffffffffffffffffffffffffffffffffffffff163b119050919050565b600061327b6132756134cf565b836135e9565b9050919050565b60008060418351036132c35760008060006020860151925060408601519150606086015160001a90506132b78782858561361c565b945094505050506132fc565b60408351036132f35760008060208501519150604085015190506132e8868383613728565b9350935050506132fc565b60006002915091505b9250929050565b6000600481111561331757613316615b47565b5b81600481111561332a57613329615b47565b5b03156134cc576001600481111561334457613343615b47565b5b81600481111561335757613356615b47565b5b03613397576040517f08c379a000000000000000000000000000000000000000000000000000000000815260040161338e90615bc2565b60405180910390fd5b600260048111156133ab576133aa615b47565b5b8160048111156133be576133bd615b47565b5b036133fe576040517f08c379a00000000000000000000000000000000000000000000000000000000081526004016133f590615c2e565b60405180910390fd5b6003600481111561341257613411615b47565b5b81600481111561342557613424615b47565b5b03613465576040517f08c379a000000000000000000000000000000000000000000000000000000000815260040161345c90615cc0565b60405180910390fd5b60048081111561347857613477615b47565b5b81600481111561348b5761348a615b47565b5b036134cb576040517f08c379a00000000000000000000000000000000000000000000000000000000081526004016134c290615d52565b60405180910390fd5b5b50565b60007f000000000000000000000000000000000000000000000000000000000000000073ffffffffffffffffffffffffffffffffffffffff163073ffffffffffffffffffffffffffffffffffffffff1614801561354b57507f000000000000000000000000000000000000000000000000000000000000000046145b15613578577f000000000000000000000000000000000000000000000000000000000000000090506135e6565b6135e37f00000000000000000000000000000000000000000000000000000000000000007f00000000000000000000000000000000000000000000000000000000000000007f0000000000000000000000000000000000000000000000000000000000000000613787565b90505b90565b600082826040516020016135fe929190615ddf565b60405160208183030381529060405280519060200120905092915050565b6000807f7fffffffffffffffffffffffffffffff5d576e7357a4501ddfe92f46681b20a08360001c111561365757600060039150915061371f565b601b8560ff161415801561366f5750601c8560ff1614155b1561368157600060049150915061371f565b6000600187878787604051600081526020016040526040516136a69493929190615e32565b6020604051602081039080840390855afa1580156136c8573d6000803e3d6000fd5b505050602060405103519050600073ffffffffffffffffffffffffffffffffffffffff168173ffffffffffffffffffffffffffffffffffffffff16036137165760006001925092505061371f565b80600092509250505b94509492505050565b60008060007f7fffffffffffffffffffffffffffffffffffffffffffffffffffffffffffffff60001b841690506000601b60ff8660001c901c61376b9190614a51565b90506137798782888561361c565b935093505050935093915050565b600083838346306040516020016137a2959493929190615e77565b6040516020818303038152906040528051906020012090509392505050565b8280546137cd90614538565b90600052602060002090601f0160209004810192826137ef5760008555613836565b82601f1061380857805160ff1916838001178555613836565b82800160010185558215613836579182015b8281111561383557825182559160200191906001019061381a565b5b5090506138439190613847565b5090565b5b80821115613860576000816000905550600101613848565b5090565b6000604051905090565b600080fd5b600080fd5b6000819050919050565b61388b81613878565b811461389657600080fd5b50565b6000813590506138a881613882565b92915050565b6000602082840312156138c4576138c361386e565b5b60006138d284828501613899565b91505092915050565b600073ffffffffffffffffffffffffffffffffffffffff82169050919050565b6000613906826138db565b9050919050565b613916816138fb565b811461392157600080fd5b50565b6000813590506139338161390d565b92915050565b600080604083850312156139505761394f61386e565b5b600061395e85828601613924565b925050602061396f85828601613899565b9150509250929050565b61398281613878565b82525050565b600060208201905061399d6000830184613979565b92915050565b60007fffffffff0000000000000000000000000000000000000000000000000000000082169050919050565b6139d8816139a3565b81146139e357600080fd5b50565b6000813590506139f5816139cf565b92915050565b600060208284031215613a1157613a1061386e565b5b6000613a1f848285016139e6565b91505092915050565b60008115159050919050565b613a3d81613a28565b82525050565b6000602082019050613a586000830184613a34565b92915050565b600080fd5b600080fd5b6000601f19601f8301169050919050565b7f4e487b7100000000000000000000000000000000000000000000000000000000600052604160045260246000fd5b613ab182613a68565b810181811067ffffffffffffffff82111715613ad057613acf613a79565b5b80604052505050565b6000613ae3613864565b9050613aef8282613aa8565b919050565b600067ffffffffffffffff821115613b0f57613b0e613a79565b5b613b1882613a68565b9050602081019050919050565b82818337600083830152505050565b6000613b47613b4284613af4565b613ad9565b905082815260208101848484011115613b6357613b62613a63565b5b613b6e848285613b25565b509392505050565b600082601f830112613b8b57613b8a613a5e565b5b8135613b9b848260208601613b34565b91505092915050565b600060208284031215613bba57613bb961386e565b5b600082013567ffffffffffffffff811115613bd857613bd7613873565b5b613be484828501613b76565b91505092915050565b60006bffffffffffffffffffffffff82169050919050565b613c0e81613bed565b8114613c1957600080fd5b50565b600081359050613c2b81613c05565b92915050565b60008060408385031215613c4857613c4761386e565b5b6000613c5685828601613924565b9250506020613c6785828601613c1c565b9150509250929050565b600081519050919050565b600082825260208201905092915050565b60005b83811015613cab578082015181840152602081019050613c90565b83811115613cba576000848401525b50505050565b6000613ccb82613c71565b613cd58185613c7c565b9350613ce5818560208601613c8d565b613cee81613a68565b840191505092915050565b60006020820190508181036000830152613d138184613cc0565b905092915050565b60008060408385031215613d3257613d3161386e565b5b6000613d4085828601613899565b9250506020613d5185828601613899565b9150509250929050565b613d64816138fb565b82525050565b6000604082019050613d7f6000830185613d5b565b613d8c6020830184613979565b9392505050565b600067ffffffffffffffff821115613dae57613dad613a79565b5b602082029050602081019050919050565b600080fd5b6000613dd7613dd284613d93565b613ad9565b90508083825260208201905060208402830185811115613dfa57613df9613dbf565b5b835b81811015613e235780613e0f8882613899565b845260208401935050602081019050613dfc565b5050509392505050565b600082601f830112613e4257613e41613a5e565b5b8135613e52848260208601613dc4565b91505092915050565b600067ffffffffffffffff821115613e7657613e75613a79565b5b613e7f82613a68565b9050602081019050919050565b6000613e9f613e9a84613e5b565b613ad9565b905082815260208101848484011115613ebb57613eba613a63565b5b613ec6848285613b25565b509392505050565b600082601f830112613ee357613ee2613a5e565b5b8135613ef3848260208601613e8c565b91505092915050565b600080600080600060a08688031215613f1857613f1761386e565b5b6000613f2688828901613924565b9550506020613f3788828901613924565b945050604086013567ffffffffffffffff811115613f5857613f57613873565b5b613f6488828901613e2d565b935050606086013567ffffffffffffffff811115613f8557613f84613873565b5b613f9188828901613e2d565b925050608086013567ffffffffffffffff811115613fb257613fb1613873565b5b613fbe88828901613ece565b9150509295509295909350565b600080fd5b600060808284031215613fe657613fe5613fcb565b5b81905092915050565b6000602082840312156140055761400461386e565b5b600082013567ffffffffffffffff81111561402357614022613873565b5b61402f84828501613fd0565b91505092915050565b61404181613a28565b811461404c57600080fd5b50565b60008135905061405e81614038565b92915050565b60006020828403121561407a5761407961386e565b5b60006140888482850161404f565b91505092915050565b600067ffffffffffffffff8211156140ac576140ab613a79565b5b602082029050602081019050919050565b60006140d06140cb84614091565b613ad9565b905080838252602082019050602084028301858111156140f3576140f2613dbf565b5b835b8181101561411c57806141088882613924565b8452602084019350506020810190506140f5565b5050509392505050565b600082601f83011261413b5761413a613a5e565b5b813561414b8482602086016140bd565b91505092915050565b6000806040838503121561416b5761416a61386e565b5b600083013567ffffffffffffffff81111561418957614188613873565b5b61419585828601614126565b925050602083013567ffffffffffffffff8111156141b6576141b5613873565b5b6141c285828601613e2d565b9150509250929050565b600081519050919050565b600082825260208201905092915050565b6000819050602082019050919050565b61420181613878565b82525050565b600061421383836141f8565b60208301905092915050565b6000602082019050919050565b6000614237826141cc565b61424181856141d7565b935061424c836141e8565b8060005b8381101561427d5781516142648882614207565b975061426f8361421f565b925050600181019050614250565b5085935050505092915050565b600060208201905081810360008301526142a4818461422c565b905092915050565b60006020820190506142c16000830184613d5b565b92915050565b600080604083850312156142de576142dd61386e565b5b60006142ec85828601613924565b92505060206142fd8582860161404f565b9150509250929050565b6000806040838503121561431e5761431d61386e565b5b600061432c85828601613924565b925050602061433d85828601613924565b9150509250929050565b600080600080600060a086880312156143635761436261386e565b5b600061437188828901613924565b955050602061438288828901613924565b945050604061439388828901613899565b93505060606143a488828901613899565b925050608086013567ffffffffffffffff8111156143c5576143c4613873565b5b6143d188828901613ece565b9150509295509295909350565b6000602082840312156143f4576143f361386e565b5b600061440284828501613924565b91505092915050565b7f4f776e61626c653a2063616c6c6572206973206e6f7420746865206f776e6572600082015250565b6000614441602083613c7c565b915061444c8261440b565b602082019050919050565b6000602082019050818103600083015261447081614434565b9050919050565b7f455243313135353a2062616c616e636520717565727920666f7220746865207a60008201527f65726f2061646472657373000000000000000000000000000000000000000000602082015250565b60006144d3602b83613c7c565b91506144de82614477565b604082019050919050565b60006020820190508181036000830152614502816144c6565b9050919050565b7f4e487b7100000000000000000000000000000000000000000000000000000000600052602260045260246000fd5b6000600282049050600182168061455057607f821691505b60208210810361456357614562614509565b5b50919050565b600081905092915050565b60008190508160005260206000209050919050565b6000815461459681614538565b6145a08186614569565b945060018216600081146145bb57600181146145cc576145ff565b60ff198316865281860193506145ff565b6145d585614574565b60005b838110156145f7578154818901526001820191506020810190506145d8565b838801955050505b50505092915050565b600061461382613c71565b61461d8185614569565b935061462d818560208601613c8d565b80840191505092915050565b7f2e6a736f6e000000000000000000000000000000000000000000000000000000600082015250565b600061466f600583614569565b915061467a82614639565b600582019050919050565b60006146918285614589565b915061469d8284614608565b91506146a882614662565b91508190509392505050565b7f4e487b7100000000000000000000000000000000000000000000000000000000600052601160045260246000fd5b60006146ee82613878565b91506146f983613878565b9250817fffffffffffffffffffffffffffffffffffffffffffffffffffffffffffffffff0483118215151615614732576147316146b4565b5b828202905092915050565b7f4e487b7100000000000000000000000000000000000000000000000000000000600052601260045260246000fd5b600061477782613878565b915061478283613878565b9250826147925761479161473d565b5b828204905092915050565b7f455243313135353a207472616e736665722063616c6c6572206973206e6f742060008201527f6f776e6572206e6f7220617070726f7665640000000000000000000000000000602082015250565b60006147f9603283613c7c565b91506148048261479d565b604082019050919050565b60006020820190508181036000830152614828816147ec565b9050919050565b7f5061757361626c653a2070617573656400000000000000000000000000000000600082015250565b6000614865601083613c7c565b91506148708261482f565b602082019050919050565b6000602082019050818103600083015261489481614858565b9050919050565b7f5265656e7472616e637947756172643a207265656e7472616e742063616c6c00600082015250565b60006148d1601f83613c7c565b91506148dc8261489b565b602082019050919050565b60006020820190508181036000830152614900816148c4565b9050919050565b7f566572696669636174696f6e204661696c656400000000000000000000000000600082015250565b600061493d601383613c7c565b915061494882614907565b602082019050919050565b6000602082019050818103600083015261496c81614930565b9050919050565b600080fd5b600080fd5b600080fd5b6000808335600160200384360303811261499f5761499e614973565b5b80840192508235915067ffffffffffffffff8211156149c1576149c0614978565b5b6020830192506020820236038313156149dd576149dc61497d565b5b509250929050565b7f496e76616c696420416d6f756e747320496e7075740000000000000000000000600082015250565b6000614a1b601583613c7c565b9150614a26826149e5565b602082019050919050565b60006020820190508181036000830152614a4a81614a0e565b9050919050565b6000614a5c82613878565b9150614a6783613878565b9250827fffffffffffffffffffffffffffffffffffffffffffffffffffffffffffffffff03821115614a9c57614a9b6146b4565b5b828201905092915050565b7f536f6c64204f7574000000000000000000000000000000000000000000000000600082015250565b6000614add600883613c7c565b9150614ae882614aa7565b602082019050919050565b60006020820190508181036000830152614b0c81614ad0565b9050919050565b60008083356001602003843603038112614b3057614b2f614973565b5b80840192508235915067ffffffffffffffff821115614b5257614b51614978565b5b602083019250602082023603831315614b6e57614b6d61497d565b5b509250929050565b600082825260208201905092915050565b600080fd5b6000614b988385614b76565b93507f07ffffffffffffffffffffffffffffffffffffffffffffffffffffffffffffff831115614bcb57614bca614b87565b5b602083029250614bdc838584613b25565b82840190509392505050565b60006040820190508181036000830152614c03818587614b8c565b9050614c126020830184613d5b565b949350505050565b600081519050614c2981614038565b92915050565b600060208284031215614c4557614c4461386e565b5b6000614c5384828501614c1a565b91505092915050565b7f4e6f742057686974656c69737465640000000000000000000000000000000000600082015250565b6000614c92600f83613c7c565b9150614c9d82614c5c565b602082019050919050565b60006020820190508181036000830152614cc181614c85565b9050919050565b7f41646472657373206d696e74206c696d69742072656163686564000000000000600082015250565b6000614cfe601a83613c7c565b9150614d0982614cc8565b602082019050919050565b60006020820190508181036000830152614d2d81614cf1565b9050919050565b7f496e73756666696369656e742066756e64730000000000000000000000000000600082015250565b6000614d6a601283613c7c565b9150614d7582614d34565b602082019050919050565b60006020820190508181036000830152614d9981614d5d565b9050919050565b7f4e487b7100000000000000000000000000000000000000000000000000000000600052603260045260246000fd5b7f496e76616c696420616d6f756e74732061727261790000000000000000000000600082015250565b6000614e05601583613c7c565b9150614e1082614dcf565b602082019050919050565b60006020820190508181036000830152614e3481614df8565b9050919050565b6000614e4682613878565b91507fffffffffffffffffffffffffffffffffffffffffffffffffffffffffffffffff8203614e7857614e776146b4565b5b600182019050919050565b600081905092915050565b614e9781613878565b82525050565b6000614ea98383614e8e565b60208301905092915050565b6000614ec0826141cc565b614eca8185614e83565b9350614ed5836141e8565b8060005b83811015614f06578151614eed8882614e9d565b9750614ef88361421f565b925050600181019050614ed9565b5085935050505092915050565b6000614f1f8284614eb5565b915081905092915050565b7f696e70757420657161756c20746f207374617465000000000000000000000000600082015250565b6000614f60601483613c7c565b9150614f6b82614f2a565b602082019050919050565b60006020820190508181036000830152614f8f81614f53565b9050919050565b7f455243313135353a206163636f756e747320616e6420696473206c656e67746860008201527f206d69736d617463680000000000000000000000000000000000000000000000602082015250565b6000614ff2602983613c7c565b9150614ffd82614f96565b604082019050919050565b6000602082019050818103600083015261502181614fe5565b9050919050565b7f455243313135353a2063616c6c6572206973206e6f74206f776e6572206e6f7260008201527f20617070726f7665640000000000000000000000000000000000000000000000602082015250565b6000615084602983613c7c565b915061508f82615028565b604082019050919050565b600060208201905081810360008301526150b381615077565b9050919050565b7f4f776e61626c653a206e6577206f776e657220697320746865207a65726f206160008201527f6464726573730000000000000000000000000000000000000000000000000000602082015250565b6000615116602683613c7c565b9150615121826150ba565b604082019050919050565b6000602082019050818103600083015261514581615109565b9050919050565b7f455243323938313a20726f79616c7479206665652077696c6c2065786365656460008201527f2073616c65507269636500000000000000000000000000000000000000000000602082015250565b60006151a8602a83613c7c565b91506151b38261514c565b604082019050919050565b600060208201905081810360008301526151d78161519b565b9050919050565b7f455243323938313a20696e76616c696420726563656976657200000000000000600082015250565b6000615214601983613c7c565b915061521f826151de565b602082019050919050565b6000602082019050818103600083015261524381615207565b9050919050565b600061525582613878565b915061526083613878565b925082821015615273576152726146b4565b5b828203905092915050565b600061528982613878565b915061529483613878565b9250826152a4576152a361473d565b5b828206905092915050565b7f455243313135353a2069647320616e6420616d6f756e7473206c656e6774682060008201527f6d69736d61746368000000000000000000000000000000000000000000000000602082015250565b600061530b602883613c7c565b9150615316826152af565b604082019050919050565b6000602082019050818103600083015261533a816152fe565b9050919050565b7f455243313135353a207472616e7366657220746f20746865207a65726f20616460008201527f6472657373000000000000000000000000000000000000000000000000000000602082015250565b600061539d602583613c7c565b91506153a882615341565b604082019050919050565b600060208201905081810360008301526153cc81615390565b9050919050565b7f455243313135353a20696e73756666696369656e742062616c616e636520666f60008201527f72207472616e7366657200000000000000000000000000000000000000000000602082015250565b600061542f602a83613c7c565b915061543a826153d3565b604082019050919050565b6000602082019050818103600083015261545e81615422565b9050919050565b6000604082019050818103600083015261547f818561422c565b90508181036020830152615493818461422c565b90509392505050565b600080833560016020038436030381126154b9576154b8614973565b5b80840192508235915067ffffffffffffffff8211156154db576154da614978565b5b6020830192506001820236038313156154f7576154f661497d565b5b509250929050565b7f455243313135353a206d696e7420746f20746865207a65726f2061646472657360008201527f7300000000000000000000000000000000000000000000000000000000000000602082015250565b600061555b602183613c7c565b9150615566826154ff565b604082019050919050565b6000602082019050818103600083015261558a8161554e565b9050919050565b7f5061757361626c653a206e6f7420706175736564000000000000000000000000600082015250565b60006155c7601483613c7c565b91506155d282615591565b602082019050919050565b600060208201905081810360008301526155f6816155ba565b9050919050565b7f455243313135353a2073657474696e6720617070726f76616c2073746174757360008201527f20666f722073656c660000000000000000000000000000000000000000000000602082015250565b6000615659602983613c7c565b9150615664826155fd565b604082019050919050565b600060208201905081810360008301526156888161564c565b9050919050565b60006040820190506156a46000830185613979565b6156b16020830184613979565b9392505050565b600081519050919050565b600082825260208201905092915050565b60006156df826156b8565b6156e981856156c3565b93506156f9818560208601613c8d565b61570281613a68565b840191505092915050565b600060a0820190506157226000830188613d5b565b61572f6020830187613d5b565b8181036040830152615741818661422c565b90508181036060830152615755818561422c565b9050818103608083015261576981846156d4565b90509695505050505050565b600081519050615784816139cf565b92915050565b6000602082840312156157a05761579f61386e565b5b60006157ae84828501615775565b91505092915050565b60008160e01c9050919050565b600060033d11156157e35760046000803e6157e06000516157b7565b90505b90565b600060443d10615873576157f8613864565b60043d036004823e80513d602482011167ffffffffffffffff82111715615820575050615873565b808201805167ffffffffffffffff81111561583e5750505050615873565b80602083010160043d03850181111561585b575050505050615873565b61586a82602001850186613aa8565b82955050505050505b90565b7f455243313135353a207472616e7366657220746f206e6f6e204552433131353560008201527f526563656976657220696d706c656d656e746572000000000000000000000000602082015250565b60006158d2603483613c7c565b91506158dd82615876565b604082019050919050565b60006020820190508181036000830152615901816158c5565b9050919050565b7f455243313135353a204552433131353552656365697665722072656a6563746560008201527f6420746f6b656e73000000000000000000000000000000000000000000000000602082015250565b6000615964602883613c7c565b915061596f82615908565b604082019050919050565b6000602082019050818103600083015261599381615957565b9050919050565b60006159a68385614e83565b93507f07ffffffffffffffffffffffffffffffffffffffffffffffffffffffffffffff8311156159d9576159d8614b87565b5b6020830292506159ea838584613b25565b82840190509392505050565b6000615a0382848661599a565b91508190509392505050565b600081905092915050565b6000615a268385615a0f565b93507f07ffffffffffffffffffffffffffffffffffffffffffffffffffffffffffffff831115615a5957615a58614b87565b5b602083029250615a6a838584613b25565b82840190509392505050565b6000615a83828486615a1a565b91508190509392505050565b6000819050919050565b615aa281615a8f565b82525050565b6000608082019050615abd6000830187615a99565b615aca6020830186613d5b565b615ad76040830185615a99565b615ae46060830184615a99565b95945050505050565b600060a082019050615b026000830188613d5b565b615b0f6020830187613d5b565b615b1c6040830186613979565b615b296060830185613979565b8181036080830152615b3b81846156d4565b90509695505050505050565b7f4e487b7100000000000000000000000000000000000000000000000000000000600052602160045260246000fd5b7f45434453413a20696e76616c6964207369676e61747572650000000000000000600082015250565b6000615bac601883613c7c565b9150615bb782615b76565b602082019050919050565b60006020820190508181036000830152615bdb81615b9f565b9050919050565b7f45434453413a20696e76616c6964207369676e6174757265206c656e67746800600082015250565b6000615c18601f83613c7c565b9150615c2382615be2565b602082019050919050565b60006020820190508181036000830152615c4781615c0b565b9050919050565b7f45434453413a20696e76616c6964207369676e6174757265202773272076616c60008201527f7565000000000000000000000000000000000000000000000000000000000000602082015250565b6000615caa602283613c7c565b9150615cb582615c4e565b604082019050919050565b60006020820190508181036000830152615cd981615c9d565b9050919050565b7f45434453413a20696e76616c6964207369676e6174757265202776272076616c60008201527f7565000000000000000000000000000000000000000000000000000000000000602082015250565b6000615d3c602283613c7c565b9150615d4782615ce0565b604082019050919050565b60006020820190508181036000830152615d6b81615d2f565b9050919050565b7f1901000000000000000000000000000000000000000000000000000000000000600082015250565b6000615da8600283614569565b9150615db382615d72565b600282019050919050565b6000819050919050565b615dd9615dd482615a8f565b615dbe565b82525050565b6000615dea82615d9b565b9150615df68285615dc8565b602082019150615e068284615dc8565b6020820191508190509392505050565b600060ff82169050919050565b615e2c81615e16565b82525050565b6000608082019050615e476000830187615a99565b615e546020830186615e23565b615e616040830185615a99565b615e6e6060830184615a99565b95945050505050565b600060a082019050615e8c6000830188615a99565b615e996020830187615a99565b615ea66040830186615a99565b615eb36060830185613979565b615ec06080830184613d5b565b969550505050505056fe68747470733a2f2f697066732e696f2f697066732f516d5838773245507a46686235755a396a383756356e5650565636546f31624e4c63454b5a4a7279364e7a7348623f66696c656e616d653d4861636869436f6e74726163745552492e6a736f6ea2646970667358221220b7b2ccac16d9baa91703cffb9e76a9111020e7f0e5cae9ec3add3d723741cede64736f6c634300080d0033697066733a2f2f516d5136745a686138724d524531536a64666a5747445a6955727a5063526678784553444875514142625a4453383f",
  "immutableReferences": {
    "3623": [
      {
        "length": 32,
        "start": 13650
      }
    ],
    "3625": [
      {
        "length": 32,
        "start": 13609
      }
    ],
    "3627": [
      {
        "length": 32,
        "start": 13523
      }
    ],
    "3629": [
      {
        "length": 32,
        "start": 13726
      }
    ],
    "3631": [
      {
        "length": 32,
        "start": 13759
      }
    ],
    "3633": [
      {
        "length": 32,
        "start": 13693
      }
    ]
  },
  "source": "// SPDX-License-Identifier: MIT\n\npragma solidity ^0.8.11;\n\n// import \"./HACHILibrary.sol\";\n// import \"./HACHIVerifySigner.sol\";\nimport \"./HACHIWhitelist.sol\";\nimport \"./HACHIWallet.sol\";\nimport \"@openzeppelin/contracts/token/common/ERC2981.sol\";\nimport \"@openzeppelin/contracts/utils/Strings.sol\";\nimport \"@openzeppelin/contracts/token/ERC1155/ERC1155.sol\";\nimport \"@openzeppelin/contracts/access/Ownable.sol\";\nimport \"@openzeppelin/contracts/security/Pausable.sol\";\nimport \"@openzeppelin/contracts/security/ReentrancyGuard.sol\";\nimport \"@openzeppelin/contracts/utils/cryptography/ECDSA.sol\";\nimport \"@openzeppelin/contracts/utils/cryptography/draft-EIP712.sol\";\n\n//HachiNFT\ncontract HACHINFT is ERC1155, EIP712, ERC2981, Ownable, Pausable, ReentrancyGuard {\n    string private hachiGenericMetaDataURI = \"ipfs://QmQ6tZha8rMRE1SjdfjWGDZiUrzPcRfxxESDHuQABbZDS8?\";\n    string private hachiIPFSMetaDataURI;\n    string private constant SIGNING_DOMAIN = \"HachiNftSig\";\n    string private constant SIGNATURE_VERSION = \"1\";\n\n    bool public metaDataReveal;\n    bool public publicMint;\n\n    uint public mintPrice = 0.1 ether;\n    uint public addressMintLimit = 3;\n    uint public mintLimit = 8000;\n    uint private tokenIndex = 0;\n\n    mapping(uint256 => uint256) private control;\n    mapping(address => uint256) private numberMinted;\n\n    struct HachiTicket {\n        address to;\n        uint256[]  amounts;\n        bytes32[]  merkleProof;\n        bytes  signature;\n    }\n\n    HachiWhitelist whtlst;\n    HachiWallet wllt;\n    \n    event Mint(address indexed to, uint256[] indexed id, uint256 _value);\n\n    constructor(\n        string memory _ipfs,\n        HachiWhitelist _whtlst,\n        HachiWallet _wllt\n        )\n        ERC1155(hachiGenericMetaDataURI)\n        EIP712(SIGNING_DOMAIN, SIGNATURE_VERSION) {\n            hachiIPFSMetaDataURI = _ipfs; \n            whtlst = _whtlst;\n            wllt = _wllt;\n            setDefaultRoyalty(address(_wllt), 300);\n            _pause();\n    }\n\n    receive() external payable {\n        payable(wllt).transfer(msg.value);\n    }\n\n    function contractURI() public pure returns (string memory) {\n        return \"https://ipfs.io/ipfs/QmX8w2EPzFhb5uZ9j87V5nVPVV6To1bNLcEKZJry6NzsHb?filename=HachiContractURI.json\";\n    }\n\n    function uri(uint256 tokenId) override public view returns (string memory) {\n\n        if (!metaDataReveal)\n            return hachiGenericMetaDataURI;\n\n        return(string(abi.encodePacked(hachiIPFSMetaDataURI, Strings.toString(tokenId),\".json\")));\n    }\n\n    function setGenericMeta(string memory sampleURI) public onlyOwner {\n        hachiGenericMetaDataURI = sampleURI;\n    }\n\n    function setMetaDataReveal(bool _reveal) public onlyOwner {\n        metaDataReveal = _reveal;\n    }\n\n    function mintHachi(HachiTicket calldata _ticket) public whenNotPaused nonReentrant payable  {\n        address _signer = verifySigner(_ticket);\n        require(msg.sender == _signer, \"Verification Failed\");\n        uint _length = _ticket.amounts.length;\n        require(_length > 0, \"Invalid Amounts Input\");\n        uint[] memory _tokenId = _ticket.amounts;\n\n        require(tokenIndex + _length <= mintLimit, \"Sold Out\");\n        if(!publicMint) {\n            require(whtlst.verifyWhitelist(_ticket.merkleProof, _signer), \"Not Whitelisted\");\n        }\n        require(numberMinted[_signer] + _length <= addressMintLimit, \"Address mint limit reached\");\n        require(msg.value >= mintPrice*_length, \"Insufficient funds\");\n        for(uint i=0; i<_length; i++){\n            require(_ticket.amounts[i] == 1, \"Invalid amounts array\");\n            tokenIndex ++;\n            _tokenId[i] = tokenIndex;\n        }\n\n        emit Mint(_ticket.to, _tokenId, msg.value);\n        numberMinted[_signer] += _length;\n\n        _mintBatch(_ticket.to, _tokenId, _ticket.amounts, \"\");\n\n        payable(wllt).transfer(msg.value);\n    }\n\n    function verifySigner(HachiTicket calldata _ticket) internal view returns (address) {\n        bytes32 digest = _hash(_ticket);\n        return ECDSA.recover(digest, _ticket.signature);\n    }\n\n    function _hash(HachiTicket calldata _ticket) internal view returns (bytes32) {\n        return _hashTypedDataV4(keccak256(abi.encode(\n            keccak256(\"HachiTicket(address to,uint256[] amounts,bytes32[] merkleProof)\"),\n            _ticket.to,\n            keccak256(abi.encodePacked(_ticket.amounts)),\n            keccak256(abi.encodePacked(_ticket.merkleProof))\n        )));\n    }\n\n    // function deleteDefaultRoyalty() public onlyOwner {\n    //     _deleteDefaultRoyalty();\n    // }\n\n    function setDefaultRoyalty(address receiver, uint96 feeNumerator) public onlyOwner {\n        _setDefaultRoyalty(receiver, feeNumerator);\n    }\n\n    // function setTokenRoyalty(uint256 tokenId, address receiver, uint96 feeNumerator) public onlyOwner {\n    //     _setTokenRoyalty(tokenId, receiver, feeNumerator);\n    // }\n\n    // function resetTokenRoyalty(uint256 tokenId) public onlyOwner {\n    //     _resetTokenRoyalty(tokenId);\n    // }\n\n    function updateMintLimit(uint _limit) public onlyOwner {\n        mintLimit = _limit;\n    }\n\n    function updateMintPrice(uint _price) public onlyOwner {\n        mintPrice = _price;\n    }\n\n    function updateAddressMintLimit(uint _limit) public onlyOwner {\n        addressMintLimit = _limit;\n    }\n\n    function setURI(string memory newuri) public onlyOwner {\n        _setURI(newuri);\n    }\n\n    function updatePublicMint(bool _publicMint) public onlyOwner {\n        require(_publicMint != publicMint,\"input eqaul to state\");\n        publicMint = _publicMint;\n    }\n\n    function pause() public onlyOwner {\n        _pause();\n    }\n\n    function unpause() public onlyOwner {\n        _unpause();\n    }\n\n    function supportsInterface(bytes4 interfaceId)\n        public\n        view\n        override(ERC1155, ERC2981)\n        returns (bool)\n    {\n        return super.supportsInterface(interfaceId);\n    }\n}",
  "sourcePath": "/Users/bryantbackus/Documents/ABackusCryptoDynasty/Projects/HachiNFT/contracts/HACHINFT.sol",
  "compiler": {
    "name": "solc",
    "version": "0.8.13+commit.abaa5c0e.Emscripten.clang"
  },
  "schemaVersion": "3.4.7",
  "updatedAt": "2022-07-11T01:19:05.922Z",
  "networkType": "ethereum",
  "devdoc": {
    "kind": "dev",
    "methods": {
      "balanceOf(address,uint256)": {
        "details": "See {IERC1155-balanceOf}. Requirements: - `account` cannot be the zero address."
      },
      "balanceOfBatch(address[],uint256[])": {
        "details": "See {IERC1155-balanceOfBatch}. Requirements: - `accounts` and `ids` must have the same length."
      },
      "isApprovedForAll(address,address)": {
        "details": "See {IERC1155-isApprovedForAll}."
      },
      "owner()": {
        "details": "Returns the address of the current owner."
      },
      "paused()": {
        "details": "Returns true if the contract is paused, and false otherwise."
      },
      "renounceOwnership()": {
        "details": "Leaves the contract without owner. It will not be possible to call `onlyOwner` functions anymore. Can only be called by the current owner. NOTE: Renouncing ownership will leave the contract without an owner, thereby removing any functionality that is only available to the owner."
      },
      "royaltyInfo(uint256,uint256)": {
        "details": "Returns how much royalty is owed and to whom, based on a sale price that may be denominated in any unit of exchange. The royalty amount is denominated and should be paid in that same unit of exchange."
      },
      "safeBatchTransferFrom(address,address,uint256[],uint256[],bytes)": {
        "details": "See {IERC1155-safeBatchTransferFrom}."
      },
      "safeTransferFrom(address,address,uint256,uint256,bytes)": {
        "details": "See {IERC1155-safeTransferFrom}."
      },
      "setApprovalForAll(address,bool)": {
        "details": "See {IERC1155-setApprovalForAll}."
      },
      "transferOwnership(address)": {
        "details": "Transfers ownership of the contract to a new account (`newOwner`). Can only be called by the current owner."
      }
    },
    "version": 1
  },
  "userdoc": {
    "kind": "user",
    "methods": {},
    "version": 1
  }
}