{
  "contractName": "HACHINFT",
  "abi": [
    {
      "inputs": [
        {
          "internalType": "string",
          "name": "_ipfs",
          "type": "string"
        },
        {
          "internalType": "contract HachiWhitelist",
          "name": "_whtlst",
          "type": "address"
        },
        {
          "internalType": "contract HachiWallet",
          "name": "_wllt",
          "type": "address"
        }
      ],
      "stateMutability": "nonpayable",
      "type": "constructor"
    },
    {
      "anonymous": false,
      "inputs": [
        {
          "indexed": true,
          "internalType": "address",
          "name": "account",
          "type": "address"
        },
        {
          "indexed": true,
          "internalType": "address",
          "name": "operator",
          "type": "address"
        },
        {
          "indexed": false,
          "internalType": "bool",
          "name": "approved",
          "type": "bool"
        }
      ],
      "name": "ApprovalForAll",
      "type": "event"
    },
    {
      "anonymous": false,
      "inputs": [
        {
          "indexed": true,
          "internalType": "address",
          "name": "to",
          "type": "address"
        },
        {
          "indexed": true,
          "internalType": "uint256[]",
          "name": "id",
          "type": "uint256[]"
        },
        {
          "indexed": false,
          "internalType": "uint256",
          "name": "_value",
          "type": "uint256"
        }
      ],
      "name": "Mint",
      "type": "event"
    },
    {
      "anonymous": false,
      "inputs": [
        {
          "indexed": true,
          "internalType": "address",
          "name": "previousOwner",
          "type": "address"
        },
        {
          "indexed": true,
          "internalType": "address",
          "name": "newOwner",
          "type": "address"
        }
      ],
      "name": "OwnershipTransferred",
      "type": "event"
    },
    {
      "anonymous": false,
      "inputs": [
        {
          "indexed": false,
          "internalType": "address",
          "name": "account",
          "type": "address"
        }
      ],
      "name": "Paused",
      "type": "event"
    },
    {
      "anonymous": false,
      "inputs": [
        {
          "indexed": true,
          "internalType": "address",
          "name": "operator",
          "type": "address"
        },
        {
          "indexed": true,
          "internalType": "address",
          "name": "from",
          "type": "address"
        },
        {
          "indexed": true,
          "internalType": "address",
          "name": "to",
          "type": "address"
        },
        {
          "indexed": false,
          "internalType": "uint256[]",
          "name": "ids",
          "type": "uint256[]"
        },
        {
          "indexed": false,
          "internalType": "uint256[]",
          "name": "values",
          "type": "uint256[]"
        }
      ],
      "name": "TransferBatch",
      "type": "event"
    },
    {
      "anonymous": false,
      "inputs": [
        {
          "indexed": true,
          "internalType": "address",
          "name": "operator",
          "type": "address"
        },
        {
          "indexed": true,
          "internalType": "address",
          "name": "from",
          "type": "address"
        },
        {
          "indexed": true,
          "internalType": "address",
          "name": "to",
          "type": "address"
        },
        {
          "indexed": false,
          "internalType": "uint256",
          "name": "id",
          "type": "uint256"
        },
        {
          "indexed": false,
          "internalType": "uint256",
          "name": "value",
          "type": "uint256"
        }
      ],
      "name": "TransferSingle",
      "type": "event"
    },
    {
      "anonymous": false,
      "inputs": [
        {
          "indexed": false,
          "internalType": "string",
          "name": "value",
          "type": "string"
        },
        {
          "indexed": true,
          "internalType": "uint256",
          "name": "id",
          "type": "uint256"
        }
      ],
      "name": "URI",
      "type": "event"
    },
    {
      "anonymous": false,
      "inputs": [
        {
          "indexed": false,
          "internalType": "address",
          "name": "account",
          "type": "address"
        }
      ],
      "name": "Unpaused",
      "type": "event"
    },
    {
      "inputs": [],
      "name": "addressMintLimit",
      "outputs": [
        {
          "internalType": "uint256",
          "name": "",
          "type": "uint256"
        }
      ],
      "stateMutability": "view",
      "type": "function",
      "constant": true
    },
    {
      "inputs": [
        {
          "internalType": "address",
          "name": "account",
          "type": "address"
        },
        {
          "internalType": "uint256",
          "name": "id",
          "type": "uint256"
        }
      ],
      "name": "balanceOf",
      "outputs": [
        {
          "internalType": "uint256",
          "name": "",
          "type": "uint256"
        }
      ],
      "stateMutability": "view",
      "type": "function",
      "constant": true
    },
    {
      "inputs": [
        {
          "internalType": "address[]",
          "name": "accounts",
          "type": "address[]"
        },
        {
          "internalType": "uint256[]",
          "name": "ids",
          "type": "uint256[]"
        }
      ],
      "name": "balanceOfBatch",
      "outputs": [
        {
          "internalType": "uint256[]",
          "name": "",
          "type": "uint256[]"
        }
      ],
      "stateMutability": "view",
      "type": "function",
      "constant": true
    },
    {
      "inputs": [
        {
          "internalType": "address",
          "name": "account",
          "type": "address"
        },
        {
          "internalType": "address",
          "name": "operator",
          "type": "address"
        }
      ],
      "name": "isApprovedForAll",
      "outputs": [
        {
          "internalType": "bool",
          "name": "",
          "type": "bool"
        }
      ],
      "stateMutability": "view",
      "type": "function",
      "constant": true
    },
    {
      "inputs": [],
      "name": "metaDataReveal",
      "outputs": [
        {
          "internalType": "bool",
          "name": "",
          "type": "bool"
        }
      ],
      "stateMutability": "view",
      "type": "function",
      "constant": true
    },
    {
      "inputs": [],
      "name": "mintLimit",
      "outputs": [
        {
          "internalType": "uint256",
          "name": "",
          "type": "uint256"
        }
      ],
      "stateMutability": "view",
      "type": "function",
      "constant": true
    },
    {
      "inputs": [],
      "name": "mintPrice",
      "outputs": [
        {
          "internalType": "uint256",
          "name": "",
          "type": "uint256"
        }
      ],
      "stateMutability": "view",
      "type": "function",
      "constant": true
    },
    {
      "inputs": [],
      "name": "owner",
      "outputs": [
        {
          "internalType": "address",
          "name": "",
          "type": "address"
        }
      ],
      "stateMutability": "view",
      "type": "function",
      "constant": true
    },
    {
      "inputs": [],
      "name": "paused",
      "outputs": [
        {
          "internalType": "bool",
          "name": "",
          "type": "bool"
        }
      ],
      "stateMutability": "view",
      "type": "function",
      "constant": true
    },
    {
      "inputs": [],
      "name": "publicMint",
      "outputs": [
        {
          "internalType": "bool",
          "name": "",
          "type": "bool"
        }
      ],
      "stateMutability": "view",
      "type": "function",
      "constant": true
    },
    {
      "inputs": [],
      "name": "renounceOwnership",
      "outputs": [],
      "stateMutability": "nonpayable",
      "type": "function"
    },
    {
      "inputs": [
        {
          "internalType": "uint256",
          "name": "_tokenId",
          "type": "uint256"
        },
        {
          "internalType": "uint256",
          "name": "_salePrice",
          "type": "uint256"
        }
      ],
      "name": "royaltyInfo",
      "outputs": [
        {
          "internalType": "address",
          "name": "",
          "type": "address"
        },
        {
          "internalType": "uint256",
          "name": "",
          "type": "uint256"
        }
      ],
      "stateMutability": "view",
      "type": "function",
      "constant": true
    },
    {
      "inputs": [
        {
          "internalType": "address",
          "name": "from",
          "type": "address"
        },
        {
          "internalType": "address",
          "name": "to",
          "type": "address"
        },
        {
          "internalType": "uint256[]",
          "name": "ids",
          "type": "uint256[]"
        },
        {
          "internalType": "uint256[]",
          "name": "amounts",
          "type": "uint256[]"
        },
        {
          "internalType": "bytes",
          "name": "data",
          "type": "bytes"
        }
      ],
      "name": "safeBatchTransferFrom",
      "outputs": [],
      "stateMutability": "nonpayable",
      "type": "function"
    },
    {
      "inputs": [
        {
          "internalType": "address",
          "name": "from",
          "type": "address"
        },
        {
          "internalType": "address",
          "name": "to",
          "type": "address"
        },
        {
          "internalType": "uint256",
          "name": "id",
          "type": "uint256"
        },
        {
          "internalType": "uint256",
          "name": "amount",
          "type": "uint256"
        },
        {
          "internalType": "bytes",
          "name": "data",
          "type": "bytes"
        }
      ],
      "name": "safeTransferFrom",
      "outputs": [],
      "stateMutability": "nonpayable",
      "type": "function"
    },
    {
      "inputs": [
        {
          "internalType": "address",
          "name": "operator",
          "type": "address"
        },
        {
          "internalType": "bool",
          "name": "approved",
          "type": "bool"
        }
      ],
      "name": "setApprovalForAll",
      "outputs": [],
      "stateMutability": "nonpayable",
      "type": "function"
    },
    {
      "inputs": [
        {
          "internalType": "address",
          "name": "newOwner",
          "type": "address"
        }
      ],
      "name": "transferOwnership",
      "outputs": [],
      "stateMutability": "nonpayable",
      "type": "function"
    },
    {
      "stateMutability": "payable",
      "type": "receive",
      "payable": true
    },
    {
      "inputs": [],
      "name": "contractURI",
      "outputs": [
        {
          "internalType": "string",
          "name": "",
          "type": "string"
        }
      ],
      "stateMutability": "pure",
      "type": "function",
      "constant": true
    },
    {
      "inputs": [
        {
          "internalType": "uint256",
          "name": "tokenId",
          "type": "uint256"
        }
      ],
      "name": "uri",
      "outputs": [
        {
          "internalType": "string",
          "name": "",
          "type": "string"
        }
      ],
      "stateMutability": "view",
      "type": "function",
      "constant": true
    },
    {
      "inputs": [
        {
          "internalType": "string",
          "name": "sampleURI",
          "type": "string"
        }
      ],
      "name": "setGenericMeta",
      "outputs": [],
      "stateMutability": "nonpayable",
      "type": "function"
    },
    {
      "inputs": [
        {
          "internalType": "bool",
          "name": "_reveal",
          "type": "bool"
        }
      ],
      "name": "setMetaDataReveal",
      "outputs": [],
      "stateMutability": "nonpayable",
      "type": "function"
    },
    {
      "inputs": [
        {
          "components": [
            {
              "internalType": "address",
              "name": "to",
              "type": "address"
            },
            {
              "internalType": "uint256[]",
              "name": "amounts",
              "type": "uint256[]"
            },
            {
              "internalType": "bytes32[]",
              "name": "merkleProof",
              "type": "bytes32[]"
            },
            {
              "internalType": "bytes",
              "name": "signature",
              "type": "bytes"
            }
          ],
          "internalType": "struct HACHINFT.HachiTicket",
          "name": "_ticket",
          "type": "tuple"
        }
      ],
      "name": "mintHachi",
      "outputs": [],
      "stateMutability": "payable",
      "type": "function",
      "payable": true
    },
    {
      "inputs": [
        {
          "internalType": "address",
          "name": "receiver",
          "type": "address"
        },
        {
          "internalType": "uint96",
          "name": "feeNumerator",
          "type": "uint96"
        }
      ],
      "name": "setDefaultRoyalty",
      "outputs": [],
      "stateMutability": "nonpayable",
      "type": "function"
    },
    {
      "inputs": [
        {
          "internalType": "uint256",
          "name": "_limit",
          "type": "uint256"
        }
      ],
      "name": "updateMintLimit",
      "outputs": [],
      "stateMutability": "nonpayable",
      "type": "function"
    },
    {
      "inputs": [
        {
          "internalType": "uint256",
          "name": "_price",
          "type": "uint256"
        }
      ],
      "name": "updateMintPrice",
      "outputs": [],
      "stateMutability": "nonpayable",
      "type": "function"
    },
    {
      "inputs": [
        {
          "internalType": "uint256",
          "name": "_limit",
          "type": "uint256"
        }
      ],
      "name": "updateAddressMintLimit",
      "outputs": [],
      "stateMutability": "nonpayable",
      "type": "function"
    },
    {
      "inputs": [
        {
          "internalType": "string",
          "name": "newuri",
          "type": "string"
        }
      ],
      "name": "setURI",
      "outputs": [],
      "stateMutability": "nonpayable",
      "type": "function"
    },
    {
      "inputs": [
        {
          "internalType": "bool",
          "name": "_publicMint",
          "type": "bool"
        }
      ],
      "name": "updatePublicMint",
      "outputs": [],
      "stateMutability": "nonpayable",
      "type": "function"
    },
    {
      "inputs": [],
      "name": "pause",
      "outputs": [],
      "stateMutability": "nonpayable",
      "type": "function"
    },
    {
      "inputs": [],
      "name": "unpause",
      "outputs": [],
      "stateMutability": "nonpayable",
      "type": "function"
    },
    {
      "inputs": [
        {
          "internalType": "bytes4",
          "name": "interfaceId",
          "type": "bytes4"
        }
      ],
      "name": "supportsInterface",
      "outputs": [
        {
          "internalType": "bool",
          "name": "",
          "type": "bool"
        }
      ],
      "stateMutability": "view",
      "type": "function",
      "constant": true
    }
  ],
  "bytecode": "0x61014060405260405180606001604052806036815260200162006cc5603691396007908051906020019062000036929190620007c5565b5067016345785d8a0000600a556003600b55611f40600c556000600d553480156200006057600080fd5b5060405162006cfb38038062006cfb833981810160405281019062000086919062000ae4565b6040518060400160405280600b81526020017f48616368694e66745369670000000000000000000000000000000000000000008152506040518060400160405280600181526020017f310000000000000000000000000000000000000000000000000000000000000081525060078054620001019062000b8e565b80601f01602080910402602001604051908101604052809291908181526020018280546200012f9062000b8e565b8015620001805780601f10620001545761010080835404028352916020019162000180565b820191906000526020600020905b8154815290600101906020018083116200016257829003601f168201915b505050505062000196816200035460201b60201c565b5060008280519060200120905060008280519060200120905060007f8b73c3c69bb8fe3d512ecc4cf759cc79239f7b179b0ffacaa9a75d522b39400f90508260e081815250508161010081815250504660a08181525050620002008184846200037060201b60201c565b608081815250503073ffffffffffffffffffffffffffffffffffffffff1660c08173ffffffffffffffffffffffffffffffffffffffff16815250508061012081815250505050505050620002696200025d620003ac60201b60201c565b620003b460201b60201c565b6000600560146101000a81548160ff02191690831515021790555060016006819055508260089080519060200190620002a4929190620007c5565b5081601060006101000a81548173ffffffffffffffffffffffffffffffffffffffff021916908373ffffffffffffffffffffffffffffffffffffffff16021790555080601160006101000a81548173ffffffffffffffffffffffffffffffffffffffff021916908373ffffffffffffffffffffffffffffffffffffffff1602179055506200033b8161012c6200047a60201b60201c565b6200034b6200051f60201b60201c565b50505062000e83565b80600290805190602001906200036c929190620007c5565b5050565b600083838346306040516020016200038d95949392919062000c0a565b6040516020818303038152906040528051906020012090509392505050565b600033905090565b6000600560009054906101000a900473ffffffffffffffffffffffffffffffffffffffff16905081600560006101000a81548173ffffffffffffffffffffffffffffffffffffffff021916908373ffffffffffffffffffffffffffffffffffffffff1602179055508173ffffffffffffffffffffffffffffffffffffffff168173ffffffffffffffffffffffffffffffffffffffff167f8be0079c531659141344cd1fd0a4f28419497f9722a3daafe3b4186f6b6457e060405160405180910390a35050565b6200048a620003ac60201b60201c565b73ffffffffffffffffffffffffffffffffffffffff16620004b0620005d760201b60201c565b73ffffffffffffffffffffffffffffffffffffffff161462000509576040517f08c379a0000000000000000000000000000000000000000000000000000000008152600401620005009062000cc8565b60405180910390fd5b6200051b82826200060160201b60201c565b5050565b6200052f620007a460201b60201c565b1562000572576040517f08c379a0000000000000000000000000000000000000000000000000000000008152600401620005699062000d3a565b60405180910390fd5b6001600560146101000a81548160ff0219169083151502179055507f62e78cea01bee320cd4e420270b5ea74000d11b0c9f74754ebdbfc544b05a258620005be620003ac60201b60201c565b604051620005cd919062000d5c565b60405180910390a1565b6000600560009054906101000a900473ffffffffffffffffffffffffffffffffffffffff16905090565b62000611620007bb60201b60201c565b6bffffffffffffffffffffffff16816bffffffffffffffffffffffff16111562000672576040517f08c379a0000000000000000000000000000000000000000000000000000000008152600401620006699062000def565b60405180910390fd5b600073ffffffffffffffffffffffffffffffffffffffff168273ffffffffffffffffffffffffffffffffffffffff1603620006e4576040517f08c379a0000000000000000000000000000000000000000000000000000000008152600401620006db9062000e61565b60405180910390fd5b60405180604001604052808373ffffffffffffffffffffffffffffffffffffffff168152602001826bffffffffffffffffffffffff16815250600360008201518160000160006101000a81548173ffffffffffffffffffffffffffffffffffffffff021916908373ffffffffffffffffffffffffffffffffffffffff16021790555060208201518160000160146101000a8154816bffffffffffffffffffffffff02191690836bffffffffffffffffffffffff1602179055509050505050565b6000600560149054906101000a900460ff16905090565b6000612710905090565b828054620007d39062000b8e565b90600052602060002090601f016020900481019282620007f7576000855562000843565b82601f106200081257805160ff191683800117855562000843565b8280016001018555821562000843579182015b828111156200084257825182559160200191906001019062000825565b5b50905062000852919062000856565b5090565b5b808211156200087157600081600090555060010162000857565b5090565b6000604051905090565b600080fd5b600080fd5b600080fd5b600080fd5b6000601f19601f8301169050919050565b7f4e487b7100000000000000000000000000000000000000000000000000000000600052604160045260246000fd5b620008de8262000893565b810181811067ffffffffffffffff821117156200090057620008ff620008a4565b5b80604052505050565b60006200091562000875565b9050620009238282620008d3565b919050565b600067ffffffffffffffff821115620009465762000945620008a4565b5b620009518262000893565b9050602081019050919050565b60005b838110156200097e57808201518184015260208101905062000961565b838111156200098e576000848401525b50505050565b6000620009ab620009a58462000928565b62000909565b905082815260208101848484011115620009ca57620009c96200088e565b5b620009d78482856200095e565b509392505050565b600082601f830112620009f757620009f662000889565b5b815162000a0984826020860162000994565b91505092915050565b600073ffffffffffffffffffffffffffffffffffffffff82169050919050565b600062000a3f8262000a12565b9050919050565b600062000a538262000a32565b9050919050565b62000a658162000a46565b811462000a7157600080fd5b50565b60008151905062000a858162000a5a565b92915050565b600062000a988262000a12565b9050919050565b600062000aac8262000a8b565b9050919050565b62000abe8162000a9f565b811462000aca57600080fd5b50565b60008151905062000ade8162000ab3565b92915050565b60008060006060848603121562000b005762000aff6200087f565b5b600084015167ffffffffffffffff81111562000b215762000b2062000884565b5b62000b2f86828701620009df565b935050602062000b428682870162000a74565b925050604062000b558682870162000acd565b9150509250925092565b7f4e487b7100000000000000000000000000000000000000000000000000000000600052602260045260246000fd5b6000600282049050600182168062000ba757607f821691505b60208210810362000bbd5762000bbc62000b5f565b5b50919050565b6000819050919050565b62000bd88162000bc3565b82525050565b6000819050919050565b62000bf38162000bde565b82525050565b62000c048162000a32565b82525050565b600060a08201905062000c21600083018862000bcd565b62000c30602083018762000bcd565b62000c3f604083018662000bcd565b62000c4e606083018562000be8565b62000c5d608083018462000bf9565b9695505050505050565b600082825260208201905092915050565b7f4f776e61626c653a2063616c6c6572206973206e6f7420746865206f776e6572600082015250565b600062000cb060208362000c67565b915062000cbd8262000c78565b602082019050919050565b6000602082019050818103600083015262000ce38162000ca1565b9050919050565b7f5061757361626c653a2070617573656400000000000000000000000000000000600082015250565b600062000d2260108362000c67565b915062000d2f8262000cea565b602082019050919050565b6000602082019050818103600083015262000d558162000d13565b9050919050565b600060208201905062000d73600083018462000bf9565b92915050565b7f455243323938313a20726f79616c7479206665652077696c6c2065786365656460008201527f2073616c65507269636500000000000000000000000000000000000000000000602082015250565b600062000dd7602a8362000c67565b915062000de48262000d79565b604082019050919050565b6000602082019050818103600083015262000e0a8162000dc8565b9050919050565b7f455243323938313a20696e76616c696420726563656976657200000000000000600082015250565b600062000e4960198362000c67565b915062000e568262000e11565b602082019050919050565b6000602082019050818103600083015262000e7c8162000e3a565b9050919050565b60805160a05160c05160e0516101005161012051615df262000ed360003960006134e501526000613527015260006135060152600061343b01526000613491015260006134ba0152615df26000f3fe6080604052600436106101cf5760003560e01c80635c975abb116100f7578063a700f51311610095578063e8a3d48511610064578063e8a3d4851461069d578063e985e9c5146106c8578063f242432a14610705578063f2fde38b1461072e5761023e565b8063a700f513146105f7578063bafca65314610620578063bf9b90b214610649578063e01d55c5146106745761023e565b80638456cb59116100d15780638456cb59146105615780638da5cb5b14610578578063996517cf146105a3578063a22cb465146105ce5761023e565b80635c975abb146104f45780636817c76c1461051f578063715018a61461054a5761023e565b806326092b831161016f57806338b91e541161013e57806338b91e541461044c5780633f4ba83a146104775780634033de3f1461048e5780634e1273f4146104b75761023e565b806326092b831461039e5780632a55205a146103c95780632eb2c2d61461040757806338b41a48146104305761023e565b806302fe5305116101ab57806302fe5305146102e657806304634d8d1461030f5780630e89341c14610338578063210df791146103755761023e565b8062728e4614610243578062fdd58e1461026c57806301ffc9a7146102a95761023e565b3661023e57601160009054906101000a900473ffffffffffffffffffffffffffffffffffffffff1673ffffffffffffffffffffffffffffffffffffffff166108fc349081150290604051600060405180830381858888f1935050505015801561023c573d6000803e3d6000fd5b005b600080fd5b34801561024f57600080fd5b5061026a60048036038101906102659190613816565b610757565b005b34801561027857600080fd5b50610293600480360381019061028e91906138a1565b6107dd565b6040516102a091906138f0565b60405180910390f35b3480156102b557600080fd5b506102d060048036038101906102cb9190613963565b6108a5565b6040516102dd91906139ab565b60405180910390f35b3480156102f257600080fd5b5061030d60048036038101906103089190613b0c565b6108b7565b005b34801561031b57600080fd5b5061033660048036038101906103319190613b99565b61093f565b005b34801561034457600080fd5b5061035f600480360381019061035a9190613816565b6109c9565b60405161036c9190613c61565b60405180910390f35b34801561038157600080fd5b5061039c60048036038101906103979190613b0c565b610aa4565b005b3480156103aa57600080fd5b506103b3610b3a565b6040516103c091906139ab565b60405180910390f35b3480156103d557600080fd5b506103f060048036038101906103eb9190613c83565b610b4d565b6040516103fe929190613cd2565b60405180910390f35b34801561041357600080fd5b5061042e60048036038101906104299190613e64565b610d37565b005b61044a60048036038101906104459190613f57565b610dd8565b005b34801561045857600080fd5b50610461611407565b60405161046e91906138f0565b60405180910390f35b34801561048357600080fd5b5061048c61140d565b005b34801561049a57600080fd5b506104b560048036038101906104b09190613fcc565b611493565b005b3480156104c357600080fd5b506104de60048036038101906104d991906140bc565b61152c565b6040516104eb91906141f2565b60405180910390f35b34801561050057600080fd5b50610509611645565b60405161051691906139ab565b60405180910390f35b34801561052b57600080fd5b5061053461165c565b60405161054191906138f0565b60405180910390f35b34801561055657600080fd5b5061055f611662565b005b34801561056d57600080fd5b506105766116ea565b005b34801561058457600080fd5b5061058d611770565b60405161059a9190614214565b60405180910390f35b3480156105af57600080fd5b506105b861179a565b6040516105c591906138f0565b60405180910390f35b3480156105da57600080fd5b506105f560048036038101906105f0919061422f565b6117a0565b005b34801561060357600080fd5b5061061e60048036038101906106199190613816565b6117b6565b005b34801561062c57600080fd5b5061064760048036038101906106429190613fcc565b61183c565b005b34801561065557600080fd5b5061065e6118d5565b60405161066b91906139ab565b60405180910390f35b34801561068057600080fd5b5061069b60048036038101906106969190613816565b6118e8565b005b3480156106a957600080fd5b506106b261196e565b6040516106bf9190613c61565b60405180910390f35b3480156106d457600080fd5b506106ef60048036038101906106ea919061426f565b61198e565b6040516106fc91906139ab565b60405180910390f35b34801561071157600080fd5b5061072c600480360381019061072791906142af565b611a22565b005b34801561073a57600080fd5b5061075560048036038101906107509190614346565b611ac3565b005b61075f611bba565b73ffffffffffffffffffffffffffffffffffffffff1661077d611770565b73ffffffffffffffffffffffffffffffffffffffff16146107d3576040517f08c379a00000000000000000000000000000000000000000000000000000000081526004016107ca906143bf565b60405180910390fd5b80600a8190555050565b60008073ffffffffffffffffffffffffffffffffffffffff168373ffffffffffffffffffffffffffffffffffffffff160361084d576040517f08c379a000000000000000000000000000000000000000000000000000000000815260040161084490614451565b60405180910390fd5b60008083815260200190815260200160002060008473ffffffffffffffffffffffffffffffffffffffff1673ffffffffffffffffffffffffffffffffffffffff16815260200190815260200160002054905092915050565b60006108b082611bc2565b9050919050565b6108bf611bba565b73ffffffffffffffffffffffffffffffffffffffff166108dd611770565b73ffffffffffffffffffffffffffffffffffffffff1614610933576040517f08c379a000000000000000000000000000000000000000000000000000000000815260040161092a906143bf565b60405180910390fd5b61093c81611c3c565b50565b610947611bba565b73ffffffffffffffffffffffffffffffffffffffff16610965611770565b73ffffffffffffffffffffffffffffffffffffffff16146109bb576040517f08c379a00000000000000000000000000000000000000000000000000000000081526004016109b2906143bf565b60405180910390fd5b6109c58282611c56565b5050565b6060600960009054906101000a900460ff16610a7157600780546109ec906144a0565b80601f0160208091040260200160405190810160405280929190818152602001828054610a18906144a0565b8015610a655780601f10610a3a57610100808354040283529160200191610a65565b820191906000526020600020905b815481529060010190602001808311610a4857829003601f168201915b50505050509050610a9f565b6008610a7c83611deb565b604051602001610a8d9291906145ed565b60405160208183030381529060405290505b919050565b610aac611bba565b73ffffffffffffffffffffffffffffffffffffffff16610aca611770565b73ffffffffffffffffffffffffffffffffffffffff1614610b20576040517f08c379a0000000000000000000000000000000000000000000000000000000008152600401610b17906143bf565b60405180910390fd5b8060079080519060200190610b36929190613729565b5050565b600960019054906101000a900460ff1681565b6000806000600460008681526020019081526020016000206040518060400160405290816000820160009054906101000a900473ffffffffffffffffffffffffffffffffffffffff1673ffffffffffffffffffffffffffffffffffffffff1673ffffffffffffffffffffffffffffffffffffffff1681526020016000820160149054906101000a90046bffffffffffffffffffffffff166bffffffffffffffffffffffff166bffffffffffffffffffffffff16815250509050600073ffffffffffffffffffffffffffffffffffffffff16816000015173ffffffffffffffffffffffffffffffffffffffff1603610ce25760036040518060400160405290816000820160009054906101000a900473ffffffffffffffffffffffffffffffffffffffff1673ffffffffffffffffffffffffffffffffffffffff1673ffffffffffffffffffffffffffffffffffffffff1681526020016000820160149054906101000a90046bffffffffffffffffffffffff166bffffffffffffffffffffffff166bffffffffffffffffffffffff168152505090505b6000610cec611f4b565b6bffffffffffffffffffffffff1682602001516bffffffffffffffffffffffff1686610d18919061464b565b610d2291906146d4565b90508160000151819350935050509250929050565b610d3f611bba565b73ffffffffffffffffffffffffffffffffffffffff168573ffffffffffffffffffffffffffffffffffffffff161480610d855750610d8485610d7f611bba565b61198e565b5b610dc4576040517f08c379a0000000000000000000000000000000000000000000000000000000008152600401610dbb90614777565b60405180910390fd5b610dd18585858585611f55565b5050505050565b610de0611645565b15610e20576040517f08c379a0000000000000000000000000000000000000000000000000000000008152600401610e17906147e3565b60405180910390fd5b600260065403610e65576040517f08c379a0000000000000000000000000000000000000000000000000000000008152600401610e5c9061484f565b60405180910390fd5b60026006819055506000610e7882612276565b90508073ffffffffffffffffffffffffffffffffffffffff163373ffffffffffffffffffffffffffffffffffffffff1614610ee8576040517f08c379a0000000000000000000000000000000000000000000000000000000008152600401610edf906148bb565b60405180910390fd5b6000828060200190610efa91906148ea565b905090506000838060200190610f1091906148ea565b80806020026020016040519081016040528093929190818152602001838360200280828437600081840152601f19601f820116905080830192505050505050509050600c5482600d54610f63919061494d565b1115610fa4576040517f08c379a0000000000000000000000000000000000000000000000000000000008152600401610f9b906149ef565b60405180910390fd5b600960019054906101000a900460ff166110a657601060009054906101000a900473ffffffffffffffffffffffffffffffffffffffff1673ffffffffffffffffffffffffffffffffffffffff166318ff357e8580604001906110069190614a0f565b866040518463ffffffff1660e01b815260040161102593929190614ae4565b602060405180830381865afa158015611042573d6000803e3d6000fd5b505050506040513d601f19601f820116820180604052508101906110669190614b2b565b6110a5576040517f08c379a000000000000000000000000000000000000000000000000000000000815260040161109c90614ba4565b60405180910390fd5b5b600b5482600f60008673ffffffffffffffffffffffffffffffffffffffff1673ffffffffffffffffffffffffffffffffffffffff168152602001908152602001600020546110f4919061494d565b1115611135576040517f08c379a000000000000000000000000000000000000000000000000000000000815260040161112c90614c10565b60405180910390fd5b81600a54611143919061464b565b341015611185576040517f08c379a000000000000000000000000000000000000000000000000000000000815260040161117c90614c7c565b60405180910390fd5b60005b828110156112475760018580602001906111a291906148ea565b838181106111b3576111b2614c9c565b5b90506020020135146111fa576040517f08c379a00000000000000000000000000000000000000000000000000000000081526004016111f190614d17565b60405180910390fd5b600d600081548092919061120d90614d37565b9190505550600d5482828151811061122857611227614c9c565b5b602002602001018181525050808061123f90614d37565b915050611188565b50806040516112569190614e0f565b60405180910390208460000160208101906112719190614346565b73ffffffffffffffffffffffffffffffffffffffff167ffcedfad5335528f6891da1a7c502536cc084c4eb50c94825d3d2bb9e61a3bc30346040516112b691906138f0565b60405180910390a381600f60008573ffffffffffffffffffffffffffffffffffffffff1673ffffffffffffffffffffffffffffffffffffffff168152602001908152602001600020600082825461130d919061494d565b9250508190555061139084600001602081019061132a9190614346565b8286806020019061133b91906148ea565b80806020026020016040519081016040528093929190818152602001838360200280828437600081840152601f19601f82011690508083019250505050505050604051806020016040528060008152506122e8565b601160009054906101000a900473ffffffffffffffffffffffffffffffffffffffff1673ffffffffffffffffffffffffffffffffffffffff166108fc349081150290604051600060405180830381858888f193505050501580156113f8573d6000803e3d6000fd5b50505050600160068190555050565b600b5481565b611415611bba565b73ffffffffffffffffffffffffffffffffffffffff16611433611770565b73ffffffffffffffffffffffffffffffffffffffff1614611489576040517f08c379a0000000000000000000000000000000000000000000000000000000008152600401611480906143bf565b60405180910390fd5b611491612514565b565b61149b611bba565b73ffffffffffffffffffffffffffffffffffffffff166114b9611770565b73ffffffffffffffffffffffffffffffffffffffff161461150f576040517f08c379a0000000000000000000000000000000000000000000000000000000008152600401611506906143bf565b60405180910390fd5b80600960016101000a81548160ff02191690831515021790555050565b60608151835114611572576040517f08c379a000000000000000000000000000000000000000000000000000000000815260040161156990614e98565b60405180910390fd5b6000835167ffffffffffffffff81111561158f5761158e6139e1565b5b6040519080825280602002602001820160405280156115bd5781602001602082028036833780820191505090505b50905060005b845181101561163a5761160a8582815181106115e2576115e1614c9c565b5b60200260200101518583815181106115fd576115fc614c9c565b5b60200260200101516107dd565b82828151811061161d5761161c614c9c565b5b6020026020010181815250508061163390614d37565b90506115c3565b508091505092915050565b6000600560149054906101000a900460ff16905090565b600a5481565b61166a611bba565b73ffffffffffffffffffffffffffffffffffffffff16611688611770565b73ffffffffffffffffffffffffffffffffffffffff16146116de576040517f08c379a00000000000000000000000000000000000000000000000000000000081526004016116d5906143bf565b60405180910390fd5b6116e860006125b6565b565b6116f2611bba565b73ffffffffffffffffffffffffffffffffffffffff16611710611770565b73ffffffffffffffffffffffffffffffffffffffff1614611766576040517f08c379a000000000000000000000000000000000000000000000000000000000815260040161175d906143bf565b60405180910390fd5b61176e61267c565b565b6000600560009054906101000a900473ffffffffffffffffffffffffffffffffffffffff16905090565b600c5481565b6117b26117ab611bba565b838361271f565b5050565b6117be611bba565b73ffffffffffffffffffffffffffffffffffffffff166117dc611770565b73ffffffffffffffffffffffffffffffffffffffff1614611832576040517f08c379a0000000000000000000000000000000000000000000000000000000008152600401611829906143bf565b60405180910390fd5b80600b8190555050565b611844611bba565b73ffffffffffffffffffffffffffffffffffffffff16611862611770565b73ffffffffffffffffffffffffffffffffffffffff16146118b8576040517f08c379a00000000000000000000000000000000000000000000000000000000081526004016118af906143bf565b60405180910390fd5b80600960006101000a81548160ff02191690831515021790555050565b600960009054906101000a900460ff1681565b6118f0611bba565b73ffffffffffffffffffffffffffffffffffffffff1661190e611770565b73ffffffffffffffffffffffffffffffffffffffff1614611964576040517f08c379a000000000000000000000000000000000000000000000000000000000815260040161195b906143bf565b60405180910390fd5b80600c8190555050565b60606040518060a0016040528060628152602001615d5b60629139905090565b6000600160008473ffffffffffffffffffffffffffffffffffffffff1673ffffffffffffffffffffffffffffffffffffffff16815260200190815260200160002060008373ffffffffffffffffffffffffffffffffffffffff1673ffffffffffffffffffffffffffffffffffffffff16815260200190815260200160002060009054906101000a900460ff16905092915050565b611a2a611bba565b73ffffffffffffffffffffffffffffffffffffffff168573ffffffffffffffffffffffffffffffffffffffff161480611a705750611a6f85611a6a611bba565b61198e565b5b611aaf576040517f08c379a0000000000000000000000000000000000000000000000000000000008152600401611aa690614f2a565b60405180910390fd5b611abc858585858561288b565b5050505050565b611acb611bba565b73ffffffffffffffffffffffffffffffffffffffff16611ae9611770565b73ffffffffffffffffffffffffffffffffffffffff1614611b3f576040517f08c379a0000000000000000000000000000000000000000000000000000000008152600401611b36906143bf565b60405180910390fd5b600073ffffffffffffffffffffffffffffffffffffffff168173ffffffffffffffffffffffffffffffffffffffff1603611bae576040517f08c379a0000000000000000000000000000000000000000000000000000000008152600401611ba590614fbc565b60405180910390fd5b611bb7816125b6565b50565b600033905090565b60007f2a55205a000000000000000000000000000000000000000000000000000000007bffffffffffffffffffffffffffffffffffffffffffffffffffffffff1916827bffffffffffffffffffffffffffffffffffffffffffffffffffffffff19161480611c355750611c3482612b26565b5b9050919050565b8060029080519060200190611c52929190613729565b5050565b611c5e611f4b565b6bffffffffffffffffffffffff16816bffffffffffffffffffffffff161115611cbc576040517f08c379a0000000000000000000000000000000000000000000000000000000008152600401611cb39061504e565b60405180910390fd5b600073ffffffffffffffffffffffffffffffffffffffff168273ffffffffffffffffffffffffffffffffffffffff1603611d2b576040517f08c379a0000000000000000000000000000000000000000000000000000000008152600401611d22906150ba565b60405180910390fd5b60405180604001604052808373ffffffffffffffffffffffffffffffffffffffff168152602001826bffffffffffffffffffffffff16815250600360008201518160000160006101000a81548173ffffffffffffffffffffffffffffffffffffffff021916908373ffffffffffffffffffffffffffffffffffffffff16021790555060208201518160000160146101000a8154816bffffffffffffffffffffffff02191690836bffffffffffffffffffffffff1602179055509050505050565b606060008203611e32576040518060400160405280600181526020017f30000000000000000000000000000000000000000000000000000000000000008152509050611f46565b600082905060005b60008214611e64578080611e4d90614d37565b915050600a82611e5d91906146d4565b9150611e3a565b60008167ffffffffffffffff811115611e8057611e7f6139e1565b5b6040519080825280601f01601f191660200182016040528015611eb25781602001600182028036833780820191505090505b5090505b60008514611f3f57600182611ecb91906150da565b9150600a85611eda919061510e565b6030611ee6919061494d565b60f81b818381518110611efc57611efb614c9c565b5b60200101907effffffffffffffffffffffffffffffffffffffffffffffffffffffffffffff1916908160001a905350600a85611f3891906146d4565b9450611eb6565b8093505050505b919050565b6000612710905090565b8151835114611f99576040517f08c379a0000000000000000000000000000000000000000000000000000000008152600401611f90906151b1565b60405180910390fd5b600073ffffffffffffffffffffffffffffffffffffffff168473ffffffffffffffffffffffffffffffffffffffff1603612008576040517f08c379a0000000000000000000000000000000000000000000000000000000008152600401611fff90615243565b60405180910390fd5b6000612012611bba565b9050612022818787878787612c08565b60005b84518110156121d357600085828151811061204357612042614c9c565b5b60200260200101519050600085838151811061206257612061614c9c565b5b60200260200101519050600080600084815260200190815260200160002060008b73ffffffffffffffffffffffffffffffffffffffff1673ffffffffffffffffffffffffffffffffffffffff16815260200190815260200160002054905081811015612103576040517f08c379a00000000000000000000000000000000000000000000000000000000081526004016120fa906152d5565b60405180910390fd5b81810360008085815260200190815260200160002060008c73ffffffffffffffffffffffffffffffffffffffff1673ffffffffffffffffffffffffffffffffffffffff168152602001908152602001600020819055508160008085815260200190815260200160002060008b73ffffffffffffffffffffffffffffffffffffffff1673ffffffffffffffffffffffffffffffffffffffff16815260200190815260200160002060008282546121b8919061494d565b92505081905550505050806121cc90614d37565b9050612025565b508473ffffffffffffffffffffffffffffffffffffffff168673ffffffffffffffffffffffffffffffffffffffff168273ffffffffffffffffffffffffffffffffffffffff167f4a39dc06d4c0dbc64b70af90fd698a233a518aa5d07e595d983b8c0526c8f7fb878760405161224a9291906152f5565b60405180910390a4612260818787878787612c10565b61226e818787878787612c18565b505050505050565b60008061228283612def565b90506122e081848060600190612298919061532c565b8080601f016020809104026020016040519081016040528093929190818152602001838380828437600081840152601f19601f82011690508083019250505050505050612ecb565b915050919050565b600073ffffffffffffffffffffffffffffffffffffffff168473ffffffffffffffffffffffffffffffffffffffff1603612357576040517f08c379a000000000000000000000000000000000000000000000000000000000815260040161234e90615401565b60405180910390fd5b815183511461239b576040517f08c379a0000000000000000000000000000000000000000000000000000000008152600401612392906151b1565b60405180910390fd5b60006123a5611bba565b90506123b681600087878787612c08565b60005b845181101561246f578381815181106123d5576123d4614c9c565b5b60200260200101516000808784815181106123f3576123f2614c9c565b5b6020026020010151815260200190815260200160002060008873ffffffffffffffffffffffffffffffffffffffff1673ffffffffffffffffffffffffffffffffffffffff1681526020019081526020016000206000828254612455919061494d565b92505081905550808061246790614d37565b9150506123b9565b508473ffffffffffffffffffffffffffffffffffffffff16600073ffffffffffffffffffffffffffffffffffffffff168273ffffffffffffffffffffffffffffffffffffffff167f4a39dc06d4c0dbc64b70af90fd698a233a518aa5d07e595d983b8c0526c8f7fb87876040516124e79291906152f5565b60405180910390a46124fe81600087878787612c10565b61250d81600087878787612c18565b5050505050565b61251c611645565b61255b576040517f08c379a00000000000000000000000000000000000000000000000000000000081526004016125529061546d565b60405180910390fd5b6000600560146101000a81548160ff0219169083151502179055507f5db9ee0a495bf2e6ff9c91a7834c1ba4fdd244a5e8aa4e537bd38aeae4b073aa61259f611bba565b6040516125ac9190614214565b60405180910390a1565b6000600560009054906101000a900473ffffffffffffffffffffffffffffffffffffffff16905081600560006101000a81548173ffffffffffffffffffffffffffffffffffffffff021916908373ffffffffffffffffffffffffffffffffffffffff1602179055508173ffffffffffffffffffffffffffffffffffffffff168173ffffffffffffffffffffffffffffffffffffffff167f8be0079c531659141344cd1fd0a4f28419497f9722a3daafe3b4186f6b6457e060405160405180910390a35050565b612684611645565b156126c4576040517f08c379a00000000000000000000000000000000000000000000000000000000081526004016126bb906147e3565b60405180910390fd5b6001600560146101000a81548160ff0219169083151502179055507f62e78cea01bee320cd4e420270b5ea74000d11b0c9f74754ebdbfc544b05a258612708611bba565b6040516127159190614214565b60405180910390a1565b8173ffffffffffffffffffffffffffffffffffffffff168373ffffffffffffffffffffffffffffffffffffffff160361278d576040517f08c379a0000000000000000000000000000000000000000000000000000000008152600401612784906154ff565b60405180910390fd5b80600160008573ffffffffffffffffffffffffffffffffffffffff1673ffffffffffffffffffffffffffffffffffffffff16815260200190815260200160002060008473ffffffffffffffffffffffffffffffffffffffff1673ffffffffffffffffffffffffffffffffffffffff16815260200190815260200160002060006101000a81548160ff0219169083151502179055508173ffffffffffffffffffffffffffffffffffffffff168373ffffffffffffffffffffffffffffffffffffffff167f17307eab39ab6107e8899845ad3d59bd9653f200f220920489ca2b5937696c318360405161287e91906139ab565b60405180910390a3505050565b600073ffffffffffffffffffffffffffffffffffffffff168473ffffffffffffffffffffffffffffffffffffffff16036128fa576040517f08c379a00000000000000000000000000000000000000000000000000000000081526004016128f190615243565b60405180910390fd5b6000612904611bba565b9050600061291185612ef2565b9050600061291e85612ef2565b905061292e838989858589612c08565b600080600088815260200190815260200160002060008a73ffffffffffffffffffffffffffffffffffffffff1673ffffffffffffffffffffffffffffffffffffffff168152602001908152602001600020549050858110156129c5576040517f08c379a00000000000000000000000000000000000000000000000000000000081526004016129bc906152d5565b60405180910390fd5b85810360008089815260200190815260200160002060008b73ffffffffffffffffffffffffffffffffffffffff1673ffffffffffffffffffffffffffffffffffffffff168152602001908152602001600020819055508560008089815260200190815260200160002060008a73ffffffffffffffffffffffffffffffffffffffff1673ffffffffffffffffffffffffffffffffffffffff1681526020019081526020016000206000828254612a7a919061494d565b925050819055508773ffffffffffffffffffffffffffffffffffffffff168973ffffffffffffffffffffffffffffffffffffffff168573ffffffffffffffffffffffffffffffffffffffff167fc3d58168c5ae7397731d063d5bbf3d657854427343f4c083240f7aacaa2d0f628a8a604051612af792919061551f565b60405180910390a4612b0d848a8a86868a612c10565b612b1b848a8a8a8a8a612f6c565b505050505050505050565b60007fd9b67a26000000000000000000000000000000000000000000000000000000007bffffffffffffffffffffffffffffffffffffffffffffffffffffffff1916827bffffffffffffffffffffffffffffffffffffffffffffffffffffffff19161480612bf157507f0e89341c000000000000000000000000000000000000000000000000000000007bffffffffffffffffffffffffffffffffffffffffffffffffffffffff1916827bffffffffffffffffffffffffffffffffffffffffffffffffffffffff1916145b80612c015750612c0082613143565b5b9050919050565b505050505050565b505050505050565b612c378473ffffffffffffffffffffffffffffffffffffffff166131ad565b15612de7578373ffffffffffffffffffffffffffffffffffffffff1663bc197c8187878686866040518663ffffffff1660e01b8152600401612c7d95949392919061559d565b6020604051808303816000875af1925050508015612cb957506040513d601f19601f82011682018060405250810190612cb6919061561a565b60015b612d5e57612cc5615654565b806308c379a003612d215750612cd9615676565b80612ce45750612d23565b806040517f08c379a0000000000000000000000000000000000000000000000000000000008152600401612d189190613c61565b60405180910390fd5b505b6040517f08c379a0000000000000000000000000000000000000000000000000000000008152600401612d5590615778565b60405180910390fd5b63bc197c8160e01b7bffffffffffffffffffffffffffffffffffffffffffffffffffffffff1916817bffffffffffffffffffffffffffffffffffffffffffffffffffffffff191614612de5576040517f08c379a0000000000000000000000000000000000000000000000000000000008152600401612ddc9061580a565b60405180910390fd5b505b505050505050565b6000612ec47f798f2fc7cec67eb8a3e992f2d864cc1f56f87a6e9130d64fe2b2d7693eca2d2b836000016020810190612e289190614346565b848060200190612e3891906148ea565b604051602001612e49929190615886565b60405160208183030381529060405280519060200120858060400190612e6f9190614a0f565b604051602001612e80929190615906565b60405160208183030381529060405280519060200120604051602001612ea99493929190615938565b604051602081830303815290604052805190602001206131d0565b9050919050565b6000806000612eda85856131ea565b91509150612ee78161326b565b819250505092915050565b60606000600167ffffffffffffffff811115612f1157612f106139e1565b5b604051908082528060200260200182016040528015612f3f5781602001602082028036833780820191505090505b5090508281600081518110612f5757612f56614c9c565b5b60200260200101818152505080915050919050565b612f8b8473ffffffffffffffffffffffffffffffffffffffff166131ad565b1561313b578373ffffffffffffffffffffffffffffffffffffffff1663f23a6e6187878686866040518663ffffffff1660e01b8152600401612fd195949392919061597d565b6020604051808303816000875af192505050801561300d57506040513d601f19601f8201168201806040525081019061300a919061561a565b60015b6130b257613019615654565b806308c379a003613075575061302d615676565b806130385750613077565b806040517f08c379a000000000000000000000000000000000000000000000000000000000815260040161306c9190613c61565b60405180910390fd5b505b6040517f08c379a00000000000000000000000000000000000000000000000000000000081526004016130a990615778565b60405180910390fd5b63f23a6e6160e01b7bffffffffffffffffffffffffffffffffffffffffffffffffffffffff1916817bffffffffffffffffffffffffffffffffffffffffffffffffffffffff191614613139576040517f08c379a00000000000000000000000000000000000000000000000000000000081526004016131309061580a565b60405180910390fd5b505b505050505050565b60007f01ffc9a7000000000000000000000000000000000000000000000000000000007bffffffffffffffffffffffffffffffffffffffffffffffffffffffff1916827bffffffffffffffffffffffffffffffffffffffffffffffffffffffff1916149050919050565b6000808273ffffffffffffffffffffffffffffffffffffffff163b119050919050565b60006131e36131dd613437565b83613551565b9050919050565b600080604183510361322b5760008060006020860151925060408601519150606086015160001a905061321f87828585613584565b94509450505050613264565b604083510361325b576000806020850151915060408501519050613250868383613690565b935093505050613264565b60006002915091505b9250929050565b6000600481111561327f5761327e6159d7565b5b816004811115613292576132916159d7565b5b031561343457600160048111156132ac576132ab6159d7565b5b8160048111156132bf576132be6159d7565b5b036132ff576040517f08c379a00000000000000000000000000000000000000000000000000000000081526004016132f690615a52565b60405180910390fd5b60026004811115613313576133126159d7565b5b816004811115613326576133256159d7565b5b03613366576040517f08c379a000000000000000000000000000000000000000000000000000000000815260040161335d90615abe565b60405180910390fd5b6003600481111561337a576133796159d7565b5b81600481111561338d5761338c6159d7565b5b036133cd576040517f08c379a00000000000000000000000000000000000000000000000000000000081526004016133c490615b50565b60405180910390fd5b6004808111156133e0576133df6159d7565b5b8160048111156133f3576133f26159d7565b5b03613433576040517f08c379a000000000000000000000000000000000000000000000000000000000815260040161342a90615be2565b60405180910390fd5b5b50565b60007f000000000000000000000000000000000000000000000000000000000000000073ffffffffffffffffffffffffffffffffffffffff163073ffffffffffffffffffffffffffffffffffffffff161480156134b357507f000000000000000000000000000000000000000000000000000000000000000046145b156134e0577f0000000000000000000000000000000000000000000000000000000000000000905061354e565b61354b7f00000000000000000000000000000000000000000000000000000000000000007f00000000000000000000000000000000000000000000000000000000000000007f00000000000000000000000000000000000000000000000000000000000000006136ef565b90505b90565b60008282604051602001613566929190615c6f565b60405160208183030381529060405280519060200120905092915050565b6000807f7fffffffffffffffffffffffffffffff5d576e7357a4501ddfe92f46681b20a08360001c11156135bf576000600391509150613687565b601b8560ff16141580156135d75750601c8560ff1614155b156135e9576000600491509150613687565b60006001878787876040516000815260200160405260405161360e9493929190615cc2565b6020604051602081039080840390855afa158015613630573d6000803e3d6000fd5b505050602060405103519050600073ffffffffffffffffffffffffffffffffffffffff168173ffffffffffffffffffffffffffffffffffffffff160361367e57600060019250925050613687565b80600092509250505b94509492505050565b60008060007f7fffffffffffffffffffffffffffffffffffffffffffffffffffffffffffffff60001b841690506000601b60ff8660001c901c6136d3919061494d565b90506136e187828885613584565b935093505050935093915050565b6000838383463060405160200161370a959493929190615d07565b6040516020818303038152906040528051906020012090509392505050565b828054613735906144a0565b90600052602060002090601f016020900481019282613757576000855561379e565b82601f1061377057805160ff191683800117855561379e565b8280016001018555821561379e579182015b8281111561379d578251825591602001919060010190613782565b5b5090506137ab91906137af565b5090565b5b808211156137c85760008160009055506001016137b0565b5090565b6000604051905090565b600080fd5b600080fd5b6000819050919050565b6137f3816137e0565b81146137fe57600080fd5b50565b600081359050613810816137ea565b92915050565b60006020828403121561382c5761382b6137d6565b5b600061383a84828501613801565b91505092915050565b600073ffffffffffffffffffffffffffffffffffffffff82169050919050565b600061386e82613843565b9050919050565b61387e81613863565b811461388957600080fd5b50565b60008135905061389b81613875565b92915050565b600080604083850312156138b8576138b76137d6565b5b60006138c68582860161388c565b92505060206138d785828601613801565b9150509250929050565b6138ea816137e0565b82525050565b600060208201905061390560008301846138e1565b92915050565b60007fffffffff0000000000000000000000000000000000000000000000000000000082169050919050565b6139408161390b565b811461394b57600080fd5b50565b60008135905061395d81613937565b92915050565b600060208284031215613979576139786137d6565b5b60006139878482850161394e565b91505092915050565b60008115159050919050565b6139a581613990565b82525050565b60006020820190506139c0600083018461399c565b92915050565b600080fd5b600080fd5b6000601f19601f8301169050919050565b7f4e487b7100000000000000000000000000000000000000000000000000000000600052604160045260246000fd5b613a19826139d0565b810181811067ffffffffffffffff82111715613a3857613a376139e1565b5b80604052505050565b6000613a4b6137cc565b9050613a578282613a10565b919050565b600067ffffffffffffffff821115613a7757613a766139e1565b5b613a80826139d0565b9050602081019050919050565b82818337600083830152505050565b6000613aaf613aaa84613a5c565b613a41565b905082815260208101848484011115613acb57613aca6139cb565b5b613ad6848285613a8d565b509392505050565b600082601f830112613af357613af26139c6565b5b8135613b03848260208601613a9c565b91505092915050565b600060208284031215613b2257613b216137d6565b5b600082013567ffffffffffffffff811115613b4057613b3f6137db565b5b613b4c84828501613ade565b91505092915050565b60006bffffffffffffffffffffffff82169050919050565b613b7681613b55565b8114613b8157600080fd5b50565b600081359050613b9381613b6d565b92915050565b60008060408385031215613bb057613baf6137d6565b5b6000613bbe8582860161388c565b9250506020613bcf85828601613b84565b9150509250929050565b600081519050919050565b600082825260208201905092915050565b60005b83811015613c13578082015181840152602081019050613bf8565b83811115613c22576000848401525b50505050565b6000613c3382613bd9565b613c3d8185613be4565b9350613c4d818560208601613bf5565b613c56816139d0565b840191505092915050565b60006020820190508181036000830152613c7b8184613c28565b905092915050565b60008060408385031215613c9a57613c996137d6565b5b6000613ca885828601613801565b9250506020613cb985828601613801565b9150509250929050565b613ccc81613863565b82525050565b6000604082019050613ce76000830185613cc3565b613cf460208301846138e1565b9392505050565b600067ffffffffffffffff821115613d1657613d156139e1565b5b602082029050602081019050919050565b600080fd5b6000613d3f613d3a84613cfb565b613a41565b90508083825260208201905060208402830185811115613d6257613d61613d27565b5b835b81811015613d8b5780613d778882613801565b845260208401935050602081019050613d64565b5050509392505050565b600082601f830112613daa57613da96139c6565b5b8135613dba848260208601613d2c565b91505092915050565b600067ffffffffffffffff821115613dde57613ddd6139e1565b5b613de7826139d0565b9050602081019050919050565b6000613e07613e0284613dc3565b613a41565b905082815260208101848484011115613e2357613e226139cb565b5b613e2e848285613a8d565b509392505050565b600082601f830112613e4b57613e4a6139c6565b5b8135613e5b848260208601613df4565b91505092915050565b600080600080600060a08688031215613e8057613e7f6137d6565b5b6000613e8e8882890161388c565b9550506020613e9f8882890161388c565b945050604086013567ffffffffffffffff811115613ec057613ebf6137db565b5b613ecc88828901613d95565b935050606086013567ffffffffffffffff811115613eed57613eec6137db565b5b613ef988828901613d95565b925050608086013567ffffffffffffffff811115613f1a57613f196137db565b5b613f2688828901613e36565b9150509295509295909350565b600080fd5b600060808284031215613f4e57613f4d613f33565b5b81905092915050565b600060208284031215613f6d57613f6c6137d6565b5b600082013567ffffffffffffffff811115613f8b57613f8a6137db565b5b613f9784828501613f38565b91505092915050565b613fa981613990565b8114613fb457600080fd5b50565b600081359050613fc681613fa0565b92915050565b600060208284031215613fe257613fe16137d6565b5b6000613ff084828501613fb7565b91505092915050565b600067ffffffffffffffff821115614014576140136139e1565b5b602082029050602081019050919050565b600061403861403384613ff9565b613a41565b9050808382526020820190506020840283018581111561405b5761405a613d27565b5b835b818110156140845780614070888261388c565b84526020840193505060208101905061405d565b5050509392505050565b600082601f8301126140a3576140a26139c6565b5b81356140b3848260208601614025565b91505092915050565b600080604083850312156140d3576140d26137d6565b5b600083013567ffffffffffffffff8111156140f1576140f06137db565b5b6140fd8582860161408e565b925050602083013567ffffffffffffffff81111561411e5761411d6137db565b5b61412a85828601613d95565b9150509250929050565b600081519050919050565b600082825260208201905092915050565b6000819050602082019050919050565b614169816137e0565b82525050565b600061417b8383614160565b60208301905092915050565b6000602082019050919050565b600061419f82614134565b6141a9818561413f565b93506141b483614150565b8060005b838110156141e55781516141cc888261416f565b97506141d783614187565b9250506001810190506141b8565b5085935050505092915050565b6000602082019050818103600083015261420c8184614194565b905092915050565b60006020820190506142296000830184613cc3565b92915050565b60008060408385031215614246576142456137d6565b5b60006142548582860161388c565b925050602061426585828601613fb7565b9150509250929050565b60008060408385031215614286576142856137d6565b5b60006142948582860161388c565b92505060206142a58582860161388c565b9150509250929050565b600080600080600060a086880312156142cb576142ca6137d6565b5b60006142d98882890161388c565b95505060206142ea8882890161388c565b94505060406142fb88828901613801565b935050606061430c88828901613801565b925050608086013567ffffffffffffffff81111561432d5761432c6137db565b5b61433988828901613e36565b9150509295509295909350565b60006020828403121561435c5761435b6137d6565b5b600061436a8482850161388c565b91505092915050565b7f4f776e61626c653a2063616c6c6572206973206e6f7420746865206f776e6572600082015250565b60006143a9602083613be4565b91506143b482614373565b602082019050919050565b600060208201905081810360008301526143d88161439c565b9050919050565b7f455243313135353a2062616c616e636520717565727920666f7220746865207a60008201527f65726f2061646472657373000000000000000000000000000000000000000000602082015250565b600061443b602b83613be4565b9150614446826143df565b604082019050919050565b6000602082019050818103600083015261446a8161442e565b9050919050565b7f4e487b7100000000000000000000000000000000000000000000000000000000600052602260045260246000fd5b600060028204905060018216806144b857607f821691505b6020821081036144cb576144ca614471565b5b50919050565b600081905092915050565b60008190508160005260206000209050919050565b600081546144fe816144a0565b61450881866144d1565b94506001821660008114614523576001811461453457614567565b60ff19831686528186019350614567565b61453d856144dc565b60005b8381101561455f57815481890152600182019150602081019050614540565b838801955050505b50505092915050565b600061457b82613bd9565b61458581856144d1565b9350614595818560208601613bf5565b80840191505092915050565b7f2e6a736f6e000000000000000000000000000000000000000000000000000000600082015250565b60006145d76005836144d1565b91506145e2826145a1565b600582019050919050565b60006145f982856144f1565b91506146058284614570565b9150614610826145ca565b91508190509392505050565b7f4e487b7100000000000000000000000000000000000000000000000000000000600052601160045260246000fd5b6000614656826137e0565b9150614661836137e0565b9250817fffffffffffffffffffffffffffffffffffffffffffffffffffffffffffffffff048311821515161561469a5761469961461c565b5b828202905092915050565b7f4e487b7100000000000000000000000000000000000000000000000000000000600052601260045260246000fd5b60006146df826137e0565b91506146ea836137e0565b9250826146fa576146f96146a5565b5b828204905092915050565b7f455243313135353a207472616e736665722063616c6c6572206973206e6f742060008201527f6f776e6572206e6f7220617070726f7665640000000000000000000000000000602082015250565b6000614761603283613be4565b915061476c82614705565b604082019050919050565b6000602082019050818103600083015261479081614754565b9050919050565b7f5061757361626c653a2070617573656400000000000000000000000000000000600082015250565b60006147cd601083613be4565b91506147d882614797565b602082019050919050565b600060208201905081810360008301526147fc816147c0565b9050919050565b7f5265656e7472616e637947756172643a207265656e7472616e742063616c6c00600082015250565b6000614839601f83613be4565b915061484482614803565b602082019050919050565b600060208201905081810360008301526148688161482c565b9050919050565b7f566572696669636174696f6e204661696c656400000000000000000000000000600082015250565b60006148a5601383613be4565b91506148b08261486f565b602082019050919050565b600060208201905081810360008301526148d481614898565b9050919050565b600080fd5b600080fd5b600080fd5b60008083356001602003843603038112614907576149066148db565b5b80840192508235915067ffffffffffffffff821115614929576149286148e0565b5b602083019250602082023603831315614945576149446148e5565b5b509250929050565b6000614958826137e0565b9150614963836137e0565b9250827fffffffffffffffffffffffffffffffffffffffffffffffffffffffffffffffff038211156149985761499761461c565b5b828201905092915050565b7f536f6c64204f7574000000000000000000000000000000000000000000000000600082015250565b60006149d9600883613be4565b91506149e4826149a3565b602082019050919050565b60006020820190508181036000830152614a08816149cc565b9050919050565b60008083356001602003843603038112614a2c57614a2b6148db565b5b80840192508235915067ffffffffffffffff821115614a4e57614a4d6148e0565b5b602083019250602082023603831315614a6a57614a696148e5565b5b509250929050565b600082825260208201905092915050565b600080fd5b6000614a948385614a72565b93507f07ffffffffffffffffffffffffffffffffffffffffffffffffffffffffffffff831115614ac757614ac6614a83565b5b602083029250614ad8838584613a8d565b82840190509392505050565b60006040820190508181036000830152614aff818587614a88565b9050614b0e6020830184613cc3565b949350505050565b600081519050614b2581613fa0565b92915050565b600060208284031215614b4157614b406137d6565b5b6000614b4f84828501614b16565b91505092915050565b7f4e6f742057686974656c69737465640000000000000000000000000000000000600082015250565b6000614b8e600f83613be4565b9150614b9982614b58565b602082019050919050565b60006020820190508181036000830152614bbd81614b81565b9050919050565b7f41646472657373206d696e74206c696d69742072656163686564000000000000600082015250565b6000614bfa601a83613be4565b9150614c0582614bc4565b602082019050919050565b60006020820190508181036000830152614c2981614bed565b9050919050565b7f496e73756666696369656e742066756e64730000000000000000000000000000600082015250565b6000614c66601283613be4565b9150614c7182614c30565b602082019050919050565b60006020820190508181036000830152614c9581614c59565b9050919050565b7f4e487b7100000000000000000000000000000000000000000000000000000000600052603260045260246000fd5b7f496e76616c696420616d6f756e74732061727261790000000000000000000000600082015250565b6000614d01601583613be4565b9150614d0c82614ccb565b602082019050919050565b60006020820190508181036000830152614d3081614cf4565b9050919050565b6000614d42826137e0565b91507fffffffffffffffffffffffffffffffffffffffffffffffffffffffffffffffff8203614d7457614d7361461c565b5b600182019050919050565b600081905092915050565b614d93816137e0565b82525050565b6000614da58383614d8a565b60208301905092915050565b6000614dbc82614134565b614dc68185614d7f565b9350614dd183614150565b8060005b83811015614e02578151614de98882614d99565b9750614df483614187565b925050600181019050614dd5565b5085935050505092915050565b6000614e1b8284614db1565b915081905092915050565b7f455243313135353a206163636f756e747320616e6420696473206c656e67746860008201527f206d69736d617463680000000000000000000000000000000000000000000000602082015250565b6000614e82602983613be4565b9150614e8d82614e26565b604082019050919050565b60006020820190508181036000830152614eb181614e75565b9050919050565b7f455243313135353a2063616c6c6572206973206e6f74206f776e6572206e6f7260008201527f20617070726f7665640000000000000000000000000000000000000000000000602082015250565b6000614f14602983613be4565b9150614f1f82614eb8565b604082019050919050565b60006020820190508181036000830152614f4381614f07565b9050919050565b7f4f776e61626c653a206e6577206f776e657220697320746865207a65726f206160008201527f6464726573730000000000000000000000000000000000000000000000000000602082015250565b6000614fa6602683613be4565b9150614fb182614f4a565b604082019050919050565b60006020820190508181036000830152614fd581614f99565b9050919050565b7f455243323938313a20726f79616c7479206665652077696c6c2065786365656460008201527f2073616c65507269636500000000000000000000000000000000000000000000602082015250565b6000615038602a83613be4565b915061504382614fdc565b604082019050919050565b600060208201905081810360008301526150678161502b565b9050919050565b7f455243323938313a20696e76616c696420726563656976657200000000000000600082015250565b60006150a4601983613be4565b91506150af8261506e565b602082019050919050565b600060208201905081810360008301526150d381615097565b9050919050565b60006150e5826137e0565b91506150f0836137e0565b9250828210156151035761510261461c565b5b828203905092915050565b6000615119826137e0565b9150615124836137e0565b925082615134576151336146a5565b5b828206905092915050565b7f455243313135353a2069647320616e6420616d6f756e7473206c656e6774682060008201527f6d69736d61746368000000000000000000000000000000000000000000000000602082015250565b600061519b602883613be4565b91506151a68261513f565b604082019050919050565b600060208201905081810360008301526151ca8161518e565b9050919050565b7f455243313135353a207472616e7366657220746f20746865207a65726f20616460008201527f6472657373000000000000000000000000000000000000000000000000000000602082015250565b600061522d602583613be4565b9150615238826151d1565b604082019050919050565b6000602082019050818103600083015261525c81615220565b9050919050565b7f455243313135353a20696e73756666696369656e742062616c616e636520666f60008201527f72207472616e7366657200000000000000000000000000000000000000000000602082015250565b60006152bf602a83613be4565b91506152ca82615263565b604082019050919050565b600060208201905081810360008301526152ee816152b2565b9050919050565b6000604082019050818103600083015261530f8185614194565b905081810360208301526153238184614194565b90509392505050565b60008083356001602003843603038112615349576153486148db565b5b80840192508235915067ffffffffffffffff82111561536b5761536a6148e0565b5b602083019250600182023603831315615387576153866148e5565b5b509250929050565b7f455243313135353a206d696e7420746f20746865207a65726f2061646472657360008201527f7300000000000000000000000000000000000000000000000000000000000000602082015250565b60006153eb602183613be4565b91506153f68261538f565b604082019050919050565b6000602082019050818103600083015261541a816153de565b9050919050565b7f5061757361626c653a206e6f7420706175736564000000000000000000000000600082015250565b6000615457601483613be4565b915061546282615421565b602082019050919050565b600060208201905081810360008301526154868161544a565b9050919050565b7f455243313135353a2073657474696e6720617070726f76616c2073746174757360008201527f20666f722073656c660000000000000000000000000000000000000000000000602082015250565b60006154e9602983613be4565b91506154f48261548d565b604082019050919050565b60006020820190508181036000830152615518816154dc565b9050919050565b600060408201905061553460008301856138e1565b61554160208301846138e1565b9392505050565b600081519050919050565b600082825260208201905092915050565b600061556f82615548565b6155798185615553565b9350615589818560208601613bf5565b615592816139d0565b840191505092915050565b600060a0820190506155b26000830188613cc3565b6155bf6020830187613cc3565b81810360408301526155d18186614194565b905081810360608301526155e58185614194565b905081810360808301526155f98184615564565b90509695505050505050565b60008151905061561481613937565b92915050565b6000602082840312156156305761562f6137d6565b5b600061563e84828501615605565b91505092915050565b60008160e01c9050919050565b600060033d11156156735760046000803e615670600051615647565b90505b90565b600060443d10615703576156886137cc565b60043d036004823e80513d602482011167ffffffffffffffff821117156156b0575050615703565b808201805167ffffffffffffffff8111156156ce5750505050615703565b80602083010160043d0385018111156156eb575050505050615703565b6156fa82602001850186613a10565b82955050505050505b90565b7f455243313135353a207472616e7366657220746f206e6f6e204552433131353560008201527f526563656976657220696d706c656d656e746572000000000000000000000000602082015250565b6000615762603483613be4565b915061576d82615706565b604082019050919050565b6000602082019050818103600083015261579181615755565b9050919050565b7f455243313135353a204552433131353552656365697665722072656a6563746560008201527f6420746f6b656e73000000000000000000000000000000000000000000000000602082015250565b60006157f4602883613be4565b91506157ff82615798565b604082019050919050565b60006020820190508181036000830152615823816157e7565b9050919050565b60006158368385614d7f565b93507f07ffffffffffffffffffffffffffffffffffffffffffffffffffffffffffffff83111561586957615868614a83565b5b60208302925061587a838584613a8d565b82840190509392505050565b600061589382848661582a565b91508190509392505050565b600081905092915050565b60006158b6838561589f565b93507f07ffffffffffffffffffffffffffffffffffffffffffffffffffffffffffffff8311156158e9576158e8614a83565b5b6020830292506158fa838584613a8d565b82840190509392505050565b60006159138284866158aa565b91508190509392505050565b6000819050919050565b6159328161591f565b82525050565b600060808201905061594d6000830187615929565b61595a6020830186613cc3565b6159676040830185615929565b6159746060830184615929565b95945050505050565b600060a0820190506159926000830188613cc3565b61599f6020830187613cc3565b6159ac60408301866138e1565b6159b960608301856138e1565b81810360808301526159cb8184615564565b90509695505050505050565b7f4e487b7100000000000000000000000000000000000000000000000000000000600052602160045260246000fd5b7f45434453413a20696e76616c6964207369676e61747572650000000000000000600082015250565b6000615a3c601883613be4565b9150615a4782615a06565b602082019050919050565b60006020820190508181036000830152615a6b81615a2f565b9050919050565b7f45434453413a20696e76616c6964207369676e6174757265206c656e67746800600082015250565b6000615aa8601f83613be4565b9150615ab382615a72565b602082019050919050565b60006020820190508181036000830152615ad781615a9b565b9050919050565b7f45434453413a20696e76616c6964207369676e6174757265202773272076616c60008201527f7565000000000000000000000000000000000000000000000000000000000000602082015250565b6000615b3a602283613be4565b9150615b4582615ade565b604082019050919050565b60006020820190508181036000830152615b6981615b2d565b9050919050565b7f45434453413a20696e76616c6964207369676e6174757265202776272076616c60008201527f7565000000000000000000000000000000000000000000000000000000000000602082015250565b6000615bcc602283613be4565b9150615bd782615b70565b604082019050919050565b60006020820190508181036000830152615bfb81615bbf565b9050919050565b7f1901000000000000000000000000000000000000000000000000000000000000600082015250565b6000615c386002836144d1565b9150615c4382615c02565b600282019050919050565b6000819050919050565b615c69615c648261591f565b615c4e565b82525050565b6000615c7a82615c2b565b9150615c868285615c58565b602082019150615c968284615c58565b6020820191508190509392505050565b600060ff82169050919050565b615cbc81615ca6565b82525050565b6000608082019050615cd76000830187615929565b615ce46020830186615cb3565b615cf16040830185615929565b615cfe6060830184615929565b95945050505050565b600060a082019050615d1c6000830188615929565b615d296020830187615929565b615d366040830186615929565b615d4360608301856138e1565b615d506080830184613cc3565b969550505050505056fe68747470733a2f2f697066732e696f2f697066732f516d5838773245507a46686235755a396a383756356e5650565636546f31624e4c63454b5a4a7279364e7a7348623f66696c656e616d653d4861636869436f6e74726163745552492e6a736f6ea26469706673582212200df4324e608045cf6010420f0dfdf705ce6c0cf3aaf63d3b0052668a91e1428c64736f6c634300080d0033697066733a2f2f516d5136745a686138724d524531536a64666a5747445a6955727a5063526678784553444875514142625a4453383f",
  "immutableReferences": {
    "3623": [
      {
        "length": 32,
        "start": 13498
      }
    ],
    "3625": [
      {
        "length": 32,
        "start": 13457
      }
    ],
    "3627": [
      {
        "length": 32,
        "start": 13371
      }
    ],
    "3629": [
      {
        "length": 32,
        "start": 13574
      }
    ],
    "3631": [
      {
        "length": 32,
        "start": 13607
      }
    ],
    "3633": [
      {
        "length": 32,
        "start": 13541
      }
    ]
  },
  "source": "// SPDX-License-Identifier: MIT\n\npragma solidity ^0.8.11;\n\n// import \"./HACHILibrary.sol\";\n// import \"./HACHIVerifySigner.sol\";\nimport \"./HACHIWhitelist.sol\";\nimport \"./HACHIWallet.sol\";\nimport \"@openzeppelin/contracts/token/common/ERC2981.sol\";\nimport \"@openzeppelin/contracts/utils/Strings.sol\";\nimport \"@openzeppelin/contracts/token/ERC1155/ERC1155.sol\";\nimport \"@openzeppelin/contracts/access/Ownable.sol\";\nimport \"@openzeppelin/contracts/security/Pausable.sol\";\nimport \"@openzeppelin/contracts/security/ReentrancyGuard.sol\";\nimport \"@openzeppelin/contracts/utils/cryptography/ECDSA.sol\";\nimport \"@openzeppelin/contracts/utils/cryptography/draft-EIP712.sol\";\n\n//HachiNFT\ncontract HACHINFT is ERC1155, EIP712, ERC2981, Ownable, Pausable, ReentrancyGuard {\n    string private hachiGenericMetaDataURI = \"ipfs://QmQ6tZha8rMRE1SjdfjWGDZiUrzPcRfxxESDHuQABbZDS8?\";\n    string private hachiIPFSMetaDataURI;\n    string private constant SIGNING_DOMAIN = \"HachiNftSig\";\n    string private constant SIGNATURE_VERSION = \"1\";\n\n    bool public metaDataReveal;\n    bool public publicMint;\n\n    uint public mintPrice = 0.1 ether;\n    uint public addressMintLimit = 3;\n    uint public mintLimit = 8000;\n    uint private tokenIndex = 0;\n\n    mapping(uint256 => uint256) private control;\n    mapping(address => uint256) private numberMinted;\n\n    struct HachiTicket {\n        address to;\n        uint256[]  amounts;\n        bytes32[]  merkleProof;\n        bytes  signature;\n    }\n\n    HachiWhitelist whtlst;\n    HachiWallet wllt;\n    \n    event Mint(address indexed to, uint256[] indexed id, uint256 _value);\n\n    constructor(\n        string memory _ipfs,\n        HachiWhitelist _whtlst,\n        HachiWallet _wllt\n        )\n        ERC1155(hachiGenericMetaDataURI)\n        EIP712(SIGNING_DOMAIN, SIGNATURE_VERSION) {\n            hachiIPFSMetaDataURI = _ipfs; \n            whtlst = _whtlst;\n            wllt = _wllt;\n            setDefaultRoyalty(address(_wllt), 300);\n            _pause();\n    }\n\n    receive() external payable {\n        payable(wllt).transfer(msg.value);\n    }\n\n    function contractURI() public pure returns (string memory) {\n        return \"https://ipfs.io/ipfs/QmX8w2EPzFhb5uZ9j87V5nVPVV6To1bNLcEKZJry6NzsHb?filename=HachiContractURI.json\";\n    }\n\n    function uri(uint256 tokenId) override public view returns (string memory) {\n\n        if (!metaDataReveal)\n            return hachiGenericMetaDataURI;\n\n        return(string(abi.encodePacked(hachiIPFSMetaDataURI, Strings.toString(tokenId),\".json\")));\n    }\n\n    function setGenericMeta(string memory sampleURI) public onlyOwner {\n        hachiGenericMetaDataURI = sampleURI;\n    }\n\n    function setMetaDataReveal(bool _reveal) public onlyOwner {\n        metaDataReveal = _reveal;\n    }\n\n    function mintHachi(HachiTicket calldata _ticket) public whenNotPaused nonReentrant payable  {\n        address _signer = verifySigner(_ticket);\n        require(msg.sender == _signer, \"Verification Failed\");\n        uint _length = _ticket.amounts.length;\n        uint[] memory _tokenId = _ticket.amounts;\n\n        require(tokenIndex + _length <= mintLimit, \"Sold Out\");\n        if(!publicMint) {\n            require(whtlst.verifyWhitelist(_ticket.merkleProof, _signer), \"Not Whitelisted\");\n        }\n        require(numberMinted[_signer] + _length <= addressMintLimit, \"Address mint limit reached\");\n        require(msg.value >= mintPrice*_length, \"Insufficient funds\");\n        for(uint i=0; i<_length; i++){\n            require(_ticket.amounts[i] == 1, \"Invalid amounts array\");\n            tokenIndex ++;\n            _tokenId[i] = tokenIndex;\n        }\n\n        emit Mint(_ticket.to, _tokenId, msg.value);\n        numberMinted[_signer] += _length;\n\n        _mintBatch(_ticket.to, _tokenId, _ticket.amounts, \"\");\n\n        payable(wllt).transfer(msg.value);\n    }\n\n    function verifySigner(HachiTicket calldata _ticket) internal view returns (address) {\n        bytes32 digest = _hash(_ticket);\n        return ECDSA.recover(digest, _ticket.signature);\n    }\n\n    function _hash(HachiTicket calldata _ticket) internal view returns (bytes32) {\n        return _hashTypedDataV4(keccak256(abi.encode(\n            keccak256(\"HachiTicket(address to,uint256[] amounts,bytes32[] merkleProof)\"),\n            _ticket.to,\n            keccak256(abi.encodePacked(_ticket.amounts)),\n            keccak256(abi.encodePacked(_ticket.merkleProof))\n        )));\n    }\n\n    // function deleteDefaultRoyalty() public onlyOwner {\n    //     _deleteDefaultRoyalty();\n    // }\n\n    function setDefaultRoyalty(address receiver, uint96 feeNumerator) public onlyOwner {\n        _setDefaultRoyalty(receiver, feeNumerator);\n    }\n\n    // function setTokenRoyalty(uint256 tokenId, address receiver, uint96 feeNumerator) public onlyOwner {\n    //     _setTokenRoyalty(tokenId, receiver, feeNumerator);\n    // }\n\n    // function resetTokenRoyalty(uint256 tokenId) public onlyOwner {\n    //     _resetTokenRoyalty(tokenId);\n    // }\n\n    function updateMintLimit(uint _limit) public onlyOwner {\n        mintLimit = _limit;\n    }\n\n    function updateMintPrice(uint _price) public onlyOwner {\n        mintPrice = _price;\n    }\n\n    function updateAddressMintLimit(uint _limit) public onlyOwner {\n        addressMintLimit = _limit;\n    }\n\n    function setURI(string memory newuri) public onlyOwner {\n        _setURI(newuri);\n    }\n\n    function updatePublicMint(bool _publicMint) public onlyOwner {\n        publicMint = _publicMint;\n    }\n\n    function pause() public onlyOwner {\n        _pause();\n    }\n\n    function unpause() public onlyOwner {\n        _unpause();\n    }\n\n    function supportsInterface(bytes4 interfaceId)\n        public\n        view\n        override(ERC1155, ERC2981)\n        returns (bool)\n    {\n        return super.supportsInterface(interfaceId);\n    }\n}",
  "sourcePath": "/Users/bryantbackus/Documents/ABackusCryptoDynasty/Projects/HachiNFT/contracts/HACHINFT.sol",
  "compiler": {
    "name": "solc",
    "version": "0.8.13+commit.abaa5c0e.Emscripten.clang"
  },
  "schemaVersion": "3.4.7",
  "updatedAt": "2022-06-23T00:09:34.531Z",
  "networkType": "ethereum",
  "devdoc": {
    "kind": "dev",
    "methods": {
      "balanceOf(address,uint256)": {
        "details": "See {IERC1155-balanceOf}. Requirements: - `account` cannot be the zero address."
      },
      "balanceOfBatch(address[],uint256[])": {
        "details": "See {IERC1155-balanceOfBatch}. Requirements: - `accounts` and `ids` must have the same length."
      },
      "isApprovedForAll(address,address)": {
        "details": "See {IERC1155-isApprovedForAll}."
      },
      "owner()": {
        "details": "Returns the address of the current owner."
      },
      "paused()": {
        "details": "Returns true if the contract is paused, and false otherwise."
      },
      "renounceOwnership()": {
        "details": "Leaves the contract without owner. It will not be possible to call `onlyOwner` functions anymore. Can only be called by the current owner. NOTE: Renouncing ownership will leave the contract without an owner, thereby removing any functionality that is only available to the owner."
      },
      "royaltyInfo(uint256,uint256)": {
        "details": "Returns how much royalty is owed and to whom, based on a sale price that may be denominated in any unit of exchange. The royalty amount is denominated and should be paid in that same unit of exchange."
      },
      "safeBatchTransferFrom(address,address,uint256[],uint256[],bytes)": {
        "details": "See {IERC1155-safeBatchTransferFrom}."
      },
      "safeTransferFrom(address,address,uint256,uint256,bytes)": {
        "details": "See {IERC1155-safeTransferFrom}."
      },
      "setApprovalForAll(address,bool)": {
        "details": "See {IERC1155-setApprovalForAll}."
      },
      "transferOwnership(address)": {
        "details": "Transfers ownership of the contract to a new account (`newOwner`). Can only be called by the current owner."
      }
    },
    "version": 1
  },
  "userdoc": {
    "kind": "user",
    "methods": {},
    "version": 1
  }
}