{
  "contractName": "HachiWallet",
  "abi": [
    {
      "inputs": [
        {
          "internalType": "address[]",
          "name": "_address",
          "type": "address[]"
        },
        {
          "internalType": "uint256[]",
          "name": "_shares",
          "type": "uint256[]"
        }
      ],
      "stateMutability": "payable",
      "type": "constructor",
      "payable": true
    },
    {
      "anonymous": false,
      "inputs": [
        {
          "indexed": true,
          "internalType": "contract IERC20",
          "name": "token",
          "type": "address"
        },
        {
          "indexed": false,
          "internalType": "address",
          "name": "to",
          "type": "address"
        },
        {
          "indexed": false,
          "internalType": "uint256",
          "name": "amount",
          "type": "uint256"
        }
      ],
      "name": "ERC20PaymentReleased",
      "type": "event"
    },
    {
      "anonymous": false,
      "inputs": [
        {
          "indexed": true,
          "internalType": "address",
          "name": "previousOwner",
          "type": "address"
        },
        {
          "indexed": true,
          "internalType": "address",
          "name": "newOwner",
          "type": "address"
        }
      ],
      "name": "OwnershipTransferred",
      "type": "event"
    },
    {
      "anonymous": false,
      "inputs": [
        {
          "indexed": false,
          "internalType": "address",
          "name": "account",
          "type": "address"
        },
        {
          "indexed": false,
          "internalType": "uint256",
          "name": "shares",
          "type": "uint256"
        }
      ],
      "name": "PayeeAdded",
      "type": "event"
    },
    {
      "anonymous": false,
      "inputs": [
        {
          "indexed": false,
          "internalType": "address",
          "name": "from",
          "type": "address"
        },
        {
          "indexed": false,
          "internalType": "uint256",
          "name": "amount",
          "type": "uint256"
        }
      ],
      "name": "PaymentReceived",
      "type": "event"
    },
    {
      "anonymous": false,
      "inputs": [
        {
          "indexed": false,
          "internalType": "address",
          "name": "to",
          "type": "address"
        },
        {
          "indexed": false,
          "internalType": "uint256",
          "name": "amount",
          "type": "uint256"
        }
      ],
      "name": "PaymentReleased",
      "type": "event"
    },
    {
      "inputs": [],
      "name": "owner",
      "outputs": [
        {
          "internalType": "address",
          "name": "",
          "type": "address"
        }
      ],
      "stateMutability": "view",
      "type": "function",
      "constant": true
    },
    {
      "inputs": [
        {
          "internalType": "uint256",
          "name": "index",
          "type": "uint256"
        }
      ],
      "name": "payee",
      "outputs": [
        {
          "internalType": "address",
          "name": "",
          "type": "address"
        }
      ],
      "stateMutability": "view",
      "type": "function",
      "constant": true
    },
    {
      "inputs": [
        {
          "internalType": "contract IERC20",
          "name": "token",
          "type": "address"
        },
        {
          "internalType": "address",
          "name": "account",
          "type": "address"
        }
      ],
      "name": "released",
      "outputs": [
        {
          "internalType": "uint256",
          "name": "",
          "type": "uint256"
        }
      ],
      "stateMutability": "view",
      "type": "function",
      "constant": true
    },
    {
      "inputs": [
        {
          "internalType": "address",
          "name": "account",
          "type": "address"
        }
      ],
      "name": "released",
      "outputs": [
        {
          "internalType": "uint256",
          "name": "",
          "type": "uint256"
        }
      ],
      "stateMutability": "view",
      "type": "function",
      "constant": true
    },
    {
      "inputs": [],
      "name": "renounceOwnership",
      "outputs": [],
      "stateMutability": "nonpayable",
      "type": "function"
    },
    {
      "inputs": [
        {
          "internalType": "address",
          "name": "account",
          "type": "address"
        }
      ],
      "name": "shares",
      "outputs": [
        {
          "internalType": "uint256",
          "name": "",
          "type": "uint256"
        }
      ],
      "stateMutability": "view",
      "type": "function",
      "constant": true
    },
    {
      "inputs": [
        {
          "internalType": "contract IERC20",
          "name": "token",
          "type": "address"
        }
      ],
      "name": "totalReleased",
      "outputs": [
        {
          "internalType": "uint256",
          "name": "",
          "type": "uint256"
        }
      ],
      "stateMutability": "view",
      "type": "function",
      "constant": true
    },
    {
      "inputs": [],
      "name": "totalReleased",
      "outputs": [
        {
          "internalType": "uint256",
          "name": "",
          "type": "uint256"
        }
      ],
      "stateMutability": "view",
      "type": "function",
      "constant": true
    },
    {
      "inputs": [],
      "name": "totalShares",
      "outputs": [
        {
          "internalType": "uint256",
          "name": "",
          "type": "uint256"
        }
      ],
      "stateMutability": "view",
      "type": "function",
      "constant": true
    },
    {
      "inputs": [
        {
          "internalType": "address",
          "name": "newOwner",
          "type": "address"
        }
      ],
      "name": "transferOwnership",
      "outputs": [],
      "stateMutability": "nonpayable",
      "type": "function"
    },
    {
      "stateMutability": "payable",
      "type": "receive",
      "payable": true
    },
    {
      "inputs": [
        {
          "internalType": "address payable",
          "name": "account",
          "type": "address"
        }
      ],
      "name": "release",
      "outputs": [],
      "stateMutability": "nonpayable",
      "type": "function"
    },
    {
      "inputs": [
        {
          "internalType": "contract IERC20",
          "name": "token",
          "type": "address"
        },
        {
          "internalType": "address",
          "name": "account",
          "type": "address"
        }
      ],
      "name": "release",
      "outputs": [],
      "stateMutability": "nonpayable",
      "type": "function"
    },
    {
      "inputs": [],
      "name": "release",
      "outputs": [],
      "stateMutability": "nonpayable",
      "type": "function"
    },
    {
      "inputs": [],
      "name": "viewBalanceOwed",
      "outputs": [
        {
          "internalType": "uint256",
          "name": "",
          "type": "uint256"
        }
      ],
      "stateMutability": "view",
      "type": "function",
      "constant": true
    }
  ],
  "bytecode": "0x6080604052604051620028ca380380620028ca833981810160405281019062000029919062000759565b8181805182511462000072576040517f08c379a0000000000000000000000000000000000000000000000000000000008152600401620000699062000865565b60405180910390fd5b6000825111620000b9576040517f08c379a0000000000000000000000000000000000000000000000000000000008152600401620000b090620008d7565b60405180910390fd5b60005b8251811015620001285762000112838281518110620000e057620000df620008f9565b5b6020026020010151838381518110620000fe57620000fd620008f9565b5b60200260200101516200015360201b60201c565b80806200011f9062000957565b915050620000bc565b5050506200014b6200013f6200038c60201b60201c565b6200039460201b60201c565b505062000bf2565b600073ffffffffffffffffffffffffffffffffffffffff168273ffffffffffffffffffffffffffffffffffffffff1603620001c5576040517f08c379a0000000000000000000000000000000000000000000000000000000008152600401620001bc9062000a1a565b60405180910390fd5b600081116200020b576040517f08c379a0000000000000000000000000000000000000000000000000000000008152600401620002029062000a8c565b60405180910390fd5b6000600260008473ffffffffffffffffffffffffffffffffffffffff1673ffffffffffffffffffffffffffffffffffffffff168152602001908152602001600020541462000290576040517f08c379a0000000000000000000000000000000000000000000000000000000008152600401620002879062000b24565b60405180910390fd5b6004829080600181540180825580915050600190039060005260206000200160009091909190916101000a81548173ffffffffffffffffffffffffffffffffffffffff021916908373ffffffffffffffffffffffffffffffffffffffff16021790555080600260008473ffffffffffffffffffffffffffffffffffffffff1673ffffffffffffffffffffffffffffffffffffffff168152602001908152602001600020819055508060005462000347919062000b46565b6000819055507f40c340f65e17194d14ddddb073d3c9f888e3cb52b5aae0c6c7706b4fbc905fac82826040516200038092919062000bc5565b60405180910390a15050565b600033905090565b6000600760009054906101000a900473ffffffffffffffffffffffffffffffffffffffff16905081600760006101000a81548173ffffffffffffffffffffffffffffffffffffffff021916908373ffffffffffffffffffffffffffffffffffffffff1602179055508173ffffffffffffffffffffffffffffffffffffffff168173ffffffffffffffffffffffffffffffffffffffff167f8be0079c531659141344cd1fd0a4f28419497f9722a3daafe3b4186f6b6457e060405160405180910390a35050565b6000604051905090565b600080fd5b600080fd5b600080fd5b6000601f19601f8301169050919050565b7f4e487b7100000000000000000000000000000000000000000000000000000000600052604160045260246000fd5b620004be8262000473565b810181811067ffffffffffffffff82111715620004e057620004df62000484565b5b80604052505050565b6000620004f56200045a565b9050620005038282620004b3565b919050565b600067ffffffffffffffff82111562000526576200052562000484565b5b602082029050602081019050919050565b600080fd5b600073ffffffffffffffffffffffffffffffffffffffff82169050919050565b600062000569826200053c565b9050919050565b6200057b816200055c565b81146200058757600080fd5b50565b6000815190506200059b8162000570565b92915050565b6000620005b8620005b28462000508565b620004e9565b90508083825260208201905060208402830185811115620005de57620005dd62000537565b5b835b818110156200060b5780620005f688826200058a565b845260208401935050602081019050620005e0565b5050509392505050565b600082601f8301126200062d576200062c6200046e565b5b81516200063f848260208601620005a1565b91505092915050565b600067ffffffffffffffff82111562000666576200066562000484565b5b602082029050602081019050919050565b6000819050919050565b6200068c8162000677565b81146200069857600080fd5b50565b600081519050620006ac8162000681565b92915050565b6000620006c9620006c38462000648565b620004e9565b90508083825260208201905060208402830185811115620006ef57620006ee62000537565b5b835b818110156200071c57806200070788826200069b565b845260208401935050602081019050620006f1565b5050509392505050565b600082601f8301126200073e576200073d6200046e565b5b815162000750848260208601620006b2565b91505092915050565b6000806040838503121562000773576200077262000464565b5b600083015167ffffffffffffffff81111562000794576200079362000469565b5b620007a28582860162000615565b925050602083015167ffffffffffffffff811115620007c657620007c562000469565b5b620007d48582860162000726565b9150509250929050565b600082825260208201905092915050565b7f5061796d656e7453706c69747465723a2070617965657320616e64207368617260008201527f6573206c656e677468206d69736d617463680000000000000000000000000000602082015250565b60006200084d603283620007de565b91506200085a82620007ef565b604082019050919050565b6000602082019050818103600083015262000880816200083e565b9050919050565b7f5061796d656e7453706c69747465723a206e6f20706179656573000000000000600082015250565b6000620008bf601a83620007de565b9150620008cc8262000887565b602082019050919050565b60006020820190508181036000830152620008f281620008b0565b9050919050565b7f4e487b7100000000000000000000000000000000000000000000000000000000600052603260045260246000fd5b7f4e487b7100000000000000000000000000000000000000000000000000000000600052601160045260246000fd5b6000620009648262000677565b91507fffffffffffffffffffffffffffffffffffffffffffffffffffffffffffffffff820362000999576200099862000928565b5b600182019050919050565b7f5061796d656e7453706c69747465723a206163636f756e74206973207468652060008201527f7a65726f20616464726573730000000000000000000000000000000000000000602082015250565b600062000a02602c83620007de565b915062000a0f82620009a4565b604082019050919050565b6000602082019050818103600083015262000a3581620009f3565b9050919050565b7f5061796d656e7453706c69747465723a20736861726573206172652030000000600082015250565b600062000a74601d83620007de565b915062000a818262000a3c565b602082019050919050565b6000602082019050818103600083015262000aa78162000a65565b9050919050565b7f5061796d656e7453706c69747465723a206163636f756e7420616c726561647960008201527f2068617320736861726573000000000000000000000000000000000000000000602082015250565b600062000b0c602b83620007de565b915062000b198262000aae565b604082019050919050565b6000602082019050818103600083015262000b3f8162000afd565b9050919050565b600062000b538262000677565b915062000b608362000677565b9250827fffffffffffffffffffffffffffffffffffffffffffffffffffffffffffffffff0382111562000b985762000b9762000928565b5b828201905092915050565b62000bae816200055c565b82525050565b62000bbf8162000677565b82525050565b600060408201905062000bdc600083018562000ba3565b62000beb602083018462000bb4565b9392505050565b611cc88062000c026000396000f3fe6080604052600436106100e15760003560e01c80638da5cb5b1161007f578063d79779b211610059578063d79779b2146102f7578063e33b7de314610334578063f28e51201461035f578063f2fde38b1461038a57610128565b80638da5cb5b146102525780639852595c1461027d578063ce7c2ac2146102ba57610128565b806348b75044116100bb57806348b75044146101be578063715018a6146101e757806386d1a69f146101fe5780638b83209b1461021557610128565b8063191655871461012d5780633a98ef3914610156578063406072a91461018157610128565b36610128577f6ef95f06320e7a25a04a175ca677b7052bdd97131872c2192525a629f51be77061010f6103b3565b3460405161011e929190611191565b60405180910390a1005b600080fd5b34801561013957600080fd5b50610154600480360381019061014f91906111fd565b6103bb565b005b34801561016257600080fd5b5061016b610565565b604051610178919061122a565b60405180910390f35b34801561018d57600080fd5b506101a860048036038101906101a391906112af565b61056e565b6040516101b5919061122a565b60405180910390f35b3480156101ca57600080fd5b506101e560048036038101906101e091906112af565b6105f5565b005b3480156101f357600080fd5b506101fc6108ad565b005b34801561020a57600080fd5b50610213610935565b005b34801561022157600080fd5b5061023c6004803603810190610237919061131b565b610940565b6040516102499190611348565b60405180910390f35b34801561025e57600080fd5b50610267610988565b6040516102749190611348565b60405180910390f35b34801561028957600080fd5b506102a4600480360381019061029f9190611363565b6109b2565b6040516102b1919061122a565b60405180910390f35b3480156102c657600080fd5b506102e160048036038101906102dc9190611363565b6109fb565b6040516102ee919061122a565b60405180910390f35b34801561030357600080fd5b5061031e60048036038101906103199190611390565b610a44565b60405161032b919061122a565b60405180910390f35b34801561034057600080fd5b50610349610a8d565b604051610356919061122a565b60405180910390f35b34801561036b57600080fd5b50610374610a97565b604051610381919061122a565b60405180910390f35b34801561039657600080fd5b506103b160048036038101906103ac9190611363565b610b15565b005b600033905090565b6000600260008373ffffffffffffffffffffffffffffffffffffffff1673ffffffffffffffffffffffffffffffffffffffff168152602001908152602001600020541161043d576040517f08c379a000000000000000000000000000000000000000000000000000000000815260040161043490611440565b60405180910390fd5b6000610447610a8d565b47610452919061148f565b905060006104698383610464866109b2565b610c0c565b9050600081036104ae576040517f08c379a00000000000000000000000000000000000000000000000000000000081526004016104a590611557565b60405180910390fd5b80600360008573ffffffffffffffffffffffffffffffffffffffff1673ffffffffffffffffffffffffffffffffffffffff16815260200190815260200160002060008282546104fd919061148f565b925050819055508060016000828254610516919061148f565b925050819055506105278382610c7a565b7fdf20fd1e76bc69d672e4814fafb2c449bba3a5369d8359adf9e05e6fde87b05683826040516105589291906115d6565b60405180910390a1505050565b60008054905090565b6000600660008473ffffffffffffffffffffffffffffffffffffffff1673ffffffffffffffffffffffffffffffffffffffff16815260200190815260200160002060008373ffffffffffffffffffffffffffffffffffffffff1673ffffffffffffffffffffffffffffffffffffffff16815260200190815260200160002054905092915050565b6000600260008373ffffffffffffffffffffffffffffffffffffffff1673ffffffffffffffffffffffffffffffffffffffff1681526020019081526020016000205411610677576040517f08c379a000000000000000000000000000000000000000000000000000000000815260040161066e90611440565b60405180910390fd5b600061068283610a44565b8373ffffffffffffffffffffffffffffffffffffffff166370a08231306040518263ffffffff1660e01b81526004016106bb9190611348565b602060405180830381865afa1580156106d8573d6000803e3d6000fd5b505050506040513d601f19601f820116820180604052508101906106fc9190611614565b610706919061148f565b9050600061071e8383610719878761056e565b610c0c565b905060008103610763576040517f08c379a000000000000000000000000000000000000000000000000000000000815260040161075a90611557565b60405180910390fd5b80600660008673ffffffffffffffffffffffffffffffffffffffff1673ffffffffffffffffffffffffffffffffffffffff16815260200190815260200160002060008573ffffffffffffffffffffffffffffffffffffffff1673ffffffffffffffffffffffffffffffffffffffff16815260200190815260200160002060008282546107ef919061148f565b9250508190555080600560008673ffffffffffffffffffffffffffffffffffffffff1673ffffffffffffffffffffffffffffffffffffffff1681526020019081526020016000206000828254610845919061148f565b92505081905550610857848483610d6e565b8373ffffffffffffffffffffffffffffffffffffffff167f3be5b7a71e84ed12875d241991c70855ac5817d847039e17a9d895c1ceb0f18a848360405161089f929190611191565b60405180910390a250505050565b6108b56103b3565b73ffffffffffffffffffffffffffffffffffffffff166108d3610988565b73ffffffffffffffffffffffffffffffffffffffff1614610929576040517f08c379a00000000000000000000000000000000000000000000000000000000081526004016109209061168d565b60405180910390fd5b6109336000610df4565b565b61093e336103bb565b565b600060048281548110610956576109556116ad565b5b9060005260206000200160009054906101000a900473ffffffffffffffffffffffffffffffffffffffff169050919050565b6000600760009054906101000a900473ffffffffffffffffffffffffffffffffffffffff16905090565b6000600360008373ffffffffffffffffffffffffffffffffffffffff1673ffffffffffffffffffffffffffffffffffffffff168152602001908152602001600020549050919050565b6000600260008373ffffffffffffffffffffffffffffffffffffffff1673ffffffffffffffffffffffffffffffffffffffff168152602001908152602001600020549050919050565b6000600560008373ffffffffffffffffffffffffffffffffffffffff1673ffffffffffffffffffffffffffffffffffffffff168152602001908152602001600020549050919050565b6000600154905090565b600080610aa3336109fb565b11610aad57600080fd5b6000610ab8336109fb565b90506000610ac4610565565b90506000610ad0610a8d565b47610adb919061148f565b90506000610ae8336109b2565b905080838584610af891906116dc565b610b029190611765565b610b0c9190611796565b94505050505090565b610b1d6103b3565b73ffffffffffffffffffffffffffffffffffffffff16610b3b610988565b73ffffffffffffffffffffffffffffffffffffffff1614610b91576040517f08c379a0000000000000000000000000000000000000000000000000000000008152600401610b889061168d565b60405180910390fd5b600073ffffffffffffffffffffffffffffffffffffffff168173ffffffffffffffffffffffffffffffffffffffff1603610c00576040517f08c379a0000000000000000000000000000000000000000000000000000000008152600401610bf79061183c565b60405180910390fd5b610c0981610df4565b50565b600081600054600260008773ffffffffffffffffffffffffffffffffffffffff1673ffffffffffffffffffffffffffffffffffffffff1681526020019081526020016000205485610c5d91906116dc565b610c679190611765565b610c719190611796565b90509392505050565b80471015610cbd576040517f08c379a0000000000000000000000000000000000000000000000000000000008152600401610cb4906118a8565b60405180910390fd5b60008273ffffffffffffffffffffffffffffffffffffffff1682604051610ce3906118f9565b60006040518083038185875af1925050503d8060008114610d20576040519150601f19603f3d011682016040523d82523d6000602084013e610d25565b606091505b5050905080610d69576040517f08c379a0000000000000000000000000000000000000000000000000000000008152600401610d6090611980565b60405180910390fd5b505050565b610def8363a9059cbb60e01b8484604051602401610d8d929190611191565b604051602081830303815290604052907bffffffffffffffffffffffffffffffffffffffffffffffffffffffff19166020820180517bffffffffffffffffffffffffffffffffffffffffffffffffffffffff8381831617835250505050610eba565b505050565b6000600760009054906101000a900473ffffffffffffffffffffffffffffffffffffffff16905081600760006101000a81548173ffffffffffffffffffffffffffffffffffffffff021916908373ffffffffffffffffffffffffffffffffffffffff1602179055508173ffffffffffffffffffffffffffffffffffffffff168173ffffffffffffffffffffffffffffffffffffffff167f8be0079c531659141344cd1fd0a4f28419497f9722a3daafe3b4186f6b6457e060405160405180910390a35050565b6000610f1c826040518060400160405280602081526020017f5361666545524332303a206c6f772d6c6576656c2063616c6c206661696c65648152508573ffffffffffffffffffffffffffffffffffffffff16610f819092919063ffffffff16565b9050600081511115610f7c5780806020019051810190610f3c91906119d8565b610f7b576040517f08c379a0000000000000000000000000000000000000000000000000000000008152600401610f7290611a77565b60405180910390fd5b5b505050565b6060610f908484600085610f99565b90509392505050565b606082471015610fde576040517f08c379a0000000000000000000000000000000000000000000000000000000008152600401610fd590611b09565b60405180910390fd5b610fe7856110ad565b611026576040517f08c379a000000000000000000000000000000000000000000000000000000000815260040161101d90611b75565b60405180910390fd5b6000808673ffffffffffffffffffffffffffffffffffffffff16858760405161104f9190611c04565b60006040518083038185875af1925050503d806000811461108c576040519150601f19603f3d011682016040523d82523d6000602084013e611091565b606091505b50915091506110a18282866110d0565b92505050949350505050565b6000808273ffffffffffffffffffffffffffffffffffffffff163b119050919050565b606083156110e057829050611130565b6000835111156110f35782518084602001fd5b816040517f08c379a00000000000000000000000000000000000000000000000000000000081526004016111279190611c70565b60405180910390fd5b9392505050565b600073ffffffffffffffffffffffffffffffffffffffff82169050919050565b600061116282611137565b9050919050565b61117281611157565b82525050565b6000819050919050565b61118b81611178565b82525050565b60006040820190506111a66000830185611169565b6111b36020830184611182565b9392505050565b600080fd5b60006111ca82611137565b9050919050565b6111da816111bf565b81146111e557600080fd5b50565b6000813590506111f7816111d1565b92915050565b600060208284031215611213576112126111ba565b5b6000611221848285016111e8565b91505092915050565b600060208201905061123f6000830184611182565b92915050565b600061125082611157565b9050919050565b61126081611245565b811461126b57600080fd5b50565b60008135905061127d81611257565b92915050565b61128c81611157565b811461129757600080fd5b50565b6000813590506112a981611283565b92915050565b600080604083850312156112c6576112c56111ba565b5b60006112d48582860161126e565b92505060206112e58582860161129a565b9150509250929050565b6112f881611178565b811461130357600080fd5b50565b600081359050611315816112ef565b92915050565b600060208284031215611331576113306111ba565b5b600061133f84828501611306565b91505092915050565b600060208201905061135d6000830184611169565b92915050565b600060208284031215611379576113786111ba565b5b60006113878482850161129a565b91505092915050565b6000602082840312156113a6576113a56111ba565b5b60006113b48482850161126e565b91505092915050565b600082825260208201905092915050565b7f5061796d656e7453706c69747465723a206163636f756e7420686173206e6f2060008201527f7368617265730000000000000000000000000000000000000000000000000000602082015250565b600061142a6026836113bd565b9150611435826113ce565b604082019050919050565b600060208201905081810360008301526114598161141d565b9050919050565b7f4e487b7100000000000000000000000000000000000000000000000000000000600052601160045260246000fd5b600061149a82611178565b91506114a583611178565b9250827fffffffffffffffffffffffffffffffffffffffffffffffffffffffffffffffff038211156114da576114d9611460565b5b828201905092915050565b7f5061796d656e7453706c69747465723a206163636f756e74206973206e6f742060008201527f647565207061796d656e74000000000000000000000000000000000000000000602082015250565b6000611541602b836113bd565b915061154c826114e5565b604082019050919050565b6000602082019050818103600083015261157081611534565b9050919050565b6000819050919050565b600061159c61159761159284611137565b611577565b611137565b9050919050565b60006115ae82611581565b9050919050565b60006115c0826115a3565b9050919050565b6115d0816115b5565b82525050565b60006040820190506115eb60008301856115c7565b6115f86020830184611182565b9392505050565b60008151905061160e816112ef565b92915050565b60006020828403121561162a576116296111ba565b5b6000611638848285016115ff565b91505092915050565b7f4f776e61626c653a2063616c6c6572206973206e6f7420746865206f776e6572600082015250565b60006116776020836113bd565b915061168282611641565b602082019050919050565b600060208201905081810360008301526116a68161166a565b9050919050565b7f4e487b7100000000000000000000000000000000000000000000000000000000600052603260045260246000fd5b60006116e782611178565b91506116f283611178565b9250817fffffffffffffffffffffffffffffffffffffffffffffffffffffffffffffffff048311821515161561172b5761172a611460565b5b828202905092915050565b7f4e487b7100000000000000000000000000000000000000000000000000000000600052601260045260246000fd5b600061177082611178565b915061177b83611178565b92508261178b5761178a611736565b5b828204905092915050565b60006117a182611178565b91506117ac83611178565b9250828210156117bf576117be611460565b5b828203905092915050565b7f4f776e61626c653a206e6577206f776e657220697320746865207a65726f206160008201527f6464726573730000000000000000000000000000000000000000000000000000602082015250565b60006118266026836113bd565b9150611831826117ca565b604082019050919050565b6000602082019050818103600083015261185581611819565b9050919050565b7f416464726573733a20696e73756666696369656e742062616c616e6365000000600082015250565b6000611892601d836113bd565b915061189d8261185c565b602082019050919050565b600060208201905081810360008301526118c181611885565b9050919050565b600081905092915050565b50565b60006118e36000836118c8565b91506118ee826118d3565b600082019050919050565b6000611904826118d6565b9150819050919050565b7f416464726573733a20756e61626c6520746f2073656e642076616c75652c207260008201527f6563697069656e74206d61792068617665207265766572746564000000000000602082015250565b600061196a603a836113bd565b91506119758261190e565b604082019050919050565b600060208201905081810360008301526119998161195d565b9050919050565b60008115159050919050565b6119b5816119a0565b81146119c057600080fd5b50565b6000815190506119d2816119ac565b92915050565b6000602082840312156119ee576119ed6111ba565b5b60006119fc848285016119c3565b91505092915050565b7f5361666545524332303a204552433230206f7065726174696f6e20646964206e60008201527f6f74207375636365656400000000000000000000000000000000000000000000602082015250565b6000611a61602a836113bd565b9150611a6c82611a05565b604082019050919050565b60006020820190508181036000830152611a9081611a54565b9050919050565b7f416464726573733a20696e73756666696369656e742062616c616e636520666f60008201527f722063616c6c0000000000000000000000000000000000000000000000000000602082015250565b6000611af36026836113bd565b9150611afe82611a97565b604082019050919050565b60006020820190508181036000830152611b2281611ae6565b9050919050565b7f416464726573733a2063616c6c20746f206e6f6e2d636f6e7472616374000000600082015250565b6000611b5f601d836113bd565b9150611b6a82611b29565b602082019050919050565b60006020820190508181036000830152611b8e81611b52565b9050919050565b600081519050919050565b60005b83811015611bbe578082015181840152602081019050611ba3565b83811115611bcd576000848401525b50505050565b6000611bde82611b95565b611be881856118c8565b9350611bf8818560208601611ba0565b80840191505092915050565b6000611c108284611bd3565b915081905092915050565b600081519050919050565b6000601f19601f8301169050919050565b6000611c4282611c1b565b611c4c81856113bd565b9350611c5c818560208601611ba0565b611c6581611c26565b840191505092915050565b60006020820190508181036000830152611c8a8184611c37565b90509291505056fea26469706673582212205654d71e3860c1cdad4314f7844cfdeb159e4f3589e453ac8a64c9a571bb1ff664736f6c634300080d0033",
  "immutableReferences": {},
  "source": "// SPDX-License-Identifier: MIT\n\npragma solidity ^0.8.11;\n\nimport \"@openzeppelin/contracts/finance/PaymentSplitter.sol\";\nimport \"@openzeppelin/contracts/access/Ownable.sol\";\n\ncontract HachiWallet is PaymentSplitter, Ownable {\n\n    constructor(\n        address[] memory _address, \n        uint256[] memory _shares\n    ) payable\n    PaymentSplitter(_address, _shares) {\n    }\n\n    function release() public {\n        release(payable(msg.sender));\n    }\n\n    function viewBalanceOwed() public view returns (uint) {\n        require(shares(msg.sender) > 0);\n        uint _shares = shares(msg.sender);\n        uint _totalShares = totalShares();\n        uint _totalReceived = address(this).balance + totalReleased();\n        uint _released = released(msg.sender);\n\n        return (_totalReceived * _shares) / _totalShares - _released;\n    }\n}",
  "sourcePath": "/Users/bryantbackus/Documents/ABackusCryptoDynasty/Projects/HachiNFT/contracts/HACHIWallet.sol",
  "compiler": {
    "name": "solc",
    "version": "0.8.13+commit.abaa5c0e.Emscripten.clang"
  },
  "schemaVersion": "3.4.7",
  "updatedAt": "2022-07-20T00:48:27.514Z",
  "networkType": "ethereum",
  "devdoc": {
    "kind": "dev",
    "methods": {
      "owner()": {
        "details": "Returns the address of the current owner."
      },
      "payee(uint256)": {
        "details": "Getter for the address of the payee number `index`."
      },
      "release(address)": {
        "details": "Triggers a transfer to `account` of the amount of Ether they are owed, according to their percentage of the total shares and their previous withdrawals."
      },
      "release(address,address)": {
        "details": "Triggers a transfer to `account` of the amount of `token` tokens they are owed, according to their percentage of the total shares and their previous withdrawals. `token` must be the address of an IERC20 contract."
      },
      "released(address)": {
        "details": "Getter for the amount of Ether already released to a payee."
      },
      "released(address,address)": {
        "details": "Getter for the amount of `token` tokens already released to a payee. `token` should be the address of an IERC20 contract."
      },
      "renounceOwnership()": {
        "details": "Leaves the contract without owner. It will not be possible to call `onlyOwner` functions anymore. Can only be called by the current owner. NOTE: Renouncing ownership will leave the contract without an owner, thereby removing any functionality that is only available to the owner."
      },
      "shares(address)": {
        "details": "Getter for the amount of shares held by an account."
      },
      "totalReleased()": {
        "details": "Getter for the total amount of Ether already released."
      },
      "totalReleased(address)": {
        "details": "Getter for the total amount of `token` already released. `token` should be the address of an IERC20 contract."
      },
      "totalShares()": {
        "details": "Getter for the total shares held by payees."
      },
      "transferOwnership(address)": {
        "details": "Transfers ownership of the contract to a new account (`newOwner`). Can only be called by the current owner."
      }
    },
    "version": 1
  },
  "userdoc": {
    "kind": "user",
    "methods": {},
    "version": 1
  }
}